:020000040800F2
:10000000A062002015020008A9480008A9480008BD
:10001000A9480008A9480008A948000800000000F5
:10002000000000000000000000000000A9480008D7
:10003000A948000800000000A9480008ED90000849
:100040002F0200082F0200082F0200082F020008CC
:100050002F0200082F0200082F0200082F020008BC
:100060002F0200082F0200082F020008BD210008FF
:10007000DD210008FD2100081D2200083D220008A6
:1000800069220008952200082F0200085FC30008BB
:1000900055C400082F0200082F0200082F02000894
:1000A0002F0200082F0200082F0200082F0200086C
:1000B0002F0200082F0200082F0200082F0200085C
:1000C0002F0200082F0200082F0200082F0200084C
:1000D0002F0200083D940008FD9400082F0200083C
:1000E0002F0200082F02000851C300082F02000849
:1000F0002F0200082F0200082F0200082F0200081C
:100100002F0200082F0200082F0200082F0200080B
:100110002F0200082F0200082F0200082F020008FB
:10012000B5220008D5220008F9220008192300088A
:1001300000F002F800F05FF80AA090E8000C82449A
:100140008344AAF10107DA4501D100F054F8AFF277
:10015000090EBAE80F0013F0010F18BFFB1A43F0A5
:100160000103184798080100B80801000A444FF03D
:10017000000C10F8013B13F0070408BF10F8014B06
:100180001D1108BF10F8015B641E05D010F8016B4B
:10019000641E01F8016BF9D113F0080F1EBF10F8AF
:1001A000014BAD1C0C1B09D16D1E58BF01F801CBD2
:1001B000FAD505E014F8016B01F8016B6D1EF9D555
:1001C0009142D6D37047000000230024002500266A
:1001D000103A28BF78C1FBD8520728BF30C148BFAA
:1001E0000B607047782900F07780002070471FB5BA
:1001F0001FBD10B510BD00F017FA1146FFF7F7FF4D
:100200000DF0FAFF00F035FA03B4FFF7F2FF03BC7C
:100210000CF06CFC0948804709480047FEE7FEE700
:10022000FEE7FEE7FEE7FEE7FEE7FEE7FEE7FEE7A6
:1002300004480549054A064B7047000061910008D3
:1002400031010008A05C0020A0620020A05E002018
:10025000A05E0020704700000FB4044910B503AA47
:10026000029800F081F910BC5DF814FB0802002030
:100270002DE9F0410E460446002020622046E16848
:10028000884730B3252805D0D4E901219047206A5A
:10029000401CF2E7E168204600278847050018D097
:1002A000A5F14100192802D820354FF400673246E5
:1002B000294620462760FFF795FF40B1012804D06A
:1002C000F61D26F007060836D8E7361DD6E728467D
:1002D000DAE7206ABDE8F08170B504460D46214694
:1002E0001068AFF300802188090502D50F4A7A44CF
:1002F00002E00E4A7A440E32002104F1240305E0A4
:1003000000F00F060009965D5E54491C0028F7D1E5
:1003100020780023000704D5702D02D009B10223F4
:1003200011322046BDE8704000F0C5B8E206010079
:1003300030B505460B462A4613F8014B12F8010B5F
:1003400008B1A042F8D01CB1002802D06D1CF1E722
:10035000284630BD10B5431C02E010F8011B71B1F6
:100360008107FAD14FF0013202C88C1A8C4314EA8B
:10037000C211F9D0C01A0A0603D0C01E10BDC01A9F
:1003800010BD0A0401D0801E10BD0902FCD0401E21
:1003900010BD032A40F2308010F0030C00F01580ED
:1003A00011F8013BBCF1020F624498BF11F801CB78
:1003B00000F8013B38BF11F8013BA2F1040298BFDD
:1003C00000F801CB38BF00F8013B11F0030300F047
:1003D000DD80083AC0F0088051F8043B083A51F833
:1003E00004CBA0E80810F5E7121D5CBF51F8043BF0
:1003F00040F8043BAFF30080D20724BF11F8013B63
:1004000011F801CB48BF11F8012B24BF00F8013BC4
:1004100000F801CB48BF00F8012B70474FF00002F5
:100420000429C0F0128010F0030C00F01B80CCF106
:10043000040CBCF1020F18BF00F8012BA8BF20F874
:10044000022BA1EB0C0100F00DB85FEAC17C24BFC8
:1004500000F8012B00F8012B48BF00F8012B704772
:100460004FF0000200B5134694469646203922BF4D
:10047000A0E80C50A0E80C50B1F12001BFF4F7AF98
:10048000090728BFA0E80C5048BF0CC05DF804EB7A
:10049000890028BF40F8042B08BF704748BF20F8E8
:1004A000022B11F0804F18BF00F8012B70477047E6
:1004B0007047704770472DE9F0470D4699469246C0
:1004C000044600F124080168880604D5E06921F09B
:1004D0001001216000E00120A84201DD471B00E07F
:1004E0000027A1697A1902EB0900081AA061207897
:1004F000C00602D42046AFF30080002608E0D4E90D
:1005000001211AF806009047206A401C761C2062E0
:100510004E45F4DB2078C0060AD52046AFF30080B4
:1005200006E0D4E9012130209047206A401C206277
:10053000381EA7F10107F4DC07E0D4E9012118F81F
:1005400005009047206A401C2062281EA5F1010585
:10055000F3DC2046AFF300802078000602D50220AD
:10056000BDE8F0870120FBE7074B70B50D467B44E3
:1005700000F043F80446284600F052F810B14FF05E
:10058000FF3070BD204670BDCFDA000010B5203AB4
:10059000C0F00B80B1E81850203AA0E81850B1E83C
:1005A0001850A0E81850BFF4F5AF5FEA027C24BFF2
:1005B000B1E81850A0E8185044BF18C918C0BDE8E9
:1005C00010405FEA827C24BF51F8043B40F8043BB2
:1005D00008BF7047D20728BF31F8023B48BF11F867
:1005E000012B28BF20F8023B48BF00F8012B7047C1
:1005F00001694A1C02610878704700B58FB0CDE9E7
:1006000001310021059105497944CDE903101146D6
:100610006846FFF72DFE0FB000BD0000E5FFFFFFAD
:10062000007B00F080007047754600F02BF8AE4666
:1006300005006946534620F00700854618B020B5EE
:10064000FFF7F6FDBDE820404FF000064FF0000731
:100650004FF000084FF0000B21F00701AC46ACE86A
:10066000C009ACE8C009ACE8C009ACE8C0098D46D7
:10067000704710B50446AFF300802046BDE8104037
:10068000FFF7C2BD004870473C5C002010B504462F
:1006900024B1012C07D0022C15D10AE01021012031
:1006A00008F060F910E04FF48051022008F002F9E0
:1006B0000AE01021012008F055F94FF48051022082
:1006C00008F0F8F800E000BF00BF10BD0146CAB254
:1006D0000B1243EA0220704710B5002404E0A7483B
:1006E000005DA7490855641CA64800888442F6D3DB
:1006F000A3484068A4494860A14880688860A14830
:1007000000881F280FD00220FFF7C0FF00209C495F
:100710000860487B1A22052108F010FA0021012008
:1007200008F0EEF910BD9648C07B282803D0944805
:10073000C07B2A2816D19248407C01069048807CD4
:1007400041EA00418E48C07C41EA00208C49097D85
:1007500008438E4908608A48C17D807D41EA0020B7
:100760008B490860864800688A4988426FD184486E
:10077000407B89490968884207D88148807B0128E5
:1007800003DB7F48807B10280DDD0220FFF77EFF12
:100790007B49487B2422052108F0D0F90021012063
:1007A00008F0AEF9E8E07648C07B25285FD01BDC76
:1007B00015286FD00EDC08286DD006DC00285BD031
:1007C000032830D0042867D176E00A2873D0122895
:1007D000F9D12DE01A380A285ED2DFE800F0392E70
:1007E000B17D33B1B1B1B1438A286FD00EDC552849
:1007F00067D006DC282844D02A284ED02F28E2D102
:1008000054E05A2829D08828DDD176E0A8286DD078
:1008100004DC8F286FD09E28D5D173E0AA287BD026
:10082000AF28D0D182E05649487B06F01BFF95E007
:100830005349487B06F0EEFD90E05149487B06F0B5
:1008400025FF8BE04E49487B06F020FF86E086E0DE
:100850004B49487B06F02EFE80E04949487B06F074
:100860001FFE7BE04649487B06F0B8FE76E044492F
:10087000487B06F065FE71E04149487B06F00EFFBB
:100880006CE03F49487B42490A684049096806F0E4
:100890001BFE63E01BE024E052E03949487B3C4901
:1008A0000A683A49096806F035FF57E03449487B41
:1008B00006F010FF52E02AE03149487B06F092FD35
:1008C0004CE02F49487B06F0C9FD47E029E02C4960
:1008D000487B06F0C3FD41E02949487B06F0BEFD98
:1008E0003CE02749487B06F0B9FD37E02449487BC6
:1008F00006F0B4FD32E01EE00EE02149487B06F030
:10090000ADFD2BE01E49487B06F0A8FD26E01C4902
:10091000487B06F0A3FD21E01949487B06F09EFDC7
:100920001CE01749487B06F099FD17E01449487B05
:1009300006F094FD12E01249487B06F08FFD0DE0B1
:100940000220FFF7A3FE0E49487B2022052108F074
:10095000F5F80021012008F0D3F800BF0CE00220D8
:10096000FFF794FE0649487B2022052108F0E6F8AF
:100970000021012008F0C4F800BFD3E67011002068
:10098000B0110020EE020020D0110020F002002063
:10099000F4020020555342435C03002010B50024AC
:1009A00049E047F6FF70294908602948008800F0AF
:1009B0000F002849087008460078274901EB80009D
:1009C000D0F8000C84B204F40040C8B1214800788B
:1009D00001EB8000D0F8000CC0F30E0048F68F71D8
:1009E00008401C4909781C4A02EB8101C1F8000C3F
:1009F00018490978491E194A52F8210080471AE01F
:100A000004F08000B8B113480078134901EB80006E
:100A1000D0F8000C48F60F7108400E4909780E4ACC
:100A200002EB8101C1F8000C0A490978491E0C4A01
:100A300052F8210080470548006880B204490880C8
:100A400000F400400028ACD110BD0000445C004020
:100A50002003002008040020005000404003002034
:100A60002403002008B50020009022E19748008868
:100A700000F00F00964908700846007800287CD1E5
:100A800094480068944908800846008800F03000C7
:100A9000924908809048008800F440508E490880B0
:100AA0008C4909684BF6BF7201EA020080F40050DD
:100AB00080F0200040F4004141F08001854A11603F
:100AC0008248008800F0100090BB1046006848F68D
:100AD0000F7108401146086003F0D6FF7D49096890
:100AE0004BF6BF7201EA02007B49098801F480518C
:100AF00009B180F480507849098801F4005109B1A6
:100B000080F400507549098801F0100109B180F0A6
:100B100010007249098801F0200109B180F020001D
:100B200081B241F4004141F080016A4A116008BD80
:100B3000FFE76848006880B20090BDF8000000F44C
:100B40000060B0B363480068C0F30E0048F68F71D0
:100B500008406049086008F00FF85E4909684BF6E4
:100B6000BF7201EA02005C49098801F4805109B1B1
:100B700080F480505849098800E056E001F40051A3
:100B800009B180F400505549098801F0100109B1FC
:100B900080F010005149098801F0200109B180F06E
:100BA000200081B241F4004141F08001494A1160C6
:100BB000BDE7FFE7BDF8000000F40040002878D052
:100BC00044480068C0F30E0048F68F710840414960
:100BD000086005F02DFE3F4909684BF6BF7201EA37
:100BE00002003D49098801F4805109B180F4805028
:100BF0003949098801F4005109B180F4005037499E
:100C0000098801F0100109B180F01000334909880A
:100C100001F0200109B180F0200081B241F40041CF
:100C200041F080012B4A116081E7294800782C4966
:100C300001EB8000D0F8000C80B20090BDF80000FD
:100C400000F40040C0B12248007801EB8000D0F8E9
:100C5000000CC0F30E0048F68F7108401C4909785B
:100C60001F4A02EB8101C1F8000C19490978491E9D
:100C70001C4A52F821008047BDF8000000F08000B7
:100C8000B8B113480078164901EB8000D0F8000C89
:100C900048F60F7108400E490978114A02EB8101AC
:100CA000C1F8000C0A490978491E0F4A52F8210080
:100CB000804708484430006880B20449088000F446
:100CC000004000287FF4D2AE00BF30E720030020B0
:100CD00008040020005C00401C0400201E040020CA
:100CE00000500040400300202403002000B50246CD
:100CF000507800F008F80346107800F004F803EB91
:100D00000010C0B200BD0146A1F16100002802D46C
:100D10000A30C0B27047A1F14100002802D40A3065
:100D2000C0B2F7E7A1F13000C0B2F3E70B4A02EB23
:100D30008001D1F8001C01F4804171B102EB800107
:100D4000D1F8001C48F68F7211404CF2800211431A
:100D5000024B03EB8002C2F8001C704700500040B9
:100D60000B4A02EB8001D1F8001C01F0400171B187
:100D700002EB8001D1F8001C48F68F72114048F256
:100D8000C0021143024B03EB8002C2F8001C704703
:100D9000005000400020064908704870054908705E
:100DA000054908600549086005490860704700006A
:100DB000280400202A0400202C04002030040020F5
:100DC00034040020084A02EB8001D1F8001C48F6E8
:100DD0008F62114048F280021143034B03EB800203
:100DE000C2F8001C704700000050004070B5054676
:100DF0000E46287808B9012400E02C78012C02D096
:100E0000022C0CD105E001200849087005F02CFFE8
:100E100007E002200549087005F0C6FE01E0002445
:100E200000BF00BF34704FF0011070BD7812002079
:100E300030B502460B461078547840EA04210B483E
:100E400000680B4CB0FBF4F0801C0324B0FBF4F002
:100E500041430846044600BF00BF651E2C1EFCD15E
:100E600000BF00201870034830BD000014020020AD
:100E700040420F000100020010B504460020044962
:100E8000087005F0C5FE00202070012010BD000094
:100E90007812002030B502461546521C12F8014B5C
:100EA0000BE012F8013B03F0020020B103F0100048
:100EB00010B1121D00E0121D641E002CF1D10020A3
:100EC00008704870501B0004801C30BD70B504468B
:100ED0000D46207810B1012810D107E0627802F0A9
:100EE00001000B4A1268116888470BE0627802F033
:100EF0000100074A12685168884703E0FF20287004
:100F0000044870BD00BF002028700248F9E70000C7
:100F1000000200200100020010B502460020062A4F
:100F20001BD006DC062A30D2DFE802F02F0C0D0EB3
:100F30000F16F02A12D0FD2A14D0FE2A21D0FF2A43
:100F400023D118E022E021E020E0114B1C680C6066
:100F50001B790B71052019E018E017E017230B70BF
:100F6000012013E000230B7010234B7000238B70C3
:100F7000CB7004200AE040230B7000234B7002204A
:100F800004E040230B70012000E000BF00BF10BD53
:100F9000E3FB0008F0B502460E4612F8013B12488A
:100FA00083750025002109E012F8014B0E48183026
:100FB0004454083020F811502544491C9942F3D379
:100FC000002108E008481830405C2D1A06483030EF
:100FD00020F81150491C9942F4D300203070581C5D
:100FE0000004401CF0BD00007812002070B50646D9
:100FF0000C4612480078022800D019E031780F48DA
:10100000C175C07D0D49897D884200DB10E00E204E
:1010100003F0F0FD03F0E8FF054600202070657046
:10102000280AA070280CE070280E2071044870BDBA
:10103000FF2020704FF00110F9E700007812002027
:10104000050001002DE9F04704460E46002006F891
:10105000010B4FF001084FF0010914F801AB14E047
:1010600014F8017B32462146384604F091F807F027
:101070003F0505B94025E81DC5082C44681C80447F
:1010800007F0800008B12E44A944BAF10000AAF18B
:10109000010AE5D1484668F31F40BDE8F08700002B
:1010A0002DE9F04F87B005460C46069500200490C8
:1010B00000260594A41CE44908708146039015F8A5
:1010C000011BE248C175C07DE049897D884200DB93
:1010D000ABE115F801BB4AE115F8017B07F001000F
:1010E00008B10B2000E00A20824607F00200002829
:1010F00079D00398002846D0D448B0F80A80D1456A
:1011000014D107F0100088B900BF6946384604F0D2
:101110008FF80646022E24D1B8F10000A8F101088C
:101120001FD0C94800780028EFD01AE0B9F10A0FA3
:1011300004D04FF00A09484603F05CFD00BF694641
:101140000E2004F075F80646022E08D1B8F1000012
:10115000A8F1010803D0BC4800780028EFD0002097
:101160000390012E00D006E1009804F8010B0098CE
:10117000000A04F8010B0098000C04F8010B009819
:10118000000E04F8010B07F01000002860D028784A
:10119000697840EA0120A97840EA0140E97840EA0C
:1011A000016002902D1DA94880890190D14503D08E
:1011B000D146484603F01EFDA448B0F80A8000BF9F
:1011C0000021384604F034F80646022E08D1B8F162
:1011D0000000A8F1010803D09B4800780028EFD058
:1011E000012E01D0C7E056E000BF9848B0F80A8051
:1011F00000BF6946384604F01BF80646022E08D1A7
:10120000B8F10000A8F1010803D08F480078002849
:10121000EFD0012E00D00EE08C4800690099084004
:101220000299884207D00198411E019118B1864861
:1012300000780028D9D000BF844800690099084090
:101240000299884201D046F01006012E22D092E089
:10125000039800281ED1D14503D0D146484603F05B
:10126000C9FC7A48B0F80A8000BF0021384603F074
:10127000DFFF0646022E08D1B8F10000A8F10108F0
:1012800003D0714800780028EFD0012E00D072E022
:101290000120039062E0039878B3B9F10A0F04D0FB
:1012A0004FF00A09484603F0A5FC6848B0F80A80E8
:1012B00000BF69460E2003F0BBFF0646022E08D190
:1012C000B8F10000A8F1010803D05F4800780028B9
:1012D000EFD0012E00D04EE0009804F8010B0098EA
:1012E000000A04F8010B0098000C04F8010B0098A8
:1012F000000E04F8010B002003902878697840EA7A
:101300000120A97840EA0140E97840EA01600090B4
:101310002D1D07F0200020B14C48009901610126E5
:101320001CE0D14503D0D146484603F063FC474852
:10133000B0F80A8000BF6946384603F079FF0646D8
:10134000022E08D1B8F10000A8F1010803D03E48F0
:1013500000780028EFD0012E00D00CE00498401C4B
:1013600004903948007800B105E0ABF1010BBBF106
:10137000000F7FF4B1AE00BF0CE015F8017B07F061
:10138000020020B107F0100010B12D1D00E02D1D4E
:10139000ABF1010BBBF1000FEFD1012E44D1B9F13C
:1013A0000A0F04D04FF00A09484603F023FC0398C3
:1013B00030B32648B0F80A8000BF69460E2003F01B
:1013C00037FF0646022E08D1B8F10000A8F1010847
:1013D00003D01D4800780028EFD0012E00D024E073
:1013E000009804F8010B0098000A04F8010B00981B
:1013F000000C04F8010B0098000E04F8010B13E038
:101400001248B0F80A8000BF00210E2003F010FF40
:101410000646022E08D1B8F10000A8F1010803D059
:10142000094800780028EFD000BF0498C1B20598A1
:101430000170059846700598211A0698281A41EA05
:10144000004007B0BDE8F08F200400207812002093
:101450002DE9FC5F04460D464FF0000B0026A84620
:10146000ED1C00206049087014F8011B5F48C1752D
:10147000C07D5E49897D884200DBA9E020786178E3
:1014800040EA0127A41C07B9A2E014F801AB0AF056
:10149000010008B10B2000E00A200090009803F042
:1014A000A9FB0AF0020000284DD05048B0F80A907D
:1014B00000BF0021504603F0BBFE0646022E08D1B5
:1014C000B9F10000A9F1010903D0474800780028CC
:1014D000EFD0012E00D07BE030E03FB900980A2821
:1014E00002D00A2003F086FB4FF00E0A3F48B0F806
:1014F0000A9000BF01A9504603F09AFE0646022E4C
:1015000008D1B9F10000A9F1010903D036480078EB
:101510000028EFD0012E00D05AE0019805F8010B09
:101520000198000A05F8010B0198000C05F8010B61
:101530000198000E05F8010B0BF1010B381EA7F105
:101540000107CAD143E024E02078617840EA012015
:10155000A17840EA0140E17840EA01600190241D51
:101560002248B0F80A9000BF01A9504603F060FE7F
:101570000646022E08D1B9F10000A9F1010903D0F5
:10158000194800780028EFD0012E00D020E00BF1A0
:10159000010B381EA7F10107D6D100980A2802D006
:1015A0000A2003F027FB1148B0F80A9000BF002181
:1015B0000E2003F03DFE0646022E08D1B9F10000D0
:1015C000A9F1010903D0084800780028EFD000BF36
:1015D00088F800B04FEA1B2088F8010088F8026004
:1015E000A5EB0800BDE8FC9F200400207812002035
:1015F00070B504460D4621780F48C175C07D0E496F
:10160000897D884203DBFF202870012070BD0820FF
:1016100003F0F0FA6078A17840EA0120E17840EA2E
:101620000140217940EA0166304604F0B3F9002018
:1016300028700120EAE700007812002070B5054606
:101640000E462878802807D328789F2804D831466A
:10165000284600F0AEF870BD287806F8010B15F8A2
:10166000010B1D2871D2DFE800F00F181E245E6404
:101670006A9A71292F9A9A9A9A9A343A40464C5209
:1016800058777D83898F94002878711CFFF744FC7C
:101690000446347004F10210DDE731462846FFF7B6
:1016A00015FC044681E031462846FFF79FFB0446BF
:1016B0007BE03046FFF7E0FB044676E03146284603
:1016C000FFF7B6FB044670E0304600F0B2F804467F
:1016D0006BE03146284600F0A7FB044665E0314642
:1016E000284600F065FB04465FE03146284600F0DE
:1016F0009BFC044659E03146284600F0A3F8044616
:1017000053E031462846FFF79DFC04464DE0314644
:101710002846FFF73FFC044647E031462846FFF7DE
:1017200065FC044641E03146284600F00DFD0446C4
:101730003BE03146284600F0B3FC044635E0314634
:10174000284600F0CFFC04462FE028E0314628462A
:1017500000F012FD044628E03146284606F0DEFF80
:10176000044622E03146284606F078FF04461CE095
:101770003146284606F0ACFE044616E031462846BF
:1017800006F0D4FE044610E0304606F09FFF044603
:101790000BE03146284606F0F9FE044605E0FF203E
:1017A00006F8010C4FF0011055E700BF04F10110DD
:1017B00051E710B502464FF00110137801F8013BD4
:1017C00012F8013B803B202B31D2DFE803F01011EF
:1017D00012131415161718191A1B1C1D1E1F202171
:1017E00022232425262728292A2B2C2D2E2F1EE0C4
:1017F0001DE01CE01BE01AE019E018E017E016E01D
:1018000015E014E013E012E011E010E00FE00EE04C
:101810000DE00CE00BE00AE009E008E007E006E07C
:1018200005E004E003E002E001E000E000BF00BFEB
:1018300010BD014600BF0120487000200870022042
:101840007047000010B50246137803F00300401CF7
:10185000054C2075C3F380040348447500200870CC
:101860004FF0011010BD0000781200202DE9F04F5C
:1018700087B005460C460695002005900026A24636
:10188000A41CE0490870834604906D1C15F8019B68
:1018900050E115F8017B07F0020000287ED0BBF173
:1018A000000F3DD0D848B0F80A8007F01100012899
:1018B00011D100BF01A9384606F028F80646022ECD
:1018C0001CD1B8F10000A8F1010817D0CD4800786C
:1018D0000028EFD012E000BF01A90E2006F016F894
:1018E0000646022E08D1B8F10000A8F1010803D085
:1018F000C44800780028EFD04FF0000B012E00D034
:101900001CE1019804F8010B0198000A04F8010B8E
:101910000198000C04F8010B0198000E04F8010B6B
:1019200007F0100000285ED02878697840EA01208E
:10193000A97840EA0140E97840EA016003902D1D52
:10194000B1488089029007F00100B0B1AE48B0F80C
:101950000A8000BF0021384605F0D8FF0646022E57
:1019600008D1B8F10000A8F1010803D0A54800781B
:101970000028EFD0012E00D0E0E000BFA248B0F870
:101980000A8000BF01A9384605F0C0FF0646022EB6
:101990000AD1B8F10000A8F1010800E069E003D025
:1019A000984800780028EDD0012E00D00EE096482F
:1019B0000069019908400399884207D00298411EA6
:1019C000029118B18F4800780028D7D000BF8E4808
:1019D0000069019908400399884201D046F0100639
:1019E000012E43D0AAE08848B0F80A8007F0010031
:1019F000C8B1BBF1000F39D100BF0021384605F056
:101A000085FF0646022E08D1B8F10000A8F10108B2
:101A100003D07C4800780028EFD0012E00D08DE064
:101A20004FF0010B22E000BF01A9384605F06EFF20
:101A30000646022E08D1B8F10000A8F1010803D033
:101A4000704800780028EFD0012E00D076E0019891
:101A500004F8010B0198000A04F8010B0198000C2E
:101A600004F8010B0198000E04F8010B002004900B
:101A700057E0BBF1000F27D06348B0F80A8000BFE1
:101A800001A90E2005F042FF0646022E08D1B8F14A
:101A90000000A8F1010803D05A4800780028EFD0D0
:101AA000012E00D04AE0019804F8010B0198000AC9
:101AB00004F8010B0198000C04F8010B0198000ECA
:101AC00004F8010B4FF0000B2878697840EA0120F8
:101AD000A97840EA0140E97840EA016001902D1DB3
:101AE00007F0200020B1484801990161012618E063
:101AF0004548B0F80A8000BF01A9384605F006FF46
:101B00000646022E08D1B8F10000A8F1010803D062
:101B10003C4800780028EFD0012E00D00EE00120D4
:101B200004900598401C05903648007800B105E007
:101B3000A9F10109B9F1000F7FF4ABAE00BF0CE0D1
:101B400015F8017B07F0020020B107F0100010B17A
:101B50002D1D00E02D1DA9F10109B9F1000FEFD1F4
:101B6000012E3FD1BBF1000F26D02748B0F80A80E4
:101B700000BF01A90E2005F0C9FE0646022E08D1BD
:101B8000B8F10000A8F1010803D01E480078002831
:101B9000EFD0012E00D026E0019804F8010B019847
:101BA000000A04F8010B0198000C04F8010B0198DD
:101BB000000E04F8010B15E0049898B11248B0F833
:101BC0000A8000BF00210E2005F0A0FE0646022E6E
:101BD00008D1B8F10000A8F1010803D00948007845
:101BE0000028EFD000BF05988AF800008AF801604D
:101BF000A4EB0A010698281A41EA004007B0BDE8A4
:101C0000F08F000020040020781200202DE9F84F0A
:101C100004460D464FF0000B0026A846ED1C0020A0
:101C200056490870641C2078617840EA012AA41C97
:101C3000BAF1000F00D195E014F8017B07F0020023
:101C400000284FD007F00100B0B14D48B0F80A901D
:101C500000BF0021384605F059FE0646022E08D185
:101C6000B9F10000A9F1010903D044480078002827
:101C7000EFD0012E00D075E02EE0BAF1000F03D1B5
:101C800007F0010000B10E273D48B0F80A9000BFF0
:101C90006946384605F03AFE0646022E08D1B9F1EB
:101CA0000000A9F1010903D0344800780028EFD0E2
:101CB000012E00D056E0009805F8010B0098000AAC
:101CC00005F8010B0098000C05F8010B0098000EB8
:101CD00005F8010B0BF1010BBAF10000AAF1010AA2
:101CE000CBD13EE024E02078617840EA0120A17861
:101CF00040EA0140E17840EA01600090241D20485C
:101D0000B0F80A9000BF6946384605F0FFFD064668
:101D1000022E08D1B9F10000A9F1010903D017483A
:101D200000780028EFD0012E00D01BE00BF1010B52
:101D3000BAF10000AAF1010AD5D11148B0F80A9011
:101D400000BF00210E2005F0E1FD0646022E08D15D
:101D5000B9F10000A9F1010903D008480078002872
:101D6000EFD000BF88F800B04FEA1B2088F80100D0
:101D700088F80260A5EB0800BDE8F88F2004002079
:101D80007812002038B504460D466078A17840EA04
:101D90000120E17840EA0140217940EA01600090A9
:101DA0006946002005F0B2FD00202870012038BDF2
:101DB00030B502460C461078557840EA05209578F3
:101DC00040EA0540D57840EA05631BB9FF20207042
:101DD000124830BD12480068B3EB900F04D30120C5
:101DE000104D6870686014E000200E4D6870581E39
:101DF0000B4D2D6800EB5500B0FBF3F1022905D91E
:101E0000891E881C0325B0FBF5F100E0012105487F
:101E10004160002020700148DBE700000100040061
:101E200014020020781200202DE9F047064688466B
:101E300034787578B078F17840EA0120317940EA59
:101E40000140717940EA016705F00100D8B104F062
:101E5000010058B100BF6D48406840F000706B4908
:101E6000486008156A49086000BF0CE000BF674879
:101E7000406840F000706549486008156449091DD4
:101E8000086000BF00BF05F0020028B304F00200A4
:101E900080B100BF5D48406840F000705B49486019
:101EA0000846406840F0007048604815584908608E
:101EB00000BF11E000BF5548406840F00070534932
:101EC00048600846406840F0007048604815504936
:101ED000091D086000BF00BF05F0040070B1C4F325
:101EE000870000F0010119B140214A4A116003E066
:101EF0004021484A121D116000BF00BF05F02000BC
:101F000018B1C4F3471000BF00BF05F0800018B13E
:101F1000C4F3C7100DF0E0FA002F56D03E488742B8
:101F200000D9074600BF00204FF0E02188613B4800
:101F300000683B49B0FBF1F078434FF0E021486185
:101F40000520086100BF00BF05F0010020B104F0CA
:101F5000C1FC604000B128E005F0020028B104F0A7
:101F6000C9FD80EA540000B11FE005F0040028B16B
:101F700004F0E8FD80EA940000B116E005F02000CE
:101F800028B100BF002080EA541000B10DE005F038
:101F9000800048B100BF1E480838006800F001000A
:101FA00080EAD41000B100E007E000BF4FF0E0206D
:101FB0000069C0F300400028C6D000BF00BF002069
:101FC0004FF0E021086100BF00BF04F083FC8146B0
:101FD00004F090FD49EA400904F0B4FD49EA8001AB
:101FE0000C4808380068C0F3C01041EAC000002166
:101FF00040EA411106480838006800F0010041EA53
:10200000C01488F800400748BDE8F0870000014090
:1020100010080140100C0140C0C62D001402002021
:1020200040420F000100060070B504460E4614F849
:10203000015B0DB94FF480752146284606F0F2F990
:1020400000203070E81DC508681C0004401C70BDED
:1020500010B500200F49087048700F48006840080C
:102060000E49B0FBF1F0801E0A494860002008725A
:1020700064210848418100218181016101200549D5
:10208000087500210348417500200249887504F055
:10209000BFFD10BD78120020140200208096980029
:1020A00070B505460E460E480078012802D0022879
:1020B0000CD105E031462846FFF7D8FB04460BE07B
:1020C00031462846FEF7ECFF044605E03146284637
:1020D000FEF7E0FE044600BF00BF204670BD0000D2
:1020E0007812002070B505460E4616480078012883
:1020F00002D002280CD105E031462846FFF786FDC4
:1021000004460BE031462846FFF7A2F9044605E0F5
:10211000002030707070B070032400BF00BFE878FA
:1021200000F0020010B144F4802408E06878A97837
:1021300040EA0120042101EB800044EA00442046EB
:1021400070BD00007812002002461078084B18720B
:102150005078937840EA032305484381D078137977
:1021600040EA032302488381002008700148704739
:10217000781200200100050070B506460D460D4896
:102180000078012802D002280CD105E0294630460B
:10219000FFF7F8FD044609E029463046FFF728FA24
:1021A000044603E0FF202870012400BF00BF44F470
:1021B000A02070BD781200207047000010B50548BF
:1021C000006800F00F04034844602046FFF7F4FF66
:1021D00010BD0000000002407047000010B5054827
:1021E0000068C0F303142001024948602046FFF74D
:1021F000F3FF10BD000002407047000010B5054815
:102200000068C0F303242002024948602046FFF71B
:10221000F3FF10BD000002407047000010B50548F4
:102220000068C0F303342003024948602046FFF7EA
:10223000F3FF10BD000002407047000010B50548D4
:102240000068C0F303442004024948602046FFF7B9
:10225000F3FF10BD0000024010B50446014808F02D
:10226000ABFA10BDE0FD000810B505480068C0F3EA
:1022700003542005024948602046FFF7EDFF10BDDA
:102280000000024010B50446014808F035FC10BDBE
:10229000E0FD000810B505480068C0F3036420069F
:1022A000024948602046FFF7EDFF10BD00000240E4
:1022B0007047000010B50548006800F00F0403489F
:1022C000001D04602046FFF7F3FF10BD000402402C
:1022D0007047000010B506480068C0F303142001E1
:1022E0000349091D08602046FFF7F2FF10BD0000FA
:1022F000000402407047000010B506480068C0F3B3
:10230000032420020349091D08602046FFF7F2FF5D
:1023100010BD00000004024010B50C480068C0F376
:10232000033434B120030949091D0860204600F038
:102330000FF806480068C0F3034434B12004034991
:10234000091D0860204600F004F810BD000402409A
:102350007047704770B505460C46012D02D0022D1E
:1023600071D171E06A48406940F0010068494861F4
:10237000082C60D2DFE804F05F04101C29364350BB
:102380000020644988600F2048600B2003F094FF10
:102390000B2003F0A9FF4EE000205E49C861F02049
:1023A00048600C2003F088FF0C2003F09DFF42E002
:1023B0000020584908634FF4706048600D2003F016
:1023C0007BFF0D2003F090FF35E000205149486469
:1023D0004FF4704048600E2003F06EFF0E2003F0B3
:1023E00083FF28E000204B4988654FF47020486047
:1023F0000F2003F061FF0F2003F076FF1BE00020A9
:102400004449C8664FF470004860102003F054FF40
:10241000102003F069FF0EE000203E498031086083
:102420004FF070603B494860112003F045FF1120D8
:1024300003F05AFF00BF00BF0120A04036490978D1
:1024400008433549087061E03148406940F00200B6
:102450002F494861062C50D2DFE804F04F03101FCB
:102460002F3F00202D4908600F20091F08603820E9
:1024700003F022FF382003F037FF3EE00020274919
:1024800014310860F0202549091F0860392003F045
:1024900013FF392003F028FF2FE000201F492831C7
:1024A00008604FF470601D49091F08603A2003F06E
:1024B00003FF3A2003F018FF1FE0002017493C31CA
:1024C00008604FF470401549091F08603B2003F075
:1024D000F3FE3B2003F008FF0FE000200F495031CE
:1024E00008604FF470200D49091F08603B2003F07D
:1024F000E3FE3B2003F0F8FE00BF00BF0120A04038
:102500000749097808430649087000BF00BF70BD3D
:102510000010024000000240730400200804024042
:102520007404002070B505460C46012D02D0022D22
:102530004ED14EE04F48007800B970BD082C37D21C
:10254000DFE804F036040B121920272E0B2003F0CD
:10255000BFFE0020484988602AE00C2003F0B8FE46
:1025600000204549C86123E00D2003F0B1FE0020A2
:10257000414908631CE00E2003F0AAFE00203E49FA
:10258000486415E00F2003F0A3FE00203A49886557
:102590000EE0102003F09CFE00203749C86607E0DB
:1025A000112003F095FE002033498031086000BF00
:1025B00000BF0120A0402F49097881432D480170B8
:1025C000007828B92D48406920F001002B49486166
:1025D0004CE02B48007800B9AFE7062C35D2DFE895
:1025E00004F034030A121A27382003F071FE002089
:1025F0002449086029E0392003F06AFE00202149BF
:102600001431086021E03A2003F062FE00201D49E9
:102610002831086019E01A48007800F0200010B94D
:102620003B2003F055FE002016493C3108600CE0C9
:102630001348007800F0100010B93B2003F048FE6A
:10264000002010495031086000BF00BF0120A040A9
:102650000B49097881430A480170007828B9074876
:10266000406920F002000549486100BF00BF00BF7B
:1026700063E70000730400200000024000100240E5
:10268000740400200804024000F0805111B1034995
:10269000086001E0024948607047000004040240FD
:1026A0000000024021B1026842F00102026004E031
:1026B00002684FF6FE731A400260704701684FF6D9
:1026C000FE72114001600021016041608160C160C3
:1026D0004B49884208D14A490839496841F00F01FD
:1026E000474A083A51608AE045491431884208D186
:1026F00043490839496841F0F001414A083A5160BC
:102700007DE03F492831884208D13D490839496870
:1027100041F470613A4A083A516070E038493C31FE
:10272000884208D136490839496841F47041344A31
:10273000083A516063E032495031884208D130494B
:102740000839496841F470212D4A083A516056E031
:102750002B496431884208D129490839496841F434
:102760007001274A083A516049E02549783188428A
:1027700008D123490839496841F07061204A083A74
:1027800051603CE01F49884206D1011F096841F0B1
:102790000F01021F116032E01A491431884208D13A
:1027A0001849091F096841F0F001164A121F11600B
:1027B00025E014492831884208D11249091F0968C7
:1027C00041F470610F4A121F116018E00D493C314D
:1027D000884208D10B49091F096841F47041094A30
:1027E000121F11600BE007495031884207D105499B
:1027F000091F096841F47021024A121F11607047D5
:1028000008000240080402400146486880B2704750
:102810001AB103680B43036002E003688B43036053
:10282000704710B50022026847F6F0739A430C6AAD
:102830008B6823430C6923434C6923438C692343EE
:10284000CC6923434C6A23438C6A23431A430260B6
:10285000CB6843600B6883604B68C36010BD416008
:10286000704700002DE9F0472848006800F1100586
:102870002E8826480068077AD6B9042F18D1244834
:10288000007801280FD100212248006880B2801C06
:10289000214A42F8101030202049088000BF002053
:1028A0001B49087003E0072710201C49088027E017
:1028B000AC88A64201D8042000E002200746B442BA
:1028C00000D93446A0B2A96888478046002001F0AC
:1028D0008DFE8146A2B24946404609F0BFFEA1B234
:1028E000002006F031F82888001B288068882044E2
:1028F000688030200949088000020949088000BF2B
:10290000024909680F72BDE8F08700000C0400203E
:1029100006040020505C0040006000401E040020BF
:102920001C0400202DE9F0412848006800F1100443
:102930002688A068C0B1BEB1A588B54200D9354689
:10294000A8B2A168884707462088401B208060887D
:1029500028446080002001F027FE8046AAB241464C
:10296000384604F00DF900BF208850B14FF44050B4
:10297000174908800021084605F0E6FF3020154978
:1029800008802088A188884204DB03200F49096859
:10299000087218E02088002804DD05200B4909682A
:1029A000087210E0208870B906200849096808728A
:1029B00000210948006880B2801C084A42F81010C3
:1029C000302004490880BDE8F08100000C0400209C
:1029D0001C0400201E040020505C004000600040E9
:1029E0002DE9F84F9B48006845780027BA46062D28
:1029F0001BD198480068007800F07F00002813D1B0
:102A0000944909688878012803D193490968CF69F6
:102A10000AE0022803D1904909680F6A04E00328FC
:102A200002D18D4909684F6A94E0002D64D189482C
:102A30000068408800285FD186480068C088022866
:102A40005AD1844800680079002855D1814800682F
:102A5000007800F07F0028B97E480068808808B9B7
:102A60007E4F77E07B480068007800F07F00012807
:102A700010D1784909684879774909688A6900213D
:102A80009047002866D173480068807A002861D09A
:102A9000724F5FE06F480068007800F07F00022806
:102AA00058D16C480068407900F00F06694800680A
:102AB000407900F0700967480068407900F08000B4
:102AC00038B1674901EB8600D0F8000C00F03008FF
:102AD00006E0634901EB8600D0F8000C00F4405892
:102AE00060480078B04235D9B9F1000F32D1B8F161
:102AF000000F2FD0594F2DE0082D07D15548006801
:102B0000007800F07F0028BB574F23E00A2D21D129
:102B100050480068007800F07F0001281AD14D4825
:102B20000068807AB0B14B480068408890B9494845
:102B30000068007970B947480068C088012809D149
:102B4000444909684879444909688A6900219047DD
:102B500000B9464F57B13F480068A0F812A03D4861
:102B6000006887610020B84700240FE0394A1268E6
:102B70005078394A1268116988470446032C05D1F8
:102B80000920344909680872BDE8F88F31480068A7
:102B9000008A4FF6FF71884204D109202D49096847
:102BA0000872F1E7022C03D02A480068008A20B995
:102BB0000820284909680872E6E726480068007876
:102BC00000F08000E0B323480068C08800902148EE
:102BD0000068008A0099884204D91E490098096853
:102BE000088223E01B480068008A1A490968C988DE
:102BF00088421BDA17480068008A1749096891F86B
:102C00002C10884203DA0020194908700EE01148A0
:102C10000068008A1049096891F82C1090FBF1F2C5
:102C200001FB120010B90120114908700A48006820
:102C300090F82C10074800688182FFF713FE07E028
:102C4000FFE7032003490968087200030949088067
:102C500000BF99E70C04002010040020198E000822
:102C6000005000406C0300209D8D0008ED8D000891
:102C7000060400201C040020094909684FF47A72F8
:102C8000B1FBF2F1891C0322B1FBF2F1484301468A
:102C90000A4600BF00BF531E1A1EFCD100BF70477A
:102CA0001402002001E00CF045FBFCE710B5002405
:102CB0000EE00C490A5D222101EBC401C8B20123D8
:102CC000194603F00FFD0F200AF06EFA601CC4B223
:102CD000072CEEDB4FF47A700AF066FA03F0EEFB95
:102CE00010BD0000F40100200EB5FAA00AF0F9FFB3
:102CF000FCA1FD480AF03CFE88B9FC49FA480AF0FC
:102D000068FF60B9F949F8480AF063FF01200346FB
:102D1000F64A0932014600902D2003F01DFD0020E7
:102D20000123F3A2FF2100902D2003F015FD0020C8
:102D30000123F2A2014600902D2003F00DFD012099
:102D40000346F1A2014600906E2003F005FD01202C
:102D50000346EEA2022100905C2003F0FDFC00205F
:102D6000EC49086002E105F0FDFC01287DD1E9484D
:102D70000068401CE749086008460068042801D143
:102D800000200860E348006830B101281ED0022806
:102D900036D0032868D14DE001200346D34A0932DA
:102DA000014600902D2003F0D7FC01200346D6A257
:102DB000014600906E2003F0CFFC01200346D3A211
:102DC000022100905C2003F0C7FC4DE001200023AD
:102DD000C64A0932014600902D2003F0BDFC0120B7
:102DE0000346C9A2014600906E2003F0B5FC012005
:102DF0000346C6A2022100905C2003F0ADFC33E044
:102E000001200346B94A0932014600902D2003F003
:102E1000A3FC01200023BCA2014600906E2003F019
:102E20009BFC01200346B9A2022100905C2003F024
:102E300093FC19E001200346AC4A09320146009098
:102E40002D2003F089FC01200346AFA2014600902B
:102E50006E2003F081FC01200023ACA2022100902F
:102E60005C2003F079FC00BF00BF05F07BFC02286A
:102E70007CD1A8480068012804D0022848D0032843
:102E800045D1E7E1994998480AF0A3FE012003469D
:102E9000A1A2014600902D2003F05EFC012000233A
:102EA000924A0932014600902D2003F055FC012082
:102EB000034695A2014600906E2003F04DFC8B481E
:102EC000407A20BB87A188480AF052FD874986488E
:102ED0000AF07FFE854984480AF07BFE0120034604
:102EE0008DA2014600902D2003F036FC0120002326
:102EF0007E4A0932014600902D2003F02DFC01206E
:102F0000034681A2014600906E2003F025FCFCE3FD
:102F100000208049086003F0D1FA824820231A4635
:102F200000210090084603F0E9FA002001237EA268
:102F3000FF2100902D2003F00FFC002001236FA241
:102F4000014600902D2003F007FC0120034679A2E2
:102F5000022100902D2003F0FFFB0120034676A202
:102F6000022100905C2003F0F7FB70E1F3E305F031
:102F7000F9FB012849D167480068401C6549086091
:102F800008460068032801D10020086061480068F5
:102F900020B1012813D0022833D121E001200346BB
:102FA00064A2022100902D2003F0D6FB01200346ED
:102FB00061A2022100905C2003F0CEFB21E0012001
:102FC00000235CA2022100902D2003F0C5FB01200C
:102FD000034659A2022100905C2003F0BDFB10E0E3
:102FE0000120034653A2022100902D2003F0B4FBE0
:102FF0000120002350A2022100905C2003F0ACFBD2
:1030000000BF00BF64200AF0CFF805F0ABFB022838
:103010005FD140480068012802D0022847D147E02C
:1030200003F04CFA464821231A4600210090084636
:1030300003F064FA2BA12C480AF09AFC88B92B49BA
:1030400029480AF0C6FD60B9284927480AF0C1FDA1
:1030500001200346254A0932014600902D2003F045
:103060007BFB0020012322A2FF2100902D2003F0F2
:1030700073FB0020012321A2014600902D2003F0C4
:103080006BFB0120034620A2014600906E2003F056
:1030900063FB012003461DA2022100905C2003F087
:1030A0005BFB00201B490860012026490870C6E030
:1030B00000201849086001202349087003F0FEF938
:1030C0000120034621A202210090622003F044FB6C
:1030D0007FE0B5E0303A2F77726974652E62696ED1
:1030E00000000000303A0000580700204007002090
:1030F00053454C4543542048455800002D2D2D2D57
:103100002D2D2D2D2D2D00003E3E0000464C41530F
:1031100048000000EC01002020202020202020205A
:10312000202000004F0100204445425547204D4FCC
:10313000444500003C3C0000454E54455200000010
:10314000AA000020F0010020F10100204241434B81
:103150000000000005F006FB012831D1F7480068A7
:10316000401CF649086008460068012810D1034653
:10317000F3A202210090622003F0EEFA0120002366
:10318000AFF2380202210090622003F0E5FA10E06D
:1031900001200346EAA202210090622003F0DCFA3B
:1031A00001200346AFF25C0202210090622003F08E
:1031B000D3FAE2480068022802D10020DF49086003
:1031C00005F0D0FA022804D1DC480068012800D1BB
:1031D00000E0BFE700BF0020D8490860DA49087066
:1031E00003F06CF9D94820231A46002100900846C4
:1031F00003F084F900200123AFF2D402FF210090F4
:103200002D2003F0A9FA00200123AFF2101201468D
:1032100000902D2003F0A0FA01200346AFF2EC024B
:10322000022100902D2003F097FA01200346AFF20F
:10323000F802022100905C2003F08EFA00BF00BF6C
:10324000C348007818B10020C149087000E08EE63C
:1032500000BFEFE2BFA1C048FDF76AF8002870D0B8
:1032600003F02CF9BD4821231A460021009008469E
:1032700003F044F90122B849B9480AF0C3FA00281A
:103280007ED10123B7A2FF2100902D2003F064FA24
:10329000B14801F04DFB012873D000200123AFF2AB
:1032A0008812022100902D2003F056FA00200123FD
:1032B000AFA2022100902D2003F04EFA00209F497A
:1032C00008603FE005F04EFA012831D19B480068C4
:1032D000401C9A49086008460068012810D103463E
:1032E00097A202210090622003F036FA0120002309
:1032F000AFF2A81202210090622003F02DFA10E034
:10330000012003468EA202210090622003F024FADD
:1033100001200346AFF2CC1202210090622003F09C
:103320001BFA86480068022802D100208349086001
:1033300005F018FA022805D180480068012801D15B
:1033400001E077E1BEE700BF03F0B8F8834821232E
:103350001A4600210090084603F0D0F8AFF27C2115
:1033600084480AF005FBA8B97B49093981480AF06D
:1033700030FC78B9784909397E480AF02AFC01E026
:1033800057E22FE001200346734A014600902D20AA
:1033900003F0E2F900200123AFF2AC22FF210090FC
:1033A0002D2003F0D9F900200123AFF2B02201460D
:1033B00000902D2003F0D0F901200346AFF2B8228F
:1033C000014600906E2003F0C7F901200346AFF2DA
:1033D000C422022100905C2003F0BEF9002057496E
:1033E000086026E2642009F0DFFE00200123AFF22E
:1033F000D822194600902D2003F0AEF900200123B9
:10340000AFF2EC22022100902D2003F0A5F93FE05D
:1034100059A00068029000200123AFF2043219463F
:1034200000902D2003F098F90120034653A20221B9
:1034300000902D2003F090F90020524908601AE016
:1034400002A850490968405C01904E48007800EBA2
:103450004000452101EB4000C0B201230090022151
:10346000019A03F03FF9C82009F09EFE4548006824
:10347000401C44490860434800680328E0D3012009
:10348000034641A2022100902D2003F065F900BF00
:103490003FA000F01BFC0028BAD0AFF2C8300AF001
:1034A00020FC01200346AFF25C3202210090622032
:1034B00003F052F90020214908606FE005F052F94D
:1034C000012831D11D480068401C1C49086008468D
:1034D0000068012810D1034619A202210090622041
:1034E00003F03AF901200023AFF2A032022100904C
:1034F000622003F031F910E00120034610A20221FE
:103500000090622003F028F901200346AFF2C43294
:1035100002210090622003F01FF908480068022889
:1035200002D100200549086005F01CF9022835D1B8
:1035300002480068012831D131E00000EC01002090
:103540002020202000000000F10100204F01002079
:10355000F00100204845580049070020AA0000203B
:103560001C0500204845582020464C415348000087
:1035700045525200580700202E2E2E005741495424
:1035800000000000E8010020202020202020200052
:1035900077726974652E62696E0000008EE700BF65
:1035A00002F08CFFA54821231A460021009008460E
:1035B00002F0A4FFAFF2D441A1480AF0D9F988B9CA
:1035C000A0499F480AF005FB60B99E499C480AF053
:1035D00000FB012003469B4A0932014600902D2042
:1035E00003F0BAF800200123AFF2FC42FF21009063
:1035F0002D2003F0B1F800200123AFF20052014664
:1036000000902D2003F0A8F801200346AFF20852E5
:10361000014600906E2003F09FF801200346AFF2B0
:103620001452022100905C2003F096F80020864995
:103630000860FEE002F042FF804821231A46002184
:103640000090084602F05AFF01227E4909317F4866
:103650000AF0D8F80028ECD101237DA2FF210090C8
:103660002D2003F079F842E0AFF2F40000680290F8
:1036700000200123AFF26052194600902D2003F084
:103680006BF801200346AFF20C12022100902D20AE
:1036900003F062F80020714908601AE002A86F493F
:1036A0000968405C01906D48007800EB40004521BE
:1036B00001EB4000C0B2012300900221019A03F007
:1036C00011F8C82009F070FD64480068401C634987
:1036D0000860624800680328E0D301200346AFF287
:1036E0005812022100902D2003F036F800BF5548F3
:1036F000093000F0EBFA0028B6D001200346AFF203
:10370000B45202210090622000E093E003F024F81C
:1037100000204D49086041E005F024F8012834D12B
:1037200049480068401C484908600846006801286C
:1037300012D10346AFF2F81202210090622003F08A
:103740000BF801200023AFF2FC520221009062200E
:1037500003F002F812E06EE001200346AFF22022EF
:1037600002210090622002F0F7FF01200346AFF231
:10377000246202210090622002F0EEFF32480068CD
:10378000022802D100203049086004F0EBFF022833
:1037900004D12D480068012800D100E0BCE700BF3B
:1037A00002F08CFE254821231A460021009008468D
:1037B00002F0A4FEAFF2D46121480AF0D9F888B92A
:1037C00020491F480AF005FA60B91E491C480AF052
:1037D00000FA012003461B4A0932014600902D20C1
:1037E00002F0BAFF00200123AFF2FC62FF2100903B
:1037F0002D2002F0B1FF00200123AFF2007201463C
:1038000000902D2002F0A8FF01200346AFF20872BD
:10381000014600906E2002F09FFF01200346AFF2A8
:103820001472022100905C2002F096FF00200649ED
:10383000086000BF00BFFFF796BA0000AA00002092
:103840005807002040070020EC0100201C05002044
:1038500042494E2020464C4153480000E8010020D8
:103860001CB56248006880B1614822231A460021D5
:103870000090084602F042FE002001235DA2194696
:103880000090262002F068FFAFE05D4821231A4631
:1038900000210090084602F031FE012259A15C4847
:1038A00009F0B0FF002871D101235AA2FF21009036
:1038B0002D2002F051FF3BE059A00068019000204C
:1038C000012358A2194600902D2002F045FF012047
:1038D000034657A2022100902D2002F03DFF002058
:1038E0005549086017E001A9534B1B68CA5C52494F
:1038F000097801EB4101452303EB4101C8B20123E3
:10390000022102F0EFFEC82009F04EFC4A48006890
:10391000401C49490860484800680328E3D3012057
:10392000034646A2022100902D2002F015FF00BFA1
:1039300034A000F0CBF90028BED00120034641A2FC
:1039400002210090622002F007FF00203F4908603A
:103950003DE004F007FF012830D13C480068401CDE
:103960003A49086008460068012810D1034638A289
:1039700002210090622002F0EFFE0120002331A21C
:1039800002210090622002F0E7FE10E02BE001200F
:1039900003462FA202210090622002F0DDFE0120EA
:1039A000034628A202210090622002F0D5FE27489B
:1039B0000068022802D100202449086004F0D2FEE9
:1039C000022804D121480068012800D100E0C0E7A6
:1039D00000BF02F073FD0A4821231A46002100901F
:1039E000084602F08BFDFFF77FF91CBDFC030020A9
:1039F0000000002055534220436F6E6E65637400D3
:103A0000AA0000204155544F2E62696E000000004C
:103A10001C0500204155544F20464C41534800009E
:103A20002E2E2E00202020202020202020200000CC
:103A30005741495400000000E801002020202020C8
:103A4000202020004241434B00000000EC010020F8
:103A5000202020200000000010B502F08BFB10BDDC
:103A600010B502F0C1FB10BD00200149086070478D
:103A70001803002010B5002400BF03E00020104907
:103A80000855641C0F4800788442F7DB062000F0DC
:103A90009BFD0D4908600846006882B24FF4E8714A
:103AA000074803F06DF8062004F024FF064800687C
:103AB000044908700846017801480BF04BFB10BD23
:103AC000E01100201C0300201403002030B500F09A
:103AD0000F010D4C04EB8103D3F8002C00F08003A0
:103AE00043B148F6CF731340254605EB8104C4F873
:103AF000003C07E04CF68F731340034D05EB810447
:103B0000C4F8003C30BD00000050004070B500F02B
:103B10000F02104D05EB8204D4F8003C00F0800445
:103B20005CB101F030045C4048F6BF752C40094E92
:103B300006EB8205C5F8004C0AE001F440545C40F5
:103B40004BF68F752C40034E06EB8205C5F8004CF2
:103B500070BD00000050004001490860704700003F
:103B600014040140002123498279002A3AD00A46F0
:103B7000126803689A430B461A600A1D12680368AC
:103B80009A430B1D1A60027911440A6803681A43AC
:103B90000A60184A0832126803689A43154B0833C2
:103BA0001A601A1D126803689A43124B0C331A608C
:103BB0004279102A0ED11A1F126803681A430D4B5E
:103BC00008331A601A1D126803681A43094B0C3334
:103BD0001A600DE00749427911440A6803681A43E4
:103BE0000A6005E0027911440A6803689A430A6092
:103BF000704700000004014030B5044604254FF42E
:103C0000302000F071FA0546042D17D10C480069E8
:103C100040F002000A49086108464461006940F02A
:103C2000400008614FF4302000F05EFA0546044879
:103C3000006941F6FD71084001490861284630BD20
:103C40000020024004200B49C96801F0010109B1BC
:103C500001200EE00749C96801F0040109B1022002
:103C600007E00449C96801F0100109B1032000E030
:103C700004207047002002400348006940F08000A3
:103C800001490861704700000020024070B50446F9
:103C90000D460426F00200F027FA0646042E11D144
:103CA0000948006940F00100074908612580F002D9
:103CB00000F01AFA06460448006941F6FE71084011
:103CC00001490861304670BD002002402DE9FC5FCB
:103CD000834601225946DA4809F094FDD949087013
:103CE0000846007800287DD10120D74908700020BF
:103CF000D64908600AF0F8FB002874D00BF0EEF803
:103D000028B90BF0D7F820B10020BDE8FC9F0020B7
:103D1000FBE70BF005F90AF0E7FB00287DD04FF038
:103D200000600BF06BF8002878D10BF053F80028F6
:103D300075D152E1C64B4FF48062C649C04809F0C4
:103D400061FEC3480088B0F5806F02DA0020BE49EA
:103D50000870BE49096801F100604FF48062BD49F6
:103D60000BF06EF800287DD1B549C8680BF09DFDB9
:103D700004460D46B54800680BF097FD06462246FE
:103D80002B460BF00DFC80460022B34B0BF0A0FD40
:103D9000CDE900010BF05CFD8246BAF10A0F1AD39F
:103DA000BAF1140F17D2AD48006808B9012000E03D
:103DB0000020AA49086000200123A9A2194600900A
:103DC0002D2002F0C9FC00200123A6A202210090B0
:103DD0002D2002F0C1FCBAF1140F1DD3BAF11E0F51
:103DE0001AD201E027E124E19C48006808B90120CB
:103DF00000E0002099490860002001239AA219469A
:103E000000902D2002F0A8FC0020012397A202219F
:103E100000902D2002F0A0FC02E008E104E101E1A5
:103E2000BAF11E0F1AD3BAF1280F17D28B480068C7
:103E300008B9012000E00020884908600020012323
:103E40008BA2194600902D2002F086FC0020012351
:103E500088A2022100902D2002F07EFCBAF1280FEA
:103E60001CD300E0B1E0BAF1320F17D27B480068F2
:103E700008B9012000E000207849086000200123F3
:103E80007DA2194600902D2002F066FC002001233F
:103E90007BA2022100902D2002F05EFCBAF1320FCD
:103EA0001AD3BAF13C0F17D26C48006808B9012048
:103EB00000E00020694908600020012371A2194632
:103EC00000902D2002F048FC002001236FA2022167
:103ED00000902D2002F040FCBAF13C0F1AD3BAF149
:103EE000460F17D25D48006808B9012000E00020A5
:103EF0005A4908600020012365A2194600902D2030
:103F000002F02AFC0020012363A2022100902D2050
:103F100002F022FCBAF1460F1AD3BAF1500F17D2B1
:103F20004E48006808B9012000E000204B490860B5
:103F30000020012359A2194600902D2002F00CFC0C
:103F40000020012357A2022100902D2002F004FC42
:103F5000BAF1500F1AD3BAF15A0F17D23F4800687E
:103F600008B9012000E000203C490860002001233E
:103F70004AA2194600902D2002F0EEFB00200123FA
:103F800049A2022100902D2002F0E6FBBAF15A0F5F
:103F90001AD3BAF1640F17D23048006808B901206B
:103FA00000E000202D490860002001233FA21946AF
:103FB00000902D2002F0D0FB002001233EA2022120
:103FC00000902D2002F0C8FB01E000209DE61F4874
:103FD000006800F580601D4908601B4800780028D3
:103FE0007FF4A8AE0AF080FAD0B101201B49086026
:103FF00000200AF0BFFB642009F0D6F8002001235E
:104000002EA2194600902D2002F0A6FB00200123CD
:104010002DA2022100902D2002F09EFB012074E6CB
:10402000002072E6002070E60AF03CFF05E0002068
:104030006BE6002069E6002067E600BF65E6000049
:104040001C050020D4010020E0010020E401002034
:10405000F2010020A4090020000059409081214273
:104060003D000000313025003D3D0000323025008C
:104070003D3D3D00333025003D3D3D3D000000000D
:10408000343025003D3D3D3D3D00000035302500EC
:104090003D3D3D3D3D3D0000363025003D3D3D3D33
:1040A0003D3D3D0037302500383025003D3D3D3D4C
:1040B0003D3D3D3D3D000000393025003D3D3D3D4D
:1040C0003D3D3D3D3D3D0000444F4E45000000005C
:1040D0000248034948600348486070472301674528
:1040E00000200240AB89EFCD00B502460423FFF764
:1040F000A9FD034603E0FFF7A5FD0346521E012B71
:1041000001D1002AF7D102B90523184600BD0000ED
:1041100018B5002844D0C0F34211C0F30322214B4C
:104120009B6903F001032BB91E4B9B6943F001030C
:104130001C4CA36100F48053A3B11B4BDB690093BB
:1041400000F01F0301FA03F3009C9C43009400F06D
:104150001F0302FA03F3009C23430093124C009BBD
:10416000E3611DE0104B5B68009300F01F0301FA50
:1041700003F3009C9C43009400F01F0302FA03F336
:10418000009C2343009307210022009B23EA016344
:104190000093009B43EA02630093034C009B63601F
:1041A00018BD0000001002400000014001461D48FB
:1041B000814204D11C488069C0F3800070471B48CD
:1041C000814204D118488069C0F3C000F6E718485E
:1041D000814204D114488069C0F30010EEE715480D
:1041E000814204D110488069C0F34010E6E71248CC
:1041F000814204D10C488069C0F38010DEE70F488B
:10420000814204D108488069C0F3C010D6E70C4849
:10421000814204D104488069C0F30020CEE7002029
:10422000CCE700000008014000100240000C0140F3
:10423000001001400014014000180140001C014022
:10424000002001402DE9F041024600250026002013
:1042500000230024002791F803C00CF00F0591F80B
:1042600003C00CF0100CBCF1000F03D091F802C099
:104270004CEA050591F800C0BCF1000F31D014687C
:1042800000202BE04FF0010C0CFA00F3B1F800C055
:104290000CEA03069E4220D183004FF00F0C0CFA6B
:1042A00003F7BC4305FA03FC4CEA040491F803C08D
:1042B000BCF1280F06D14FF0010C0CFA00FCC2F83B
:1042C00014C00AE091F803C0BCF1480F05D14FF0CB
:1042D000010C0CFA00FCC2F810C0401C0828D1D315
:1042E0001460B1F800C0BCF1FF0F34DD5468002049
:1042F0002EE000F1080C4FF0010808FA0CF3B1F8B9
:1043000000C00CEA03069E4221D183004FF00F0C3F
:104310000CFA03F7BC4305FA03FC4CEA040491F8D9
:1043200003C0BCF1280F05D100F1080C08FA0CF805
:10433000C2F8148091F803C0BCF1480F07D100F116
:10434000080C4FF0010808FA0CF8C2F81080401C65
:104350000828CED35460BDE8F0812DE9F041054630
:104360000C46174698460F2C02D90020BDE8F08174
:104370002846FFF71BFF18B90121284600F072F804
:10438000B8F1000F10D1022F05D1E8680121A1403A
:104390008843E86008E0032F06D127F00107E868AA
:1043A0000121A1400843E860082C01D22E4601E01B
:1043B000083C2E1D3068A2000F21914088433060D8
:1043C00048EA8700A1008840316808433060012036
:1043D000CCE70000F0B50A460023002400210025A8
:1043E00000F00046B6F1004F02D11D4EF16901E028
:1043F0001B4E7168C0F3034583B200F44016B6F556
:10440000401F08D121F07061154E766826F0706665
:10441000134F7E6012E000F48016B6F5801F06D1BF
:10442000032606FA05F4A14341F0706106E0460D4B
:10443000360103FA06F6B14341F0706122B1460D30
:10444000360103FA06F6314300F00046B6F1004F9C
:1044500002D1034EF16101E0014E7160F0BD000038
:1044600000000140002945D0454A904206D1454A06
:10447000926942F00402434B9A6180E0424A9042C2
:1044800006D1404A926942F008023E4B9A6176E0BA
:104490003E4A904206D13B4A926942F01002394BA3
:1044A0009A616CE03A4A904206D1364A926942F0EB
:1044B0002002344B9A6162E0364A904206D1314A7A
:1044C000926942F040022F4B9A6158E0324A904282
:1044D00006D12C4A926942F080022A4B9A614EE042
:1044E0002E4A90424BD1274A926942F48072254B62
:1044F0009A6144E0224A904206D1224A926922F00F
:104500000402204B9A613AE01F4A904206D11D4AAC
:10451000926922F008021B4B9A6130E01B4A9042DC
:1045200006D1184A926922F01002164B9A6126E0D1
:10453000174A904206D1134A926922F02002114B89
:104540009A611CE0134A904206D10E4A926922F009
:1045500040020C4B9A6112E00F4A904206D1094A80
:10456000926922F08002074B9A6108E00B4A904260
:1045700005D1044A926922F48072024B9A61704715
:104580000008014000100240000C014000100140F2
:104590000014014000180140001C014000200140AF
:1045A000416170470161704701460548006880B26B
:1045B00000EBC100001D034A32F8100080B27047C2
:1045C000505C00400060004001460648006880B230
:1045D00000EBC100801D044A32F81000C0F309004E
:1045E00070470000505C00400060004001460548F4
:1045F000006880B200EBC100034A32F8100080B2BC
:1046000070470000505C0040006000400D49097890
:10461000012910D10C4909680C4A1268891A0C4A00
:10462000126888180A49096851B907490968074A90
:104630001268881A04E004490968044A1268881A52
:1046400070470000270400202C04002030040020C4
:104650003404002010B5084B1B68C3F30B02C2F5ED
:104660008051054B1B68054C24681B1BC3F580500B
:10467000884200D9084610BD2C04002030040020D8
:10468000084A1178127882F00102064B1A70064A25
:10469000525C064B1B7842EA03000022024B5A543C
:1046A000704700002A04002028040020270400206E
:1046B00010B50F4B18681B1D19681B1D1A68A8B18F
:1046C0000C4CA070030A2371030CA371030E237218
:1046D000A1720B0A23730B0CA3730B0E2374A27429
:1046E000130A2375130CA375130E237610BD000057
:1046F000E8F7FF1FF80200202DE9F04704460D46B9
:104700004FF0FF0A2078D02872DB2078D7286FDCA2
:10471000207805F8010B14F8010BD038082868D26E
:10472000DFE800F004121518213356725648076866
:1047300005F8017B380A05F8010B380C05F8010B68
:10474000380E05F8010B81E0FFF7C2FC7EE0FFF7B1
:1047500093FA7BE027683846FFF74EFA042801D029
:104760004FF0FF0A72E0D4F80080A68806E018F83F
:10477000011BFF2902D04FF0FF0A04E0301EA6F112
:1047800001018EB2F3D100BF60E02768A688382E01
:1047900002DD4FF0FF0A1AE0A41D12E014F8019B9D
:1047A0002EB114F8011B49EA0129701E86B2494650
:1047B0003846FFF76BFA042802D04FF0FF0A05E0F5
:1047C000BF1C301EA6F101018EB2E7D100BF3DE053
:1047D000D4F80080A6883E2E02DD4FF0FF0A12E0DA
:1047E000002005F8010B09E026B998F800A005E0C3
:1047F00030E027E018F8010B05F8010B301EA6F198
:1048000001018EB2F0D121E000BF00BF00BF00BFA8
:1048100000BFBFF34F8F00BF00BF00BF1B48006841
:1048200000F4E0601A490843001D1849086000BF01
:1048300000BF00BFBFF34F8F00BF00BF00BF00E04D
:1048400000BFFDE76D1E4FF0FF0A00BF00BF85F8F7
:1048500000A017E00F48006890B10F4BDFF83CC094
:10486000DCF800C003EB8C110D4BDFF838C0DCF82E
:1048700000C003EB8C10074B1B685A68904701E09F
:10488000FF202870BDE8F087002004E00CED00E078
:104890000000FA0504020020043400205C0400201B
:1048A000042400205404002072B61E49086880F3D6
:1048B000088800BF01F0FEF9002412E001F06AFA56
:1048C0006420FEF7D9F901F05DFA01F03DFA6420A9
:1048D000FEF7D2F901F030FA4FF47A70FEF7CCF916
:1048E000641C052CEADB00BF00BF00BF00BF00BF97
:1048F000BFF34F8F00BF00BF00BF0B48006800F43C
:10490000E0600A490843001D0749086000BF00BF76
:1049100000BFBFF34F8F00BF00BF00BF00E000BF6C
:10492000FDE70000000000080CED00E00000FA05C3
:104930002DE9F04FADF2944D06460024402103A826
:10494000FBF78EFDA246A046A1460020029000255E
:10495000012231469CA808F055FF13223FA113A85D
:1049600008F050FF40A000680190012003463FA2DC
:10497000022100902D2001F0EFFE57E0781CC7B215
:10498000642F19D101A90A5D04EB44014B2303EB09
:104990004101C8B20123022101F0A4FE601CC4B28F
:1049A000032C08DD00240120034632A202210090DE
:1049B0004B2001F0D1FE00279DF80C003A2804D0CE
:1049C00000200DF2944DBDE8F08F0DF10D00FCF7C5
:1049D0008DF982460DF11100FCF788F983460DF13F
:1049E0000F00FCF783F90BEB00201FFA80F80DF1A4
:1049F0001300FCF77BF98146B9F1000F16D141464F
:104A000013A808F010FE00250BE06900093103AA85
:104A10008818FCF76BF9834613A908F0E0FF681CBF
:104A2000C5B203A8FBF796FCA842EED89CAA402189
:104A300003A808F0D1FD0028A0D1012003460FA251
:104A4000022100902D2001F087FE13A808F0B9FD87
:104A50009CA808F0B6FD0120B3E7000077726974E6
:104A6000652E62696E0000002E2E2E00494E5645BE
:104A700052000000202020202000000020202020C4
:104A8000202020202020000010B518480068047A5B
:104A9000022C01D0042C05D1FDF7E4FE1348006878
:104AA000047A1CE0062C19D11048006840780528CB
:104AB0000ED10E480068007800F07F0040B90B4925
:104AC0000968C87803F096FE09490968086A8047B2
:104AD0000849096888688047082400E008240349D9
:104AE00009680C7202F00AF910BD00000C040020E5
:104AF000180400201004002010B50B48006838B1DD
:104B000009480A490860084600680168084888475B
:104B10000AF0C0FC01200AF04BFB00BF0AF040FB8A
:104B20000028FBD010BD0000DCFA000804020020C1
:104B3000D4FA000808B54FF4A06001F019FC08F0A1
:104B400011FB01F091F807F0EDFD1749002008F086
:104B500043FE01F00FFD01F0B1FC01F0D3F803F0CA
:104B600001FE012816D1FEF7A1F8104822231A46AB
:104B700000210090084601F0C1FC002001230CA296
:104B800019460090262001F0E7FDFFF7B5FFFEF77C
:104B900089F807E003F0D8FF03F0E4FF07F002FC18
:104BA00007F0E2FB08BD00007407002000000020B1
:104BB00044415020436F6E6E6563740008B5002059
:104BC000009009F0C5FD08B9002008BD4EF29E70A6
:104BD00009F0A8FE08B90020F7E709F0B9FD08B907
:104BE0000020F2E7684609F07BFD08B90020ECE7F9
:104BF0000120EAE710B504460548407818B1204680
:104C000000F008F802E0204600F0A6F810BD000011
:104C10007812002070B5054601F080FF01F04CFECF
:104C200000BF00BF01F082FE00BF00BF01F044FEE4
:104C300000BF00BF01F07AFE00BF00BF01F046FFD9
:104C400001F03AFE00BF00BF01F070FE00BF00BFE0
:104C500001F032FE00BF00BF01F068FE00BF00BFE0
:104C6000012001F077FF3B48C17D203030F8114032
:104C700008E001F021FE00BF00BF01F057FE00BFB9
:104C800000BF641E002CF4D13248C17D1830405C56
:104C9000441E0CE0E8B201F05DFF01F00DFE00BF24
:104CA00000BF01F043FE00BF00BF6D08641E002C72
:104CB000F0D12848C17D303030F811402CB3E8B233
:104CC00001F048FF01F0F8FD00BF00BF01F02EFE2B
:104CD00000BF00BF012001F03DFF641E08E001F0AD
:104CE000EBFD00BF00BF01F021FE00BF00BF641E4E
:104CF000002CF4D101F012FF01F0DEFD00BF00BF77
:104D000001F014FE00BF00BF0DE001F007FFE8B2A4
:104D100001F020FF01F0D0FD00BF00BF01F006FE52
:104D200000BF00BF00BF01F0C7FD00BF00BF01F022
:104D3000FDFD00BF00BF01F0C9FE01F0BDFD00BFD9
:104D400000BF01F0F3FD00BF00BF012001F002FF32
:104D500070BD00007812002070B5054601F0DEFE3F
:104D600001F0AAFD9F494868014600BF00BF4A1EE6
:104D7000111EFCD100BF01F0D9FD9A4948680146D7
:104D800000BF00BF4A1E111EFCD100BF01F094FD00
:104D900094494868014600BF00BF4A1E111EFCD15D
:104DA00000BF01F0C3FD8F494868014600BF00BF46
:104DB0004A1E111EFCD100BF01F088FE01F07CFDEF
:104DC00088494868014600BF00BF4A1E111EFCD139
:104DD00000BF01F0ABFD83494868014600BF00BF3A
:104DE0004A1E111EFCD100BF01F066FD7D494868D6
:104DF000014600BF00BF4A1E111EFCD100BF01F0DA
:104E000095FD78494868014600BF00BF4A1E111E43
:104E1000FCD100BF012001F09DFE7248C17D203011
:104E200030F8114016E001F047FD6E494868014630
:104E300000BF00BF4A1E111EFCD100BF01F076FD6D
:104E400068494868014600BF00BF4A1E111EFCD1D8
:104E500000BF641E002CE6D16248C17D1830405C62
:104E6000441E1AE0E8B201F075FE01F025FD5D492F
:104E70004868014600BF00BF4A1E111EFCD100BF9A
:104E800001F054FD57494868014600BF00BF4A1E63
:104E9000111EFCD100BF6D08641E002CE2D15148E8
:104EA000C17D303030F81140002C4ED0E8B201F016
:104EB00051FE01F001FD4B494868014600BF00BFAB
:104EC0004A1E111EFCD100BF01F030FD4549486863
:104ED000014600BF00BF4A1E111EFCD100BF0120C9
:104EE00001F038FE641E16E001F0E6FC3D4948681A
:104EF000014600BF00BF4A1E111EFCD100BF01F0D9
:104F000015FD38494868014600BF00BF4A1E111E02
:104F1000FCD100BF641E002CE6D101F0FFFD01F0C2
:104F2000CBFC30494868014600BF00BF4A1E111E35
:104F3000FCD100BF01F0FAFC2A494868014600BFD5
:104F400000BF4A1E111EFCD11AE001F0E7FDE8B2D5
:104F500001F000FE01F0B0FC22494868014600BFA4
:104F600000BF4A1E111EFCD100BF01F0DFFC1D492D
:104F70004868014600BF00BF4A1E111EFCD100BF99
:104F800001F09AFC17494868014600BF00BF4A1E5D
:104F9000111EFCD100BF01F0C9FC1249486801464E
:104FA00000BF00BF4A1E111EFCD100BF01F08EFDE4
:104FB00001F082FC0B494868014600BF00BF4A1E51
:104FC000111EFCD100BF01F0B1FC06494868014642
:104FD00000BF00BF4A1E111EFCD100BF012001F01E
:104FE000B9FD70BD7812002070B501F097FD01F099
:104FF00063FC66494868014600BF00BF4A1E111E97
:10500000FCD100BF01F092FC60494868014600BF36
:1050100000BF4A1E111EFCD100BF01F057FD01F078
:105020004BFC5A494868014600BF00BF4A1E111E8A
:10503000FCD100BF01F07AFC54494868014600BF2A
:1050400000BF4A1E111EFCD100BF01F035FC4F49C4
:105050004868014600BF00BF4A1E111EFCD100BFB8
:1050600001F064FC49494868014600BF00BF4A1E80
:10507000111EFCD100BF4548C57D16E001F01CFCA7
:1050800042494868014600BF00BF4A1E111EFCD1BC
:1050900000BF01F04BFC3D494868014600BF00BF1E
:1050A0004A1E111EFCD100BF6D1E002DE6D100244A
:1050B0001F251CE001F000FC34494868014600BF90
:1050C00000BF4A1E111EFCD100BF01F051FD064673
:1050D00001F02CFC2D494868014600BF00BF4A1E64
:1050E000111EFCD100BF44EAC67464086D1E002D79
:1050F000E0D101F013FD01F0DFFB244948680146CF
:1051000000BF00BF4A1E111EFCD100BF01F030FDE0
:10511000064601F00BFC1D494868014600BF00BF70
:105120004A1E111EFCD100BF44EAC67401F0C4FB44
:1051300016494868014600BF00BF4A1E111EFCD137
:1051400000BF01F0F3FB11494868014600BF00BFF2
:105150004A1E111EFCD100BF01F0B8FC01F0ACFBEF
:105160000A494868014600BF00BF4A1E111EFCD113
:1051700000BF01F0DBFB05494868014600BF00BFE6
:105180004A1E111EFCD100BF204670BD78120020BF
:105190002DE9F05F04460F46904604F03F0606B93D
:1051A000402604F0400010B101F0B8FC01E001F02D
:1051B0008DFC36E017F801AB00254FF0080924E01C
:1051C0000AF0FF0001F0C6FC01F076FB17494868C1
:1051D000014600BF00BF4A1E111EFCD100BF01F0F6
:1051E000C7FC834601F0A2FB10494868014600BF96
:1051F00000BF4A1E111EFCD100BF4FEA5A0A6D08BB
:1052000045EACB15A9F10109761EB9F1000F01D0CD
:10521000002ED5D125FA09F504F0800008B108F870
:10522000015B002EC6D1BDE8F09F0000781200207F
:1052300070B504460D460648407820B12946204600
:1052400000F008F870BD2946204600F03FF9F9E764
:10525000781200202DE9F0470646884601F05EFCF2
:1052600001F02AFB00BF00BF01F060FB00BF00BFE0
:1052700001F02CFC01F020FB00BF00BF01F056FB49
:1052800000BF00BF01F018FB00BF00BF01F04EFBE4
:1052900000BF00BF8C48C47D08E001F00DFB00BFDB
:1052A00000BF01F043FB00BF00BF641E002CF4D11F
:1052B000C6F3470001F04EFC01F0FEFA00BF00BF4C
:1052C00001F056FC074601F031FB00BF00BF4FEA7A
:1052D0004709C6F3870001F03DFC01F0EDFA00BF7D
:1052E00000BF01F045FC074601F020FB00BF00BFF6
:1052F00049EA0709C6F3C70001F02CFC01F0DCFA0B
:1053000000BF00BF01F034FC074601F00FFB00BFF7
:1053100000BF49EA8709B9F1010F0AD001F0FEFB8D
:1053200001F0CAFA00BF00BF01F000FB00BF00BFE0
:10533000A1E006F00200002852D000251F240EE054
:1053400001F0BAFA00BF00BF01F012FC074601F0FD
:10535000EDFA00BF00BF45EAC7756D08641E002C5A
:10536000EED15948817DC07D081A441E14B301F066
:10537000A3FA00BF00BF01F0FBFB074601F0D6FA1D
:1053800000BF00BF641E08E001F096FA00BF00BF36
:1053900001F0CCFA00BF00BF641E002CF4D101F074
:1053A000BDFB01F089FA00BF00BF01F0BFFA00BFEA
:1053B00000BF0DE001F0B2FB01F07EFA00BF00BFBC
:1053C00001F0D6FB074601F0B1FA00BF00BF00BFF5
:1053D00045EAC775B8F1000F4CD0C8F8005049E055
:1053E000D8F800501F240CE0E8B201F0B3FB01F044
:1053F00063FA00BF00BF01F099FA00BF00BF6D085B
:10540000641E002CF0D13048817DC07D081A441EF6
:1054100014B3E8B201F09EFB01F04EFA00BF00BFEA
:1054200001F084FA00BF00BF641E08E001F044FAF6
:1054300000BF00BF01F07AFA00BF00BF641E002C5D
:10544000F4D101F06BFB01F037FA00BF00BF01F0AF
:105450006DFA00BF00BF0DE001F060FBE8B201F0A3
:1054600079FB01F029FA00BF00BF01F05FFA00BF2D
:1054700000BF00BF00BF01F01FFA00BF00BF01F076
:1054800055FA00BF00BF01F021FB01F015FA00BF83
:1054900000BF01F04BFA00BF00BF012001F05AFB32
:1054A0000948047A08E001F007FA00BF00BF01F0E4
:1054B0003DFA00BF00BF00BF201EA4F10104F2D1DD
:1054C00009F0FF00BDE8F087781200202DE9F047D1
:1054D0000746894601F022FB01F0EEF9FE494868D3
:1054E000014600BF00BF4A1E111EFCD100BF01F0E3
:1054F0001DFAF9494868014600BF00BF4A1E111E47
:10550000FCD100BF01F0E2FA01F0D6F9F249486897
:10551000014600BF00BF4A1E111EFCD100BF01F0B2
:1055200005FAED494868014600BF00BF4A1E111E3A
:10553000FCD100BF01F0C0F9E7494868014600BF4F
:1055400000BF4A1E111EFCD100BF01F0EFF9E24975
:105550004868014600BF00BF4A1E111EFCD100BFB3
:10556000DD48C47D16E001F0A7F9DB494868014633
:1055700000BF00BF4A1E111EFCD100BF01F0D6F9CA
:10558000D5494868014600BF00BF4A1E111EFCD124
:1055900000BF641E002CE6D1C7F3470001F0DAFA21
:1055A00001F08AF9CC494868014600BF00BF4A1E95
:1055B000111EFCD100BF01F0DBFA064601F0B6F97E
:1055C000C5494868014600BF00BF4A1E111EFCD1F4
:1055D00000BF4FEA4608C7F3870001F0BBFA01F0AD
:1055E0006BF9BD494868014600BF00BF4A1E111E45
:1055F000FCD100BF01F0BCFA064601F097F9B649AC
:105600004868014600BF00BF4A1E111EFCD100BF02
:1056100048EA0608C7F3C70001F09CFA01F04CF90C
:10562000AD494868014600BF00BF4A1E111EFCD1AB
:1056300000BF01F09DFA064601F078F9A6494868D6
:10564000014600BF00BF4A1E111EFCD100BF48EA40
:105650008608B8F1010F18D001F060FA01F02CF9BA
:105660009D494868014600BF00BF4A1E111EFCD17B
:1056700000BF01F05BF998494868014600BF00BFD0
:105680004A1E111EFCD100BF2FE107F002000028C6
:1056900074D000251F241CE001F00EF98E494868E3
:1056A000014600BF00BF4A1E111EFCD100BF01F021
:1056B0005FFA064601F03AF987494868014600BF9B
:1056C00000BF4A1E111EFCD100BF45EAC6756D0819
:1056D000641E002CE0D18048817DC07D081A441EE4
:1056E000002C4CD001F0E8F87B494868014600BF27
:1056F00000BF4A1E111EFCD100BF01F039FA064658
:1057000001F014F974494868014600BF00BF4A1E01
:10571000111EFCD100BF641E16E001F0CDF86E49E9
:105720004868014600BF00BF4A1E111EFCD100BFE1
:1057300001F0FCF868494868014600BF00BF4A1EF6
:10574000111EFCD100BF641E002CE6D101F0E6F969
:1057500001F0B2F860494868014600BF00BF4A1E28
:10576000111EFCD100BF01F0E1F85B494868014619
:1057700000BF00BF4A1E111EFCD11BE022E001F059
:10578000CDF901F099F854494868014600BF00BFBF
:105790004A1E111EFCD100BF01F0EAF9064601F0D5
:1057A000C5F84D494868014600BF00BF4A1E111E9A
:1057B000FCD100BF45EAC675B9F1000F01D0C9F8A8
:1057C000005091E0D9F800501F241AE0E8B201F02F
:1057D000C1F901F071F840494868014600BF00BFB7
:1057E0004A1E111EFCD100BF01F0A0F83A494868DA
:1057F000014600BF00BF4A1E111EFCD100BF6D084C
:10580000641E002CE2D13448817DC07D081A441EFC
:10581000002C4BD0E8B201F09DF901F04DF82E4973
:105820004868014600BF00BF4A1E111EFCD100BFE0
:1058300001F07CF828494868014600BF00BF4A1EB5
:10584000111EFCD100BF641E16E001F035F822499C
:105850004868014600BF00BF4A1E111EFCD100BFB0
:1058600001F064F81C494868014600BF00BF4A1EA9
:10587000111EFCD100BF641E002CE6D101F04EF9D0
:1058800001F01AF814494868014600BF00BF4A1EDB
:10589000111EFCD100BF01F049F80F4948680146CC
:1058A00000BF00BF4A1E111EFCD11DE001F036F9F9
:1058B000E8B201F04FF900F0FFFF074948680146E0
:1058C00000BF00BF4A1E111EFCD100BF01F02EF820
:1058D00001494868014601E07812002000BF00BF7E
:1058E0004A1E111EFCD100BF00BF00F0E5FF284991
:1058F0004868014600BF00BF4A1E111EFCD100BF10
:1059000001F014F822494868014600BF00BF4A1E52
:10591000111EFCD100BF01F0D9F800F0CDFF1C49E9
:105920004868014600BF00BF4A1E111EFCD100BFDF
:1059300000F0FCFF16494868014600BF00BF4A1E40
:10594000111EFCD100BF012001F004F91048047AB7
:1059500015E000F0B1FF0E494868014600BF00BFE6
:105960004A1E111EFCD100BF00F0E0FF0849486844
:10597000014600BF00BF4A1E111EFCD100BF201E01
:10598000A4F10104E5D108F0FF00BDE8F0870000B4
:105990007812002070B5054601F0C0F800F08CFFC9
:1059A000B0494868014600BF00BF4A1E111EFCD125
:1059B00000BF00F0BBFFAB494868014600BF00BF15
:1059C0004A1E111EFCD100BF01F080F800F074FFE8
:1059D000A4494868014600BF00BF4A1E111EFCD101
:1059E00000BF00F0A3FF9F494868014600BF00BF09
:1059F0004A1E111EFCD100BF00F05EFF99494868A5
:105A0000014600BF00BF4A1E111EFCD100BF00F0BE
:105A10008DFF94494868014600BF00BF4A1E111E11
:105A2000FCD100BF8F48C47D16E000F045FF8D49D2
:105A30004868014600BF00BF4A1E111EFCD100BFCE
:105A400000F074FF87494868014600BF00BF4A1E46
:105A5000111EFCD100BF641E002CE6D1002001F015
:105A600079F800F029FF7F494868014600BF00BF70
:105A70004A1E111EFCD100BF00F058FF794948684A
:105A8000014600BF00BF4A1E111EFCD100BF00F03E
:105A900013FF74494868014600BF00BF4A1E111E2B
:105AA000FCD100BF00F042FF6E494868014600BFCC
:105AB00000BF4A1E111EFCD100BF00F0FDFE694967
:105AC0004868014600BF00BF4A1E111EFCD100BF3E
:105AD00000F02CFF63494868014600BF00BF4A1E22
