:020000040800F2
:1000000088750020450100082D4F00082D4F00087D
:100010002D4F00082D4F00082D4F00080000000054
:100020000000000000000000000000002D4F00084C
:100030002D4F0008000000002D4F000861970008B8
:100040005F0100085F0100085F0100085F01000810
:100050005F0100085F0100085F0100085F01000800
:100060005F0100085F0100085F0100080D21000822
:100070002D2100084D2100086D2100088D21000868
:10008000B9210008E52100085F010008D3C9000874
:10009000C9CA00085F0100085F0100085F0100088D
:1000A0005F0100085F0100085F0100085F010008B0
:1000B0005F0100085F0100085F0100085F010008A0
:1000C0005F0100085F0100085F0100085F01000890
:1000D0005F010008B19A0008719B00085F010008E9
:1000E0005F0100085F010008C5C900085F01000842
:1000F0005F0100085F0100085F0100085F01000860
:100100005F0100085F0100085F0100085F0100084F
:100110005F0100085F0100085F0100085F0100083F
:10012000052200082522000849220008692200084B
:10013000DFF80CD000F006FA0048004721F2000872
:10014000887500200648804706480047FEE7FEE71E
:10015000FEE7FEE7FEE7FEE7FEE7FEE7FEE7FEE777
:10016000D59700083101000840EA01039B0703D03E
:1001700009E008C9121F08C0042AFAD203E011F8E6
:10018000013B00F8013B521EF9D27047D2B201E0A8
:1001900000F8012B491EFBD270470022F6E710B58C
:1001A00013460A4604461946FFF7F0FF204610BDE5
:1001B00030B505462A460B4612F8010B13F8014BE1
:1001C00008B1A042F8D01CB1002802D06D1CF1E7A4
:1001D000284630BD10B5044604E00B7800F8013B1A
:1001E00003B1491C521EF8D2204610BD421C10F823
:1001F000011B0029FBD1801A70472DE9FE4F81EACF
:10020000030404F0004421F0004100944FF0000B7F
:1002100023F0004350EA01045ED052EA03045BD0AD
:10022000C3F30A54C1F30A552C44A4F2F3340194E5
:10023000A0FB0254C1F3130141F48011C3F3130373
:1002400043F4801301FB024400FB034E840A970A27
:1002500044EA815447EA8357A4FB076802958D0A54
:1002600005FB07854FEA932C04FB0C542705029DE0
:100270004FEA065847EA1637B5EB08056EEB070C50
:10028000870E920E47EA811742EA8312A7FB02010A
:10029000B6EB0B0164EB00042B0D43EA0C335E1844
:1002A00044EB1C50DA465146E7FB0201C5F3130448
:1002B0004FEA0B3343EA14534FEA0432019C43EAFA
:1002C0000603A4F10C040294009CCDE900B400F0F4
:1002D000EBF803B0BDE8F08F00200146F9E72DE907
:1002E000F04D81EA030404F0004B21F00045144670
:1002F0004FF0000A23F0004150EA050220D054EAF2
:1003000001021DD0C5F30A570246C5F31303C1F31A
:100310001300C1F30A5640F4801543F48013A7EB91
:100320000608101BD64608F2FD3873EB050002D311
:1003300008F1010801E092185B41B8F1000F03DAFF
:1003400000200146BDE8F08D00204FF480110646E4
:1003500084460EE0171B73EB050705D3121B63EBF6
:10036000050306434CEA010C49084FEA3000921895
:100370005B4150EA0107EDD152EA030012D082EA54
:10038000040083EA0501084305D0101BAB4106D2E7
:100390000122002306E000224FF0004302E06FF04C
:1003A000010253101AEB06004CEB085110EB0A0047
:1003B00041EB0B01BDE8F04D00F067B80EB540F21F
:1003C000334102910021CDE900110A460B4600F0AD
:1003D0006BF803B000BDC1F30A5210B5C1F31301AD
:1003E00040F2FF3341F480119A4201DA002010BD3F
:1003F00040F233439A42A2F2334203DC524200F00D
:1004000034F810BD904010BD2DE9F05F0546002086
:1004100092469B4688460646814640241BE0284675
:1004200041464746224600F020F853465A46C01A35
:10043000914110D311461846224600F095F82D1A26
:1004400067EB01084F4622460120002100F08CF89E
:1004500017EB00094E41201EA4F10104DFDC4846E1
:1004600031462A464346BDE8F09F202A04DB203A65
:1004700021FA02F00021704721FA02F3D040C2F1C4
:100480002002914008431946704710B5141E73F1BD
:10049000000408DA401C41F1000192185B411A4344
:1004A00001D120F0010010BD2DE9F04D92469B4690
:1004B00011B1B1FA81F202E0B0FA80F22032904636
:1004C00000F052F804460F4640EA0A0041EA0B01E8
:1004D00053465A46084313D0114653EA010019D037
:1004E000C8F140025046FFF7C0FF05460E46504691
:1004F0005946424600F038F8084305D0012004E090
:1005000020463946BDE8F08D0020054346EAE076F6
:100510002C4337430A986305E40AA0EB0800002245
:10052000FD0A44EA47540A3002D500200146E9E7B3
:10053000010510196941DDE9084500196941BDE867
:10054000F04DA2E7064C074D06E0E06840F00103DD
:1005500094E8070098471034AC42F6D3FFF7ECFD5F
:10056000A81B0108C81B0108202A04DB203A00FA56
:1005700002F1002070479140C2F1200320FA03F3FA
:1005800019439040704770B58C1810F8015B15F056
:10059000070301D110F8013B2A1106D110F8012BF5
:1005A00003E010F8016B01F8016B5B1EF9D12B071A
:1005B00005D40023521E0DD401F8013BFAE710F8D0
:1005C000013BCB1A921C03E013F8015B01F8015BBD
:1005D000521EF9D5A142D8D3002070BD10B50446F3
:1005E00024B1012C07D0022C15D10AE010210120E2
:1005F00008F0F2FC10E04FF48051022008F094FC67
:100600000AE01021012008F0E7FC4FF4805102209D
:1006100008F08AFC00E000BF00BF10BD0146CAB26E
:100620000B1243EA0220704710B5002404E0A748EB
:10063000005DA7490855641CA64800888442F6D38B
:10064000A3484068A4494860A14880688860A148E0
:1006500000881F280FD00220FFF7C0FF00209C4910
:100660000860487B1A22052108F0A2FD0021012024
:1006700008F080FD10BD9648C07B282803D0944820
:10068000C07B2A2816D19248407C01069048807C85
:1006900041EA00418E48C07C41EA00208C49097D36
:1006A00008438E4908608A48C17D807D41EA002068
:1006B0008B490860864800688A4988426FD184481F
:1006C000407B89490968884207D88148807B012896
:1006D00003DB7F48807B10280DDD0220FFF77EFFC3
:1006E0007B49487B2422052108F062FD002101207E
:1006F00008F040FDE8E07648C07B25285FD01BDC91
:1007000015286FD00EDC08286DD006DC00285BD0E1
:10071000032830D0042867D176E00A2873D0122845
:10072000F9D12DE01A380A285ED2DFE800F0392E20
:10073000B17D33B1B1B1B1438A286FD00EDC5528F9
:1007400067D006DC282844D02A284ED02F28E2D1B2
:1007500054E05A2829D08828DDD176E0A8286DD029
:1007600004DC8F286FD09E28D5D173E0AA287BD0D7
:10077000AF28D0D182E05649487B07F0ADFA95E02A
:100780005349487B07F080F990E05149487B07F0D6
:10079000B7FA8BE04E49487B07F0B2FA86E086E074
:1007A0004B49487B07F0C0F980E04949487B07F096
:1007B000B1F97BE04649487B07F04AFA76E04449C4
:1007C000487B07F0F7F971E04149487B07F0A0FA50
:1007D0006CE03F49487B42490A684049096807F094
:1007E000ADF963E01BE024E052E03949487B3C4925
:1007F0000A683A49096807F0C7FA57E03449487B64
:1008000007F0A2FA52E02AE03149487B07F024F9C8
:100810004CE02F49487B07F05BF947E029E02C4981
:10082000487B07F055F941E02949487B07F050F92A
:100830003CE02749487B07F04BF937E02449487BE7
:1008400007F046F932E01EE00EE02149487B07F050
:100850003FF92BE01E49487B07F03AF926E01C4996
:10086000487B07F035F921E01949487B07F030F95A
:100870001CE01749487B07F02BF917E01449487B27
:1008800007F026F912E01249487B07F021F90DE044
:100890000220FFF7A3FE0E49487B2022052108F025
:1008A00087FC0021012008F065FC00BF0CE002205D
:1008B000FFF794FE0649487B2022052108F078FCCA
:1008C0000021012008F056FC00BFD3E6B81200203A
:1008D000F81200201E03002018130020200300201F
:1008E00024030020555342438C03002010B50024FC
:1008F00049E047F6FF70294908602948008800F060
:100900000F002849087008460078274901EB80004D
:10091000D0F8000C84B204F40040C8B1214800783B
:1009200001EB8000D0F8000CC0F30E0048F68F7188
:1009300008401C4909781C4A02EB8101C1F8000CEF
:1009400018490978491E194A52F8210080471AE0CF
:1009500004F08000B8B113480078134901EB80001F
:10096000D0F8000C48F60F7108400E4909780E4A7D
:1009700002EB8101C1F8000C0A490978491E0C4AB2
:1009800052F8210080470548006880B20449088079
:1009900000F400400028ACD110BD0000445C0040D1
:1009A0005003002038040020005000407003002055
:1009B0005403002008B50020009022E197480088E9
:1009C00000F00F00964908700846007800287CD196
:1009D00094480068944908800846008800F0300078
:1009E000924908809048008800F440508E49088061
:1009F0008C4909684BF6BF7201EA020080F400508E
:100A000080F0200040F4004141F08001854A1160EF
:100A10008248008800F0100090BB1046006848F63D
:100A20000F7108401146086004F068FB7D490968B1
:100A30004BF6BF7201EA02007B49098801F480513C
:100A400009B180F480507849098801F4005109B156
:100A500080F400507549098801F0100109B180F057
:100A600010007249098801F0200109B180F02000CE
:100A700081B241F4004141F080016A4A116008BD31
:100A8000FFE76848006880B20090BDF8000000F4FD
:100A90000060B0B363480068C0F30E0048F68F7181
:100AA00008406049086008F0A1FB5E4909684BF600
:100AB000BF7201EA02005C49098801F4805109B162
:100AC00080F480505849098800E056E001F4005154
:100AD00009B180F400505549098801F0100109B1AD
:100AE00080F010005149098801F0200109B180F01F
:100AF000200081B241F4004141F08001494A116077
:100B0000BDE7FFE7BDF8000000F40040002878D002
:100B100044480068C0F30E0048F68F710840414910
:100B2000086006F0BFF93F4909684BF6BF7201EA59
:100B300002003D49098801F4805109B180F48050D8
:100B40003949098801F4005109B180F4005037494E
:100B5000098801F0100109B180F0100033490988BB
:100B600001F0200109B180F0200081B241F4004180
:100B700041F080012B4A116081E7294800782C4917
:100B800001EB8000D0F8000C80B20090BDF80000AE
:100B900000F40040C0B12248007801EB8000D0F89A
:100BA000000CC0F30E0048F68F7108401C4909780C
:100BB0001F4A02EB8101C1F8000C19490978491E4E
:100BC0001C4A52F821008047BDF8000000F0800068
:100BD000B8B113480078164901EB8000D0F8000C3A
:100BE00048F60F7108400E490978114A02EB81015D
:100BF000C1F8000C0A490978491E0F4A52F8210031
:100C0000804708484430006880B20449088000F4F6
:100C1000004000287FF4D2AE00BF30E75003002030
:100C200038040020005C00404C0400204E040020EA
:100C300000500040700300205403002000B502461D
:100C4000507800F008F80346107800F004F803EB41
:100C50000010C0B200BD0146A1F16100002802D41D
:100C60000A30C0B27047A1F14100002802D40A3016
:100C7000C0B2F7E7A1F13000C0B2F3E70B4A02EBD4
:100C80008001D1F8001C01F4804171B102EB8001B8
:100C9000D1F8001C48F68F7211404CF280021143CB
:100CA000024B03EB8002C2F8001C7047005000406A
:100CB0000B4A02EB8001D1F8001C01F0400171B138
:100CC00002EB8001D1F8001C48F68F72114048F207
:100CD000C0021143024B03EB8002C2F8001C7047B4
:100CE000005000400020064908704870054908700F
:100CF000054908600549086005490860704700001B
:100D0000580400205A0400205C04002060040020E5
:100D100064040020084A02EB8001D1F8001C48F668
:100D20008F62114048F280021143034B03EB8002B3
:100D3000C2F8001C704700000050004070B5054626
:100D40000E46287808B9012400E02C78012C02D046
:100D5000022C0CD105E001200849087006F0BEFA0B
:100D600007E002200549087006F058FA01E0002467
:100D700000BF00BF34704FF0011070BDC0130020E1
:100D800030B502460B461078547840EA04210B48EF
:100D900000680B4CB0FBF4F0801C0324B0FBF4F0B3
:100DA00041430846044600BF00BF651E2C1EFCD10F
:100DB00000BF00201870034830BD0000440200202E
:100DC00040420F000100020010B504460020044913
:100DD000087006F057FA00202070012010BD0000B6
:100DE000C013002030B502461546521C12F8014BC4
:100DF0000BE012F8013B03F0020020B103F01000F9
:100E000010B1121D00E0121D641E002CF1D1002053
:100E100008704870501B0004801C30BD70B504463B
:100E20000D46207810B1012810D107E0627802F059
:100E300001000B4A1268116888470BE0627802F0E3
:100E40000100074A12685168884703E0FF202870B4
:100E5000044870BD00BF002028700248F9E7000078
:100E6000300200200100020010B502460020062AD0
:100E70001BD006DC062A30D2DFE802F02F0C0D0E64
:100E80000F16F02A12D0FD2A14D0FE2A21D0FF2AF4
:100E900023D118E022E021E020E0114B1C680C6017
:100EA0001B790B71052019E018E017E017230B7070
:100EB000012013E000230B7010234B7000238B7074
:100EC000CB7004200AE040230B7000234B700220FB
:100ED00004E040230B70012000E000BF00BF10BD04
:100EE0006D0D0108F0B502460E4612F8013B12489E
:100EF00083750025002109E012F8014B0E481830D7
:100F00004454083020F811502544491C9942F3D329
:100F1000002108E008481830405C2D1A064830309F
:100F200020F81150491C9942F4D300203070581C0D
:100F30000004401CF0BD0000C013002070B5064640
:100F40000C4612480078022800D019E031780F488A
:100F5000C175C07D0D49897D884200DB10E00E20FF
:100F600004F082F904F07AFB0546002020706570D9
:100F7000280AA070280CE070280E2071044870BD6B
:100F8000FF2020704FF00110F9E70000C01300208F
:100F9000050001002DE9F04704460E46002006F842
:100FA000010B4FF001084FF0010914F801AB14E0F8
:100FB00014F8017B32462146384604F023FC07F042
:100FC0003F0505B94025E81DC5082C44681C804430
:100FD00007F0800008B12E44A944BAF10000AAF13C
:100FE000010AE5D1484668F31F40BDE8F0870000DC
:100FF0002DE9F04F87B005460C4606950020049079
:1010000000260594A41CE44908708146039015F855
:10101000011BE248C175C07DE049897D884200DB43
:10102000ABE115F801BB4AE115F8017B07F00100BF
:1010300008B10B2000E00A20824607F002000028D9
:1010400079D00398002846D0D448B0F80A80D1451A
:1010500014D107F0100088B900BF6946384604F083
:1010600021FC0646022E24D1B8F10000A8F10108A7
:101070001FD0C94800780028EFD01AE0B9F10A0F54
:1010800004D04FF00A09484604F0EEF800BF694664
:101090000E2004F007FC0646022E08D1B8F100002D
:1010A000A8F1010803D0BC4800780028EFD0002048
:1010B0000390012E00D006E1009804F8010B00987F
:1010C000000A04F8010B0098000C04F8010B0098CA
:1010D000000E04F8010B07F01000002860D02878FB
:1010E000697840EA0120A97840EA0140E97840EABD
:1010F000016002902D1DA94880890190D14503D03F
:10110000D146484604F0B0F8A448B0F80A8000BFC1
:101110000021384604F0C6FB0646022E08D1B8F17D
:101120000000A8F1010803D09B4800780028EFD008
:10113000012E01D0C7E056E000BF9848B0F80A8001
:1011400000BF6946384604F0ADFB0646022E08D1C2
:10115000B8F10000A8F1010803D08F4800780028FA
:10116000EFD0012E00D00EE08C48006900990840B5
:101170000299884207D00198411E019118B1864812
:1011800000780028D9D000BF844800690099084041
:101190000299884201D046F01006012E22D092E03A
:1011A000039800281ED1D14503D0D146484604F00B
:1011B0005BF87A48B0F80A8000BF0021384604F096
:1011C00071FB0646022E08D1B8F10000A8F1010813
:1011D00003D0714800780028EFD0012E00D072E0D3
:1011E0000120039062E0039878B3B9F10A0F04D0AC
:1011F0004FF00A09484604F037F86848B0F80A800A
:1012000000BF69460E2004F04DFB0646022E08D1B1
:10121000B8F10000A8F1010803D05F480078002869
:10122000EFD0012E00D04EE0009804F8010B00989A
:10123000000A04F8010B0098000C04F8010B009858
:10124000000E04F8010B002003902878697840EA2A
:101250000120A97840EA0140E97840EA0160009065
:101260002D1D07F0200020B14C4800990161012696
:101270001CE0D14503D0D146484603F0F5FF47486E
:10128000B0F80A8000BF6946384604F00BFB0646FA
:10129000022E08D1B8F10000A8F1010803D03E48A1
:1012A00000780028EFD0012E00D00CE00498401CFC
:1012B00004903948007800B105E0ABF1010BBBF1B7
:1012C000000F7FF4B1AE00BF0CE015F8017B07F012
:1012D000020020B107F0100010B12D1D00E02D1DFF
:1012E000ABF1010BBBF1000FEFD1012E44D1B9F1ED
:1012F0000A0F04D04FF00A09484603F0B5FF0398DF
:1013000030B32648B0F80A8000BF69460E2004F0CA
:10131000C9FA0646022E08D1B8F10000A8F101086A
:1013200003D01D4800780028EFD0012E00D024E023
:10133000009804F8010B0098000A04F8010B0098CB
:10134000000C04F8010B0098000E04F8010B13E0E8
:101350001248B0F80A8000BF00210E2004F0A2FA63
:101360000646022E08D1B8F10000A8F1010803D00A
:10137000094800780028EFD000BF0498C1B2059852
:101380000170059846700598211A0698281A41EAB6
:10139000004007B0BDE8F08F50040020C0130020CB
:1013A0002DE9FC5F04460D464FF0000B0026A846D1
:1013B000ED1C00206049087014F8011B5F48C175DE
:1013C000C07D5E49897D884200DBA9E02078617894
:1013D00040EA0127A41C07B9A2E014F801AB0AF007
:1013E000010008B10B2000E00A200090009803F0F3
:1013F0003BFF0AF0020000284DD05048B0F80A9098
:1014000000BF0021504604F04DFA0646022E08D1D6
:10141000B9F10000A9F1010903D04748007800287C
:10142000EFD0012E00D07BE030E03FB900980A28D1
:1014300002D00A2003F018FF4FF00E0A3F48B0F820
:101440000A9000BF01A9504604F02CFA0646022E6D
:1014500008D1B9F10000A9F1010903D0364800789C
:101460000028EFD0012E00D05AE0019805F8010BBA
:101470000198000A05F8010B0198000C05F8010B12
:101480000198000E05F8010B0BF1010B381EA7F1B6
:101490000107CAD143E024E02078617840EA0120C6
:1014A000A17840EA0140E17840EA01600190241D02
:1014B0002248B0F80A9000BF01A9504604F0F2F9A2
:1014C0000646022E08D1B9F10000A9F1010903D0A6
:1014D000194800780028EFD0012E00D020E00BF151
:1014E000010B381EA7F10107D6D100980A2802D0B7
:1014F0000A2003F0B9FE1148B0F80A9000BF00219D
:101500000E2004F0CFF90646022E08D1B9F10000F2
:10151000A9F1010903D0084800780028EFD000BFE6
:1015200088F800B04FEA1B2088F8010088F80260B4
:10153000A5EB0800BDE8FC9F50040020C01300206C
:1015400070B504460D4621780F48C175C07D0E491F
:10155000897D884203DBFF202870012070BD0820B0
:1015600003F082FE6078A17840EA0120E17840EA49
:101570000140217940EA0166304604F045FD002033
:1015800028700120EAE70000C013002070B505466E
:101590000E462878802807D328789F2804D831461B
:1015A000284600F0AEF870BD287806F8010B15F853
:1015B000010B1D2871D2DFE800F00F181E245E64B5
:1015C0006A9A71292F9A9A9A9A9A343A40464C52BA
:1015D00058777D83898F94002878711CFFF744FC2D
:1015E0000446347004F10210DDE731462846FFF767
:1015F00015FC044681E031462846FFF79FFB044670
:101600007BE03046FFF7E0FB044676E031462846B3
:10161000FFF7B6FB044670E0304600F0B2F804462F
:101620006BE03146284600F0A7FB044665E03146F2
:10163000284600F065FB04465FE03146284600F08E
:101640009BFC044659E03146284600F0A3F80446C6
:1016500053E031462846FFF79DFC04464DE03146F5
:101660002846FFF73FFC044647E031462846FFF78F
:1016700065FC044641E03146284600F00DFD044675
:101680003BE03146284600F0B3FC044635E03146E5
:10169000284600F0CFFC04462FE028E031462846DB
:1016A00000F012FD044628E03146284607F070FBA2
:1016B000044622E03146284607F00AFB04461CE0B7
:1016C0003146284607F03EFA044616E031462846E1
:1016D00007F066FA044610E0304607F031FB044696
:1016E0000BE03146284607F08BFA044605E0FF2060
:1016F00006F8010C4FF0011055E700BF04F101108E
:1017000051E710B502464FF00110137801F8013B84
:1017100012F8013B803B202B31D2DFE803F010119F
:1017200012131415161718191A1B1C1D1E1F202121
:1017300022232425262728292A2B2C2D2E2F1EE074
:101740001DE01CE01BE01AE019E018E017E016E0CD
:1017500015E014E013E012E011E010E00FE00EE0FD
:101760000DE00CE00BE00AE009E008E007E006E02D
:1017700005E004E003E002E001E000E000BF00BF9C
:1017800010BD014600BF01204870002008700220F3
:101790007047000010B50246137803F00300401CA8
:1017A000054C2075C3F3800403484475002008707D
:1017B0004FF0011010BD0000C01300202DE9F04FC4
:1017C00087B005460C460695002005900026A246E7
:1017D000A41CE0490870834604906D1C15F8019B19
:1017E00050E115F8017B07F0020000287ED0BBF124
:1017F000000F3DD0D848B0F80A8007F0110001284A
:1018000011D100BF01A9384606F0BAFB0646022EE8
:101810001CD1B8F10000A8F1010817D0CD4800781C
:101820000028EFD012E000BF01A90E2006F0A8FBAF
:101830000646022E08D1B8F10000A8F1010803D035
:10184000C44800780028EFD04FF0000B012E00D0E4
:101850001CE1019804F8010B0198000A04F8010B3F
:101860000198000C04F8010B0198000E04F8010B1C
:1018700007F0100000285ED02878697840EA01203F
:10188000A97840EA0140E97840EA016003902D1D03
:10189000B1488089029007F00100B0B1AE48B0F8BD
:1018A0000A8000BF0021384606F06AFB0646022E79
:1018B00008D1B8F10000A8F1010803D0A5480078CC
:1018C0000028EFD0012E00D0E0E000BFA248B0F821
:1018D0000A8000BF01A9384606F052FB0646022ED8
:1018E0000AD1B8F10000A8F1010800E069E003D0D6
:1018F000984800780028EDD0012E00D00EE09648E0
:101900000069019908400399884207D00298411E56
:10191000029118B18F4800780028D7D000BF8E48B8
:101920000069019908400399884201D046F01006E9
:10193000012E43D0AAE08848B0F80A8007F00100E1
:10194000C8B1BBF1000F39D100BF0021384606F005
:1019500017FB0646022E08D1B8F10000A8F10108D5
:1019600003D07C4800780028EFD0012E00D08DE015
:101970004FF0010B22E000BF01A9384606F000FB42
:101980000646022E08D1B8F10000A8F1010803D0E4
:10199000704800780028EFD0012E00D076E0019842
:1019A00004F8010B0198000A04F8010B0198000CDF
:1019B00004F8010B0198000E04F8010B00200490BC
:1019C00057E0BBF1000F27D06348B0F80A8000BF92
:1019D00001A90E2006F0D4FA0646022E08D1B8F16D
:1019E0000000A8F1010803D05A4800780028EFD081
:1019F000012E00D04AE0019804F8010B0198000A7A
:101A000004F8010B0198000C04F8010B0198000E7A
:101A100004F8010B4FF0000B2878697840EA0120A8
:101A2000A97840EA0140E97840EA016001902D1D63
:101A300007F0200020B1484801990161012618E013
:101A40004548B0F80A8000BF01A9384606F098FA68
:101A50000646022E08D1B8F10000A8F1010803D013
:101A60003C4800780028EFD0012E00D00EE0012085
:101A700004900598401C05903648007800B105E0B8
:101A8000A9F10109B9F1000F7FF4ABAE00BF0CE082
:101A900015F8017B07F0020020B107F0100010B12B
:101AA0002D1D00E02D1DA9F10109B9F1000FEFD1A5
:101AB000012E3FD1BBF1000F26D02748B0F80A8095
:101AC00000BF01A90E2006F05BFA0646022E08D1DF
:101AD000B8F10000A8F1010803D01E4800780028E2
:101AE000EFD0012E00D026E0019804F8010B0198F8
:101AF000000A04F8010B0198000C04F8010B01988E
:101B0000000E04F8010B15E0049898B11248B0F8E3
:101B10000A8000BF00210E2006F032FA0646022E8F
:101B200008D1B8F10000A8F1010803D009480078F5
:101B30000028EFD000BF05988AF800008AF80160FD
:101B4000A4EB0A010698281A41EA004007B0BDE854
:101B5000F08F000050040020C01300202DE9F84F42
:101B600004460D464FF0000B0026A846ED1C002051
:101B700056490870641C2078617840EA012AA41C48
:101B8000BAF1000F00D195E014F8017B07F00200D4
:101B900000284FD007F00100B0B14D48B0F80A90CE
:101BA00000BF0021384606F0EBF90646022E08D1A8
:101BB000B9F10000A9F1010903D0444800780028D8
:101BC000EFD0012E00D075E02EE0BAF1000F03D166
:101BD00007F0010000B10E273D48B0F80A9000BFA1
:101BE0006946384606F0CCF90646022E08D1B9F10E
:101BF0000000A9F1010903D0344800780028EFD093
:101C0000012E00D056E0009805F8010B0098000A5C
:101C100005F8010B0098000C05F8010B0098000E68
:101C200005F8010B0BF1010BBAF10000AAF1010A52
:101C3000CBD13EE024E02078617840EA0120A17811
:101C400040EA0140E17840EA01600090241D20480C
:101C5000B0F80A9000BF6946384606F091F906468A
:101C6000022E08D1B9F10000A9F1010903D01748EB
:101C700000780028EFD0012E00D01BE00BF1010B03
:101C8000BAF10000AAF1010AD5D11148B0F80A90C2
:101C900000BF00210E2006F073F90646022E08D17F
:101CA000B9F10000A9F1010903D008480078002823
:101CB000EFD000BF88F800B04FEA1B2088F8010081
:101CC00088F80260A5EB0800BDE8F88F50040020FA
:101CD000C013002038B504460D466078A17840EA6C
:101CE0000120E17840EA0140217940EA016000905A
:101CF0006946002006F044F900202870012038BD14
:101D000030B502460C461078557840EA05209578A3
:101D100040EA0540D57840EA05631BB9FF202070F2
:101D2000124830BD12480068B3EB900F04D3012075
:101D3000104D6870686014E000200E4D6870581EE9
:101D40000B4D2D6800EB5500B0FBF3F1022905D9CE
:101D5000891E881C0325B0FBF5F100E00121054830
:101D60004160002020700148DBE700000100040012
:101D700044020020C01300202DE9F04706468846A3
:101D800034787578B078F17840EA0120317940EA0A
:101D90000140717940EA016705F00100D8B104F013
:101DA000010058B100BF6D48406840F000706B49B9
:101DB000486008156A49086000BF0CE000BF67482A
:101DC000406840F000706549486008156449091D85
:101DD000086000BF00BF05F0020028B304F0020055
:101DE00080B100BF5D48406840F000705B494860CA
:101DF0000846406840F0007048604815584908603F
:101E000000BF11E000BF5548406840F000705349E2
:101E100048600846406840F00070486048155049E6
:101E2000091D086000BF00BF05F0040070B1C4F3D5
:101E3000870000F0010119B140214A4A116003E016
:101E40004021484A121D116000BF00BF05F020006C
:101E500018B1C4F3471000BF00BF05F0800018B1EF
:101E6000C4F3C7100EF0ECFB002F56D03E4887425B
:101E700000D9074600BF00204FF0E02188613B48B1
:101E800000683B49B0FBF1F078434FF0E021486136
:101E90000520086100BF00BF05F0010020B105F07A
:101EA00053F8604000B128E005F0020028B105F0C9
:101EB0005BF980EA540000B11FE005F0040028B18E
:101EC00005F07AF980EA940000B116E005F02000F0
:101ED00028B100BF002080EA541000B10DE005F0E9
:101EE000800048B100BF1E480838006800F00100BB
:101EF00080EAD41000B100E007E000BF4FF0E0201E
:101F00000069C0F300400028C6D000BF00BF002019
:101F10004FF0E021086100BF00BF05F015F88146D1
:101F200005F022F949EA400905F046F949EA80013D
:101F30000C4808380068C0F3C01041EAC000002116
:101F400040EA411106480838006800F0010041EA03
:101F5000C01488F800400748BDE8F0870000014041
:101F600010080140100C0140C0C62D0044020020A2
:101F700040420F000100060070B504460E4614F8FA
:101F8000015B0DB94FF480752146284606F084FDAB
:101F900000203070E81DC508681C0004401C70BD9E
:101FA00010B500200F49087048700F4800684008BD
:101FB0000E49B0FBF1F0801E0A494860002008720B
:101FC0006421084841810021818101610120054986
:101FD000087500210348417500200249887505F005
:101FE00051F910BDC01300204402002080969800D3
:101FF00070B505460E460E480078012802D002282A
:102000000CD105E031462846FFF7D8FB04460BE02B
:1020100031462846FEF7ECFF044605E031462846E7
:10202000FEF7E0FE044600BF00BF204670BD000082
:10203000C013002070B505460E46164800780128EA
:1020400002D002280CD105E031462846FFF786FD74
:1020500004460BE031462846FFF7A2F9044605E0A6
:10206000002030707070B070032400BF00BFE878AB
:1020700000F0020010B144F4802408E06878A978E8
:1020800040EA0120042101EB800044EA004420469C
:1020900070BD0000C013002002461078084B187273
:1020A0005078937840EA032305484381D078137928
:1020B00040EA0323024883810020087001487047EA
:1020C000C01300200100050070B506460D460D48FE
:1020D0000078012802D002280CD105E029463046BC
:1020E000FFF7F8FD044609E029463046FFF728FAD5
:1020F000044603E0FF202870012400BF00BF44F421
:10210000A02070BDC01300207047000010B5054826
:10211000006800F00F04034844602046FFF7F4FF16
:1021200010BD0000000002407047000010B50548D7
:102130000068C0F303142001024948602046FFF7FD
:10214000F3FF10BD000002407047000010B50548C5
:102150000068C0F303242002024948602046FFF7CC
:10216000F3FF10BD000002407047000010B50548A5
:102170000068C0F303342003024948602046FFF79B
:10218000F3FF10BD000002407047000010B5054885
:102190000068C0F303442004024948602046FFF76A
:1021A000F3FF10BD0000024010B50446014808F0DE
:1021B0003DFE10BD6C0F010810B505480068C0F366
:1021C00003542005024948602046FFF7EDFF10BD8B
:1021D0000000024010B50446014808F0C7FF10BDDA
:1021E0006C0F010810B505480068C0F303642006B1
:1021F000024948602046FFF7EDFF10BD0000024095
:102200007047000010B50548006800F00F0403484F
:10221000001D04602046FFF7F3FF10BD00040240DC
:102220007047000010B506480068C0F30314200191
:102230000349091D08602046FFF7F2FF10BD0000AA
:10224000000402407047000010B506480068C0F363
:10225000032420020349091D08602046FFF7F2FF0E
:1022600010BD00000004024010B50C480068C0F327
:10227000033434B120030949091D0860204600F0E9
:102280000FF806480068C0F3034434B12004034942
:10229000091D0860204600F004F810BD000402404B
:1022A0007047704770B505460C46012D02D0022DCF
:1022B00071D171E06A48406940F0010068494861A5
:1022C000082C60D2DFE804F05F04101C293643506C
:1022D0000020644988600F2048600B2004F026FB32
:1022E0000B2004F03BFB4EE000205E49C861F0206B
:1022F00048600C2004F01AFB0C2004F02FFB42E095
:102300000020584908634FF4706048600D2004F0C5
:102310000DFB0D2004F022FB35E0002051494864FC
:102320004FF4704048600E2004F000FB0E2004F0D3
:1023300015FB28E000204B4988654FF47020486069
:102340000F2004F0F3FA0F2004F008FB1BE000203C
:102350004449C8664FF470004860102004F0E6FA63
:10236000102004F0FBFA0EE000203E4980310860A6
:102370004FF070603B494860112004F0D7FA1120FB
:1023800004F0ECFA00BF00BF0120A04036490978F4
:1023900008433549087061E03148406940F0020067
:1023A0002F494861062C50D2DFE804F04F03101F7C
:1023B0002F3F00202D4908600F20091F086038209A
:1023C00004F0B4FA382004F0C9FA3EE000202749AE
:1023D00014310860F0202549091F0860392004F0F5
:1023E000A5FA392004F0BAFA2FE000201F4928315D
:1023F00008604FF470601D49091F08603A2004F01E
:1024000095FA3A2004F0AAFA1FE0002017493C315F
:1024100008604FF470401549091F08603B2004F024
:1024200085FA3B2004F09AFA0FE000200F49503162
:1024300008604FF470200D49091F08603B2004F02C
:1024400075FA3B2004F08AFA00BF00BF0120A040CB
:102450000749097808430649087000BF00BF70BDEE
:102460000010024000000240A304002008040240C3
:10247000A404002070B505460C46012D02D0022DA3
:102480004ED14EE04F48007800B970BD082C37D2CD
:10249000DFE804F036040B121920272E0B2004F07D
:1024A00051FA0020484988602AE00C2004F04AFADA
:1024B00000204549C86123E00D2004F043FA0020C4
:1024C000414908631CE00E2004F03CFA00203E491C
:1024D000486415E00F2004F035FA00203A49886579
:1024E0000EE0102004F02EFA00203749C86607E0FD
:1024F000112004F027FA002033498031086000BF22
:1025000000BF0120A0402F49097881432D48017068
:10251000007828B92D48406920F001002B49486116
:102520004CE02B48007800B9AFE7062C35D2DFE845
:1025300004F034030A121A27382004F003FA0020AA
:102540002449086029E0392004F0FCF900202149E1
:102550001431086021E03A2004F0F4F900201D490C
:102560002831086019E01A48007800F0200010B9FE
:102570003B2004F0E7F9002016493C3108600CE0EC
:102580001348007800F0100010B93B2004F0DAF98D
:10259000002010495031086000BF00BF0120A0405A
:1025A0000B49097881430A480170007828B9074827
:1025B000406920F002000549486100BF00BF00BF2C
:1025C00063E70000A3040020000002400010024066
:1025D000A40400200804024000F0805111B1034916
:1025E000086001E0024948607047000004040240AE
:1025F0000000024021B1026842F00102026004E0E2
:1026000002684FF6FE731A400260704701684FF689
:10261000FE72114001600021016041608160C16073
:102620004B49884208D14A490839496841F00F01AD
:10263000474A083A51608AE045491431884208D136
:1026400043490839496841F0F001414A083A51606C
:102650007DE03F492831884208D13D490839496821
:1026600041F470613A4A083A516070E038493C31AF
:10267000884208D136490839496841F47041344AE2
:10268000083A516063E032495031884208D13049FC
:102690000839496841F470212D4A083A516056E0E2
:1026A0002B496431884208D129490839496841F4E5
:1026B0007001274A083A516049E02549783188423B
:1026C00008D123490839496841F07061204A083A25
:1026D00051603CE01F49884206D1011F096841F062
:1026E0000F01021F116032E01A491431884208D1EB
:1026F0001849091F096841F0F001164A121F1160BC
:1027000025E014492831884208D11249091F096877
:1027100041F470610F4A121F116018E00D493C31FD
:10272000884208D10B49091F096841F47041094AE0
:10273000121F11600BE007495031884207D105494B
:10274000091F096841F47021024A121F1160704785
:1027500008000240080402400146486880B2704701
:102760001AB103680B43036002E003688B43036004
:10277000704710B50022026847F6F0739A430C6A5E
:102780008B6823430C6923434C6923438C6923439F
:10279000CC6923434C6A23438C6A23431A43026067
:1027A000CB6843600B6883604B68C36010BD4160B9
:1027B000704700002DE9F0472848006800F1100537
:1027C0002E8826480068077AD6B9042F18D12448E5
:1027D000007801280FD100212248006880B2801CB7
:1027E000214A42F8101030202049088000BF002004
:1027F0001B49087003E0072710201C49088027E0C8
:10280000AC88A64201D8042000E002200746B4426A
:1028100000D93446A0B2A96888478046002002F05B
:1028200027FA8146A2B2494640460AF051FAA1B2BF
:10283000002006F0C3FB2888001B288068882044FD
:10284000688030200949088000020949088000BFDB
:10285000024909680F72BDE8F08700003C040020BF
:1028600036040020505C0040006000404E04002010
:102870004C0400202DE9F0412848006800F11004C4
:102880002688A068C0B1BEB1A588B54200D935463A
:10289000A8B2A168884707462088401B208060882E
:1028A00028446080002002F0C1F98046AAB2414667
:1028B000384604F09FFC00BF208850B14FF44050D0
:1028C000174908800021084606F078FB302015499A
:1028D00008802088A188884204DB03200F4909680A
:1028E000087218E02088002804DD05200B490968DB
:1028F000087210E0208870B906200849096808723B
:1029000000210948006880B2801C084A42F8101073
:10291000302004490880BDE8F08100003C0400201C
:102920004C0400204E040020505C00400060004039
:102930002DE9F84F9B48006845780027BA46062DD8
:102940001BD198480068007800F07F00002813D160
:10295000944909688878012803D193490968CF69A7
:102960000AE0022803D1904909680F6A04E00328AD
:1029700002D18D4909684F6A94E0002D64D18948DD
:102980000068408800285FD186480068C088022817
:102990005AD1844800680079002855D181480068E0
:1029A000007800F07F0028B97E480068808808B968
:1029B0007E4F77E07B480068007800F07F000128B8
:1029C00010D1784909684879774909688A690021EE
:1029D0009047002866D173480068807A002861D04B
:1029E000724F5FE06F480068007800F07F000228B7
:1029F00058D16C480068407900F00F0669480068BB
:102A0000407900F0700967480068407900F0800064
:102A100038B1674901EB8600D0F8000C00F03008AF
:102A200006E0634901EB8600D0F8000C00F4405842
:102A300060480078B04235D9B9F1000F32D1B8F111
:102A4000000F2FD0594F2DE0082D07D155480068B1
:102A5000007800F07F0028BB574F23E00A2D21D1DA
:102A600050480068007800F07F0001281AD14D48D6
:102A70000068807AB0B14B480068408890B94948F6
:102A80000068007970B947480068C088012809D1FA
:102A9000444909684879444909688A69002190478E
:102AA00000B9464F57B13F480068A0F812A03D4812
:102AB000006887610020B84700240FE0394A126897
:102AC0005078394A1268116988470446032C05D1A9
:102AD0000920344909680872BDE8F88F3148006858
:102AE000008A4FF6FF71884204D109202D490968F8
:102AF0000872F1E7022C03D02A480068008A20B946
:102B00000820284909680872E6E726480068007826
:102B100000F08000E0B323480068C088009021489E
:102B20000068008A0099884204D91E490098096803
:102B3000088223E01B480068008A1A490968C9888E
:102B400088421BDA17480068008A1749096891F81B
:102B50002C10884203DA0020194908700EE0114851
:102B60000068008A1049096891F82C1090FBF1F276
:102B700001FB120010B90120114908700A480068D1
:102B800090F82C10074800688182FFF713FE07E0D9
:102B9000FFE7032003490968087200030949088018
:102BA00000BF99E73C040020400400208D940008F9
:102BB000005000409C03002011940008619400081C
:102BC000360400204C040020094909684FF47A7249
:102BD000B1FBF2F1891C0322B1FBF2F1484301463B
:102BE0000A4600BF00BF531E1A1EFCD100BF70472B
:102BF0004402002001E00DF051FCFCE710B5002478
:102C00000EE00C490A5D222101EBC401C8B2012388
:102C1000194604F0A1F80F200BF034F8601CC4B280
:102C2000072CEEDB4FF47A700BF02CF803F080FFEA
:102C300010BD0000240200201FB5FC48FC4988613B
:102C4000FF20C861FBA00BF000FFFEA1FE480BF0C7
:102C50002AFD00283DD1F649FB480BF062FE002812
:102C600037D1F349F8480BF05CFEF14880690290D7
:102C7000FDF7BCFA0390039810B3039807280BDA0A
:102C800001200090EA48806901230246194602901B
:102C90002D2004F09BF81BE0002001900290E448F6
:102CA000806907220146009001A8FDF793FA0120F0
:102CB000034601AA014600902D2004F087F807E0A2
:102CC00001200346E1A2014600902D2004F07EF889
:102CD00000BF00200123DFA2411E00902D2004F040
:102CE00075F800200123DEA2014600902D2004F09B
:102CF0006DF801200346DDA2014600906E2004F02D
:102D000065F801200346DAA2022100905C2004F05D
:102D10005DF80020D8490860D8490860D8490860A3
:102D200001F0D6B8D7480078002861D1D2480068B1
:102D300001285DD1002002900390BD488069CF49F1
:102D40000968084407220146019002A8FDF742FAEB
:102D50000120002302AA014600902D2004F036F83D
:102D6000C7480068401CC6490860C448006868B984
:102D7000084600684FF4FA61B0FBF1F201FB120063
:102D800020B9BE480068401CBC490860BC480068C7
:102D90004FF4FA71B0FBF1F201FB120088B9A448BC
:102DA00080690190FDF722FAC01FB4490968884282
:102DB00007D9B248006820B1B0480068401CAF494C
:102DC00008609B4880690190FDF710FAC01FAB496D
:102DD000096888420BD1AA48006841F28831B0FBEB
:102DE000F1F201FB120010B90020A449086000BFF5
:102DF00005F0F2FF012878D19F480068401C9E49E9
:102E0000086008460068042801D1002008609A483C
:102E1000006830B101284AD0022867D0032845D184
:102E2000D8E0834880690390FDF7E0F930B380482B
:102E300080690390FDF7DAF907280BD20120009092
:102E40007B48806901230246194603902D2003F038
:102E5000BDFF1BE0002002900390754880690722A7
:102E60000146019002A8FDF7B5F90120034602AA28
:102E7000014600902D2003F0A9FF07E00120034642
:102E800072A2014600902D2003F0A0FF012003460E
:102E900076A2014600906E2003F098FF01200346C1
:102EA00073A2022100905C2003F090FF0CE100204F
:102EB00072490860724908605D4880690390FDF7B7
:102EC00095F940B35A4880690390FDF78FF90728B8
:102ED0000DD201200090564880690023024601214E
:102EE00003902D2003F072FF1DE0EEE02CE00020A7
:102EF000029003904E48806907220146019002A883
:102F0000FDF768F90120002302AA014600902D2058
:102F100003F05CFF07E0012000234CA20146009073
:102F20002D2003F053FF0120034650A201460090DC
:102F30006E2003F04BFF012003464DA202210090BA
:102F40005C2003F043FFBFE0394880690390FDF740
:102F50004DF930B3364880690390FDF747F90728EB
:102F60000BD20120009032488069012302461946A5
:102F700003902D2003F02AFF1BE000200290039015
:102F80002B48806907220146019002A8FDF722F92B
:102F90000120034602AA014600902D2003F016FFEF
:102FA00007E00120034629A2014600902D2003F0EE
:102FB0000DFF012000232DA2014600906E2003F09A
:102FC00005FF012003462AA2022100905C2003F0A5
:102FD000FDFE79E0164880690390FDF707F918B304
:102FE000134880690390FDF701F907280BD20120EF
:102FF00000900F48806901230246194603902D2056
:1030000003F0E4FE4DE00020029003900848806940
:1030100007220146019002A8FDF7DCF801200346D3
:1030200002AA014600902FE032E00000EC090020E7
:1030300078070020303A2F77726974652E62696EC6
:1030400000000000303A0000980700204E554C4C1C
:103050000000000053454C454354204845580000AB
:103060002D2D2D2D2D2D2D2D2D2D00003E3E000022
:10307000464C415348000000EC010020F0010020C4
:10308000F4010020FA0100202D2003F09FFE08E04B
:1030900001200346AFF24C02014600902D2003F0C0
:1030A00095FE01200346AFF23C02014600906E20DF
:1030B00003F08CFE01200023AFF24C0202210090AD
:1030C0005C2003F083FE00BF00BF05F085FE0228F0
:1030D00040F0FE86F7480068012805D0022877D026
:1030E000032840F0F48640E30020F3490860F349E8
:1030F0000860F34880690390FDF778F8002868D0ED
:10310000EF49F0480BF00DFC01200346EEA201460A
:1031100000902D2003F05AFEE94880690390FDF7E6
:1031200065F807280BD201200090E548806900234C
:103130000246012103902D2003F048FE13E00020F9
:1031400002900390DE48806907220146019002A8A0
:10315000FDF740F80120002302AA014600902D202F
:1031600003F034FE00BF01200346AFF20012014617
:1031700000906E2003F02AFED1488069007840BBA1
:10318000AFF24011CF480BF08EFACD49CD480BF08D
:10319000C8FBCB49CB480BF0C4FB01200346CAA2B5
:1031A000014600902D2003F011FEC5488069039070
:1031B000FDF71CF807280DD201200090C048806957
:1031C00000230246012103902D2003F0FFFD15E0AE
:1031D0001EE01CE0002002900390B948806907229D
:1031E0000146019002A8FCF7F5FF0120002302AA86
:1031F000014600902D2003F0E9FD00BF01200346A9
:10320000AFF29812014600906E2003F0DFFDFBE361
:103210000020A84908600120AE49087003F088FC2E
:10322000AD4820231A4600210090084603F0A0FC78
:1032300000200123A9A2411E00902D2003F0C6FD0D
:1032400000200123AFF2E812014600902D2003F088
:10325000BDFD01200090A448A449097850F8210040
:1032600001230246194603902D2003F0AFFD0120F3
:103270000346AFF20822014600906E2003F0A6FD3F
:10328000012003469AA2022100905C2003F09EFDDB
:1032900068E205F0A1FD01287DD186480068401C48
:1032A0008449086008460068042801D100200860AD
:1032B0008048006830B101282CD0022852D0032861
:1032C00027D179E00120034680A2014600902D20FD
:1032D00003F07CFD0120009083488449097850F870
:1032E000210001230246194603902D2003F06EFDB4
:1032F00001200346AFF28C22014600906E2003F0BD
:1033000065FD012003467AA2022100905C2003F0B3
:103310005DFD79E0012003466CA2014600902D205E
:1033200003F054FD012000906F487049097850F86F
:10333000210000230246012103902D2003F046FDC9
:1033400001200346AFF2DC22014600906E2003F01C
:103350003DFD0120034666A2022100905C2003F09F
:1033600035FD51E00120034658A2014600902D2072
:1033700003F02CFD012000905B485C49097850F86F
:10338000210001230246194603902D2003F01EFD63
:103390000120002300E03BE0AFF230320146009014
:1033A0006E2003F013FD0120034651A2022100907C
:1033B0005C2003F00BFD27E00120034643A20146F9
:1033C00000902D2003F002FD01200090464847495F
:1033D000097850F8210001230246194603902D2058
:1033E00003F0F4FC01200346AFF280320146009066
:1033F0006E2003F0EBFC012000233DA2022100908F
:103400005C2003F0E3FC00BF00BF64200AF03AFC3C
:1034100005F0E2FC02286FD126480068012804D09C
:1034200002286AD0032869D1FCE030480078401CAB
:103430002E49087008460078092801D1002008703C
:103440000120002321A2014600902D2003F0BEFCA4
:103450000120009024482549097850F821000023D4
:103460000246012103902D2003F0B0FC1F48007894
:10347000092858D2DFE800F0050A0F141943484D17
:1034800052004FF496500CF0B5FE4CE04FF416503D
:103490000CF0B0FE47E04FF461500CF0ABFE42E0A0
:1034A0004FF496400CF0A6FE3DE04FF416400CF0B1
:1034B000A1FE38E0EC010020F0010020F401002022
:1034C000780700209807002020202020202020209E
:1034D00020200000FA0100204F0100204445425501
:1034E00047204D4F44450000FC01002020020020F1
:1034F000454E5445520000002DE116E02AE14FF4FC
:1035000061400CF077FE0EE04FF4E1300CF072FEFB
:1035100009E04FF47A300CF06DFE04E04FF46120C6
:103520000CF068FE00BF00BF14E10020FE490870E7
:1035300003F0FEFAFD4821231A46002100900846B8
:1035400003F016FBAFF20451F9480BF0ACF898BB4E
:10355000F849F7480BF0E5F970BBF649F4480BF071
:10356000E0F9F44880690290FCF740FE039003986C
:1035700018B3039807280BDA01200090ED48806902
:1035800001230246194602902D2003F01FFC1DE086
:10359000002001900290E7488069072201460090D0
:1035A00001A8FCF717FE0120034601AA014600907E
:1035B0002D2003F00BFC09E009E001200346AFF2E7
:1035C0007452014600902D2003F000FC00BF002043
:1035D0000123AFF28052411E00902D2003F0F6FB34
:1035E00000200123AFF28852014600902D2003F005
:1035F000EDFB01200346AFF28C52014600906E2095
:1036000003F0E4FB01200346AFF29C52022100903C
:103610005C2003F0DBFB0020C74908600120C7499C
:10362000087097E00020C44908600220BE49087075
:103630000120C349087003F07BFA01200346C1A2B0
:1036400002210090622003F0C1FB3CE005F0C4FBC6
:1036500001282FD1B8480068401CB74908600846C7
:10366000006801280FD10346B8A202210090622011
:1036700003F0ACFB01200023B2A2022100906220E3
:1036800003F0A4FB0FE001200346B0A2022100904A
:10369000622003F09BFB01200346AAA202210090B6
:1036A000622003F093FBA4480068022802D10020A6
:1036B000A149086005F090FB022804D19E480068EB
:1036C000012800D100E0C1E700BF01209649087041
:1036D0000020994908609A49087003F029FA9D482A
:1036E00020231A4600210090084603F041FA0020EA
:1036F0000123AFF21822411E00902D2003F066FB3B
:1037000000200123AFF2A862014600902D2003F0B3
:103710005DFB0120009090489049097850F8210005
:1037200001230246194603902D2003F04FFB012090
:103730000346AFF2C862014600906E2003F046FBDC
:1037400001200346AFF25822022100905C2003F0D2
:103750003DFB00BF00BF7948007818B100207749D1
:10376000087000E095E500BFB1E3724880697CA174
:103770000390FCF71DFD002876D003206A490870ED
:1037800003F0D6F9694821231A4600210090084623
:1037900003F0EEF967488069012201460390724800
:1037A0000AF0BCFE00287DD1012370A2411E0090CA
:1037B0002D2003F00BFB5F488069039001F0FAFBBA
:1037C000012870D000200123AFF2043202210090C2
:1037D0002D2003F0FBFA0020012367A202210090B4
:1037E0002D2003F0F3FA0020534908603DE005F076
:1037F000F3FA01282FD150480068401C4E49086058
:103800000846006801280FD1034650A2022100900B
:10381000622003F0DBFA012000234AA2022100907B
:10382000622003F0D3FA0FE00120034647A20221F1
:103830000090622003F0CAFA0120034641A202214F
:103840000090622003F0C2FA3B480068022802D1CF
:1038500000203949086005F0BFFA022805D1364832
:103860000068012801D101E0D3E1C0E700BF03F007
:103870005FF92E4821231A4600210090084603F0E4
:1038800077F9AFF640012A480AF00DFFB0BB29498D
:1038900027480BF046F888BB264925480BF041F82D
:1038A000244801E012E38AE080690290FCF79EFC64
:1038B0000390039818B3039807280BDA01200090AF
:1038C0001C48806901230246194602902D2003F00E
:1038D0007DFA1DE0002001900290164880690722C1
:1038E0000146009001A8FCF775FC0120034601AADF
:1038F000014600902D2003F069FA09E009E001205B
:103900000346AFF6B802014600902D2003F05EFAA0
:1039100000BF0020044908700123AFF6C802411E11
:1039200000902D202AE00000FA010020AA000020CB
:103930009807002078070020EC010020F801002003
:10394000F90100204241434B0000000020202020CC
:10395000000000004F010020FC0100202002002098
:103960002E68657800000000540500204845582066
:1039700020464C41534800004552520003F026FABD
:1039800000200123AFF62812014600902D2003F0FD
:103990001DFA01200346AFF62C12014600906E205E
:1039A00003F014FA01200346AFF63C120221009006
:1039B0005C2003F00BFA0020FE49086086E26420D8
:1039C0000AF060F900200123AFF20452194600907A
:1039D0002D2003F0FBF900200123AFF21452022145
:1039E00000902D2003F0F2F941E0F3A0006803906D
:1039F00000200123AFF23052194600902D2003F031
:103A0000E5F90120034600E061E2ECA2022100900A
:103A10002D2003F0DBF90020EA4908601AE003A832
:103A2000E8490968405C0290E648007800EB4000F5
:103A3000452101EB4000C0B2012301900221029A0E
:103A400003F08AF9C8200AF01DF9DE480068401C1E
:103A5000DC490860DB4800680328E0D30120034606
:103A6000D9A2022100902D2003F0B0F900BFD8A008
:103A700000F06EFC0028B8D0AFF648200AF0E5FF51
:103A800001200346AFF2441202210090622003F0AD
:103A90009DF90020C749086040E005F09DF9012824
:103AA00033D1C4480068401CC24908600846006819
:103AB000012811D10346AFF26C120221009062205E
:103AC00003F084F901200023AFF288120221009054
:103AD000622003F07BF911E001200346AFF294125B
:103AE00002210090622003F071F901200346AFF239
:103AF000AC1202210090622003F068F9AD48006822
:103B0000022802D10020AB49086005F065F90228BF
:103B100004D1A8480068012800D100E0BDE700BF3B
:103B200003F006F8AD4821231A460021009008460C
:103B300003F01EF8AFF6F421A9480AF0B4FD98BBD3
:103B4000A849A7480AF0EDFE70BBA649A4480AF0B0
:103B5000E8FEA44880690290FCF748FB03900398B4
:103B600018B3039807280BDA012000909D4880695C
:103B700001230246194602902D2003F027F91DE08B
:103B8000002001900290974880690722014600902A
:103B900001A8FCF71FFB0120034601AA0146009083
:103BA0002D2003F013F909E009E001200346AFF6E8
:103BB0006432014600902D2003F008F900BF002078
:103BC000894908700123AFF67432411E00902D2000
:103BD00003F0FCF800200123AFF67C320146009090
:103BE0002D2003F0F3F801200346AFF680320146A2
:103BF00000906E2003F0EAF801200346AFF6903201
:103C0000022100905C2003F0E1F80020694908607F
:103C10005CE174488069AFF6DC310390FCF7C8FAC8
:103C20000028F5D004207049087002F081FF6B482D
:103C300021231A4600210090084602F099FF6948A6
:103C4000806901220146039068480AF067FC002859
:103C5000DED1012366A2411E00902D2003F0B6F8AC
:103C60003FE055A00068039000200123AFF2A87246
:103C7000194600902D2003F0A9F8012003464FA219
:103C8000022100902D2003F0A1F800204D4908608A
:103C90001AE003A84B490968405C02904948007843
:103CA00000EB4000452101EB4000C0B20123019030
:103CB0000221029A03F050F8C82009F0E3FF4148BE
:103CC0000068401C3F4908603E4800680328E0D374
:103CD000012003463CA2022100902D2003F076F83B
:103CE00000BF40488069039000F032FB0028B8D044
:103CF00001200346AFF2B43202210090622003F0AB
:103D000065F800202B49086040E005F065F80128BF
:103D100033D128480068401C2649086008460068DE
:103D2000012811D10346AFF2DC320221009062205B
:103D300003F04CF801200023AFF2F832022100908A
:103D4000622003F043F811E001200346AFF2044281
:103D500002210090622003F039F801200346AFF2FF
:103D60001C4202210090622003F030F811480068E4
:103D7000022802D100200F49086005F02DF8022822
:103D800004D10C480068012800D100E0BDE700BF65
:103D900002F0CEFE114821231A4600210090084669
:103DA00002F0E6FEAFF664510D480AF07CFCE8BB79
:103DB0000C4923E0EC0100202E2E2E0057414954DF
:103DC00000000000E801002020202020202020000A
:103DD00077726974652E62696E000000AA00002087
:103DE0009807002078070020FA01002054050020E1
:103DF00042494E2020464C415348000035480AF0C5
:103E000090FD98B9344933480AF08BFD32488069F7
:103E10000290FCF7EBF90390039820B3039807286E
:103E20000DDA012000902C48806900E025E0012394
:103E30000246194602902D2002F0C8FF1CE0002027
:103E4000019002902448806907220146009001A851
:103E5000FCF7C0F90120034601AA014600902D207D
:103E600002F0B4FF08E001200346AFF620620146ED
:103E700000902D2002F0AAFF00BF00201749087013
:103E80000123AFF63062411E00902D2002F09EFF0C
:103E900000200123AFF63862014600902D2002F089
:103EA00095FF01200346AFF63C62014600906E206C
:103EB00002F08CFF01200346AFF64C620221009015
:103EC0005C2002F083FF00200549086000BF00BFAE
:103ED000FEF728BF9807002078070020FA0100208D
:103EE000EC0100201CB56248006880B161482223C3
:103EF0001A4600210090084602F03AFE00200123F5
:103F00005DA219460090262002F060FFAFE05D48F8
:103F100021231A4600210090084602F029FE0122C2
:103F200059A15C480AF0FAFA002871D101235AA27B
:103F3000411E00902D2002F049FF3BE059A000688F
:103F400001900020012358A2194600902D2002F074
:103F50003DFF0120034657A2022100902D2002F0D0
:103F600035FF00205549086017E001A9534B1B6835
:103F7000CA5C5249097801EB4101452303EB410139
:103F8000C8B20123022102F0E7FEC82009F07AFE40
:103F90004A480068401C49490860484800680328AE
:103FA000E3D30120034646A2022100902D2002F017
:103FB0000DFF00BF34A000F0CBF90028BED00120D7
:103FC000034641A202210090622002F0FFFE002081
:103FD0003F4908603DE004F0FFFE012830D13C4835
:103FE0000068401C3A49086008460068012810D162
:103FF000034638A202210090622002F0E7FE012071
:10400000002331A202210090622002F0DFFE10E0C6
:104010002BE0012003462FA202210090622002F033
:10402000D5FE0120034628A202210090622002F062
:10403000CDFE27480068022802D1002024490860EC
:1040400004F0CAFE022804D121480068012800D1EA
:1040500000E0C0E700BF02F06BFD0A4821231A46CA
:1040600000210090084602F083FDFEF7E5FD1CBD2F
:104070002C0400200000002055534220436F6E6E38
:1040800065637400AA0000204155544F2E62696E8A
:1040900000000000540500204155544F20464C417B
:1040A000534800002E2E2E002020202020202020EB
:1040B000202000005741495400000000E801002082
:1040C00020202020202020004241434B00000000FF
:1040D000EC010020202020200000000010B502F09C
:1040E00083FB10BD10B502F0B9FB10BD00200149E3
:1040F000086070474803002010B5002400BF03E0AB
:10410000002010490855641C0F4800788442F7DBF2
:10411000062000F09BFD0D4908600846006882B249
:104120004FF4E871074803F065F8062004F01CFF1F
:1041300006480068044908700846017801480CF0F8
:10414000BDF810BD281300204C03002044030020BC
:1041500030B500F00F010D4C04EB8103D3F8002CB7
:1041600000F0800343B148F6CF731340254605EBBA
:104170008104C4F8003C07E04CF68F731340034DF4
:1041800005EB8104C4F8003C30BD00000050004045
:1041900070B500F00F02104D05EB8204D4F8003C1E
:1041A00000F080045CB101F030045C4048F6BF755B
:1041B0002C40094E06EB8205C5F8004C0AE001F4DC
:1041C00040545C404BF68F752C40034E06EB820545
:1041D000C5F8004C70BD0000005000400149086067
:1041E0007047000014040140002123498279002A0D
:1041F0003AD00A46126803689A430B461A600A1DB1
:10420000126803689A430B1D1A60027911440A6808
:1042100003681A430A60184A0832126803689A430E
:10422000154B08331A601A1D126803689A43124B23
:104230000C331A604279102A0ED11A1F12680368D3
:104240001A430D4B08331A601A1D126803681A438B
:10425000094B0C331A600DE00749427911440A6892
:1042600003681A430A6005E0027911440A6803688A
:104270009A430A60704700000004014030B50446CC
:1042800004254FF4302000F071FA0546042D17D1B3
:104290000C48006940F002000A4908610846446180
:1042A000006940F0400008614FF4302000F05EFAF1
:1042B00005460448006941F6FD710840014908615E
:1042C000284630BD0020024004200B49C96801F097
:1042D000010109B101200EE00749C96801F004019C
:1042E00009B1022007E00449C96801F0100109B1D1
:1042F000032000E0042070470020024003480069CA
:1043000040F0800001490861704700000020024031
:1043100070B504460D460426F00200F027FA064662
:10432000042E11D10948006940F0010007490861D5
:104330002580F00200F01AFA06460448006941F6AA
:10434000FE71084001490861304670BD00200240FE
:104350002DE9FC5F834601225946DA480AF0DEF86F
:10436000D94908700846007800287DD10120D74936
:1043700008700020D64908600BF04CF9002874D072
:104380000BF042FE28B90BF02BFE20B10020BDE857
:10439000FC9F0020FBE70BF059FE0BF03BF90028D7
:1043A0007DD04FF000600BF0BFFD002878D10BF0FE
:1043B000A7FD002875D152E1C64B4FF48062C64973
:1043C000C0480AF0C7F9C3480088B0F5806F02DA28
:1043D0000020BE490870BE49096801F100604FF431
:1043E0008062BD490BF0C2FD00287DD1B549C86887
:1043F000FBF7E4FF04460D46B5480068FBF7DEFF17
:10440000064622462B46FBF76AFF80460022B34B46
:10441000FBF7F3FECDE90001FBF7DDFF8246BAF1C1
:104420000A0F1AD3BAF1140F17D2AD48006808B9B1
:10443000012000E00020AA49086000200123A9A271
:10444000194600902D2002F0C1FC00200123A6A2F5
:10445000022100902D2002F0B9FCBAF1140F1DD3F7
:10446000BAF11E0F1AD201E027E124E19C4800684E
:1044700008B9012000E000209949086000200123CC
:104480009AA2194600902D2002F0A0FC00200123E2
:1044900097A2022100902D2002F098FC02E008E192
:1044A00004E101E1BAF11E0F1AD3BAF1280F17D2B5
:1044B0008B48006808B9012000E0002088490860A6
:1044C000002001238BA2194600902D2002F07EFCD3
:1044D0000020012388A2022100902D2002F076FC0A
:1044E000BAF1280F1CD300E0B1E0BAF1320F17D2B5
:1044F0007B48006808B9012000E000207849086086
:10450000002001237DA2194600902D2002F05EFCC0
:10451000002001237BA2022100902D2002F056FCF6
:10452000BAF1320F1AD3BAF13C0F17D26C480068B7
:1045300008B9012000E0002069490860002001233B
:1045400071A2194600902D2002F040FC00200123AA
:104550006FA2022100902D2002F038FCBAF13C0F2E
:104560001AD3BAF1460F17D25D48006808B9012086
:1045700000E000205A4908600020012365A2194686
:1045800000902D2002F022FC0020012363A20221D2
:1045900000902D2002F01AFCBAF1460F1AD3BAF19E
:1045A000500F17D24E48006808B9012000E00020E3
:1045B0004B4908600020012359A2194600902D2084
:1045C00002F004FC0020012357A2022100902D20BC
:1045D00002F0FCFBBAF1500F1AD3BAF15A0F17D2FE
:1045E0003F48006808B9012000E000203C4908600D
:1045F000002001234AA2194600902D2002F0E6FB7C
:104600000020012349A2022100902D2002F0DEFBB0
:10461000BAF15A0F1AD3BAF1640F17D230480068B2
:1046200008B9012000E000202D4908600020012386
:104630003FA2194600902D2002F0C8FB0020012364
:104640003EA2022100902D2002F0C0FB01E00020DC
:104650009DE61F48006800F580601D4908601B4802
:10466000007800287FF4A8AE0AF0D4FFD0B1012072
:104670001B49086000200BF013F9642009F002FBCD
:10468000002001232EA2194600902D2002F09EFB4F
:10469000002001232DA2022100902D2002F096FB84
:1046A000012074E6002072E6002070E60BF090FC1A
:1046B00005E000206BE6002069E6002067E60020A8
:1046C00065E6000054050020D5010020E00100202F
:1046D000E401002022020020EB0A002000005940E3
:1046E000908121423D000000313025003D3D000019
:1046F000323025003D3D3D00333025003D3D3D3D00
:1047000000000000343025003D3D3D3D3D000000EF
:10471000353025003D3D3D3D3D3D00003630250016
:104720003D3D3D3D3D3D3D003730250038302500C5
:104730003D3D3D3D3D3D3D3D3D00000039302500C6
:104740003D3D3D3D3D3D3D3D3D3D0000444F4E45E1
:104750000000000002480349486003484860704771
:104760002301674500200240AB89EFCD00B502462A
:104770000423FFF7A9FD034603E0FFF7A5FD034669
:10478000521E012B01D1002AF7D102B90523184688
:1047900000BD000018B5002844D0C0F34211C0F39A
:1047A0000322214B9B6903F001032BB91E4B9B692C
:1047B00043F001031C4CA36100F48053A3B11B4BD5
:1047C000DB69009300F01F0301FA03F3009C9C4394
:1047D000009400F01F0302FA03F3009C23430093AC
:1047E000124C009BE3611DE0104B5B68009300F0EE
:1047F0001F0301FA03F3009C9C43009400F01F0385
:1048000002FA03F3009C2343009307210022009B3C
:1048100023EA01630093009B43EA02630093034C85
:10482000009B636018BD00000010024000000140C2
:1048300001461D48814204D11C488069C0F38000B4
:1048400070471B48814204D118488069C0F3C000FA
:10485000F6E71848814204D114488069C0F300107B
:10486000EEE71548814204D110488069C0F340103A
:10487000E6E71248814204D10C488069C0F38010F9
:10488000DEE70F48814204D108488069C0F3C010B8
:10489000D6E70C48814204D104488069C0F3002067
:1048A000CEE70020CCE700000008014000100240E5
:1048B000000C0140001001400014014000180140AC
:1048C000001C0140002001402DE9F0410246002576
:1048D0000026002000230024002791F803C00CF0DC
:1048E0000F0591F803C00CF0100CBCF1000F03D0C1
:1048F00091F802C04CEA050591F800C0BCF1000F28
:1049000031D0146800202BE04FF0010C0CFA00F3BA
:10491000B1F800C00CEA03069E4220D183004FF09C
:104920000F0C0CFA03F7BC4305FA03FC4CEA040431
:1049300091F803C0BCF1280F06D14FF0010C0CFA1E
:1049400000FCC2F814C00AE091F803C0BCF1480FA3
:1049500005D14FF0010C0CFA00FCC2F810C0401C4D
:104960000828D1D31460B1F800C0BCF1FF0F34DDCA
:10497000546800202EE000F1080C4FF0010808FAFE
:104980000CF3B1F800C00CEA03069E4221D183006B
:104990004FF00F0C0CFA03F7BC4305FA03FC4CEA8A
:1049A000040491F803C0BCF1280F05D100F1080CF4
:1049B00008FA0CF8C2F8148091F803C0BCF1480F53
:1049C00007D100F1080C4FF0010808FA0CF8C2F802
:1049D0001080401C0828CED35460BDE8F0812DE93A
:1049E000F04105460C46174698460F2C02D9002088
:1049F000BDE8F0812846FFF71BFF18B901212846C2
:104A000000F072F8B8F1000F10D1022F05D1E8685C
:104A10000121A1408843E86008E0032F06D127F078
:104A20000107E8680121A1400843E860082C01D291
:104A30002E4601E0083C2E1D3068A2000F21914057
:104A40008843306048EA8700A10088403168084305
:104A500030600120CCE70000F0B50A4600230024B6
:104A60000021002500F00046B6F1004F02D11D4E96
:104A7000F16901E01B4E7168C0F3034583B200F495
:104A80004016B6F5401F08D121F07061154E7668CA
:104A900026F07066134F7E6012E000F48016B6F5C3
:104AA000801F06D1032606FA05F4A14341F0706188
:104AB00006E0460D360103FA06F6B14341F0706197
:104AC00022B1460D360103FA06F6314300F00046E6
:104AD000B6F1004F02D1034EF16101E0014E716069
:104AE000F0BD000000000140002945D0454A904239
:104AF00006D1454A926942F00402434B9A6180E034
:104B0000424A904206D1404A926942F008023E4B26
:104B10009A6176E03E4A904206D13B4A926942F061
:104B20001002394B9A616CE03A4A904206D1364AFB
:104B3000926942F02002344B9A6162E0364A904218
:104B400006D1314A926942F040022F4B9A6158E0F7
:104B5000324A904206D12C4A926942F080022A4B96
:104B60009A614EE02E4A90424BD1274A926942F414
:104B70008072254B9A6144E0224A904206D1224A33
:104B8000926922F00402204B9A613AE01F4A904257
:104B900006D11D4A926922F008021B4B9A6130E04F
:104BA0001B4A904206D1184A926922F01002164B15
:104BB0009A6126E0174A904206D1134A926922F080
:104BC0002002114B9A611CE0134A904206D10E4A12
:104BD000926922F040020C4B9A6112E00F4A904217
:104BE00006D1094A926922F08002074B9A6108E0D7
:104BF0000B4A904205D1044A926922F48072024B1A
:104C00009A6170470008014000100240000C01400A
:104C1000001001400014014000180140001C014038
:104C2000002001404161704701617047014605481D
:104C3000006880B200EBC100001D034A32F810008A
:104C400080B27047505C004000600040014606485A
:104C5000006880B200EBC100801D044A32F81000E9
:104C6000C0F3090070470000505C00400060004045
:104C700001460548006880B200EBC100034A32F8E3
:104C8000100080B270470000505C0040006000409F
:104C90000D490978012910D10C4909680C4A12689C
:104CA000891A0C4A126888180A49096851B90749D3
:104CB0000968074A1268881A04E004490968044A26
:104CC0001268881A70470000570400205C04002016
:104CD000600400206404002010B5084B1B68C3F377
:104CE0000B02C2F58051054B1B68054C24681B1B49
:104CF000C3F58050884200D9084610BD5C040020EE
:104D000060040020084A1178127882F00102064BF4
:104D10001A70064A525C064B1B7842EA03000022D6
:104D2000024B5A54704700005A04002058040020D7
:104D30005704002010B50F4B18681B1D19681B1D68
:104D40001A68A8B10C4CA070030A2371030CA3715C
:104D5000030E2372A1720B0A23730B0CA3730B0EA9
:104D60002374A274130A2375130CA375130E2376F0
:104D700010BD0000E8F7FF1F280300202DE9F047D1
:104D800004460D464FF0FF0A2078D02872DB2078C9
:104D9000D7286FDC207805F8010B14F8010BD03808
:104DA000082868D2DFE800F0041215182133567283
:104DB0005648076805F8017B380A05F8010B380CDE
:104DC00005F8010B380E05F8010B81E0FFF7C2FC76
:104DD0007EE0FFF793FA7BE027683846FFF74EFA4C
:104DE000042801D04FF0FF0A72E0D4F80080A688B2
:104DF00006E018F8011BFF2902D04FF0FF0A04E07B
:104E0000301EA6F101018EB2F3D100BF60E0276829
:104E1000A688382E02DD4FF0FF0A1AE0A41D12E02A
:104E200014F8019B2EB114F8011B49EA0129701EE8
:104E300086B249463846FFF76BFA042802D04FF095
:104E4000FF0A05E0BF1C301EA6F101018EB2E7D1BA
:104E500000BF3DE0D4F80080A6883E2E02DD4FF072
:104E6000FF0A12E0002005F8010B09E026B998F8C6
:104E700000A005E030E027E018F8010B05F8010B71
:104E8000301EA6F101018EB2F0D121E000BF00BFBB
:104E900000BF00BF00BFBFF34F8F00BF00BF00BF08
:104EA0001B48006800F4E0601A490843001D1849D7
:104EB000086000BF00BF00BFBFF34F8F00BF00BF3F
:104EC00000BF00E000BFFDE76D1E4FF0FF0A00BF0E
:104ED00000BF85F800A017E00F48006890B10F4BA5
:104EE000DFF83CC0DCF800C003EB8C110D4BDFF8A1
:104EF00038C0DCF800C003EB8C10074B1B685A6805
:104F0000904701E0FF202870BDE8F087002004E012
:104F10000CED00E00000FA05340200204C350020C2
:104F20008C0400204C2500208404002072B61E4909
:104F3000086880F3088800BF01F0F6F9002412E049
:104F400001F062FA6420FDF73FFE01F055FA01F02E
:104F500035FA6420FDF738FE01F028FA4FF47A7034
:104F6000FDF732FE641C052CEADB00BF00BF00BF6A
:104F700000BF00BFBFF34F8F00BF00BF00BF0B4893
:104F8000006800F4E0600A490843001D0749086012
:104F900000BF00BF00BFBFF34F8F00BF00BF00BF07
:104FA00000E000BFFDE70000000000080CED00E09D
:104FB0000000FA052DE9F047ADF5926D0646002494
:104FC000402102A8FBF7E9F8A046A14600250122EE
:104FD00031469BA809F0A2FA13223DA112A809F0BC
:104FE0009DFA3EA000680190012003463CA20221E8
:104FF00000902D2001F0EAFE52E0781CC7B2642F29
:1050000019D101A90A5D04EB44014B2303EB4101D3
:10501000C8B20123022101F09FFE601CC4B2032C20
:1050200008DD0024012003462FA2022100904B201E
:1050300001F0CCFE00279DF808003A2804D000209B
:105040000DF5926DBDE8F0870DF10D00FBF7F6FD53
:1050500082460DF10B00FBF7F1FD0AEB00201FFA71
:1050600080F80DF10F00FBF7E9FD8146B9F1000F63
:1050700016D1414612A809F062F900250BE069003B
:10508000093102AA8818FBF7D9FD824612A909F056
:105090004EFB681CC5B202A8FBF7A8F8A842EED8E0
:1050A0009BAA402102A809F023F90028A5D10120DC
:1050B00003460FA2022100902D2001F087FE12A8C6
:1050C00009F00BF99BA809F008F90120B8E70000E6
:1050D00077726974652E62696E0000002E2E2E00B4
:1050E000494E56455200000020202020200000009C
:1050F00020202020202020202020000010B518484B
:105100000068047A022C01D0042C05D1FDF752FB73
:1051100013480068047A1CE0062C19D11048006876
:10512000407805280ED10E480068007800F07F0016
:1051300040B90B490968C87803F096FE0949096827
:10514000086A80470849096888688047082400E0A1
:105150000824034909680C7202F00AF910BD000026
:105160003C040020480400204004002010B50B48F7
:10517000006838B109480A490860084600680168B3
:10518000084888470BF03AFA01200BF0C5F800BF39
:105190000BF0BAF80028FBD010BD0000180701087A
:1051A000340200201007010808B54FF4A06001F098
:1051B00019FC08F045FD01F091F807F0EDFD1749E5
:1051C000002009F095F901F00FFD01F0B1FC01F0AC
:1051D000D3F803F001FE012816D1FDF70FFD1048AA
:1051E00022231A4600210090084601F0C1FC00204D
:1051F00001230CA219460090262001F0E7FDFFF7DD
:10520000B5FFFDF7F7FC07E003F0D8FF03F0E4FF7C
:1052100007F002FC07F0E2FB08BD0000BC0700201D
:105220000000002044415020436F6E6E656374009F
:1052300008B5002000900AF021FB08B9002008BD45
:105240004EF29E700AF004FC08B90020F7E70AF05D
:1052500015FB08B90020F2E768460AF0D7FA08B94A
:105260000020ECE70120EAE710B504460548407845
:1052700018B1204600F008F802E0204600F0A6F839
:1052800010BD0000C013002070B5054601F080FF7E
:1052900001F04CFE00BF00BF01F082FE00BF00BF66
:1052A00001F044FE00BF00BF01F07AFE00BF00BF66
:1052B00001F046FF01F03AFE00BF00BF01F070FEB2
:1052C00000BF00BF01F032FE00BF00BF01F068FE6A
:1052D00000BF00BF012001F077FF3B48C17D2030B7
:1052E00030F8114008E001F021FE00BF00BF01F0DE
:1052F00057FE00BF00BF641E002CF4D13248C17DB0
:105300001830405C441E0CE0E8B201F05DFF01F093
:105310000DFE00BF00BF01F043FE00BF00BF6D08DF
:10532000641E002CF0D12848C17D303030F8114087
:105330002CB3E8B201F048FF01F0F8FD00BF00BF58
:1053400001F02EFE00BF00BF012001F03DFF641EF2
:1053500008E001F0EBFD00BF00BF01F021FE00BF3F
:1053600000BF641E002CF4D101F012FF01F0DEFD3D
:1053700000BF00BF01F014FE00BF00BF0DE001F050
:1053800007FFE8B201F020FF01F0D0FD00BF00BF31
:1053900001F006FE00BF00BF00BF01F0C7FD00BF67
:1053A00000BF01F0FDFD00BF00BF01F0C9FE01F02C
:1053B000BDFD00BF00BF01F0F3FD00BF00BF012035
:1053C00001F002FF70BD0000C013002070B505465B
:1053D00001F0DEFE01F0AAFD9F494868014600BFCA
:1053E00000BF4A1E111EFCD100BF01F0D9FD9A4931
:1053F0004868014600BF00BF4A1E111EFCD100BF15
:1054000001F094FD94494868014600BF00BF4A1E60
:10541000111EFCD100BF01F0C3FD8F494868014651
:1054200000BF00BF4A1E111EFCD100BF01F088FE64
:1054300001F07CFD88494868014600BF00BF4A1E54
:10544000111EFCD100BF01F0ABFD83494868014645
:1054500000BF00BF4A1E111EFCD100BF01F066FD57
:105460007D494868014600BF00BF4A1E111EFCD19D
:1054700000BF01F095FD78494868014600BF00BFB4
:105480004A1E111EFCD100BF012001F09DFE724892
:10549000C17D203030F8114016E001F047FD6E4923
:1054A0004868014600BF00BF4A1E111EFCD100BF64
:1054B00001F076FD68494868014600BF00BF4A1EFA
:1054C000111EFCD100BF641E002CE6D16248C17DD4
:1054D0001830405C441E1AE0E8B201F075FE01F09D
:1054E00025FD5D494868014600BF00BF4A1E111EE8
:1054F000FCD100BF01F054FD57494868014600BF88
:1055000000BF4A1E111EFCD100BF6D08641E002C96
:10551000E2D15148C17D303030F81140002C4ED0DE
:10552000E8B201F051FE01F001FD4B494868014627
:1055300000BF00BF4A1E111EFCD100BF01F030FDAC
:1055400045494868014600BF00BF4A1E111EFCD1F4
:1055500000BF012001F038FE641E16E001F0E6FCF9
:105560003D494868014600BF00BF4A1E111EFCD1DC
:1055700000BF01F015FD38494868014600BF00BF73
:105580004A1E111EFCD100BF641E002CE6D101F0A2
:10559000FFFD01F0CBFC30494868014600BF00BF69
:1055A0004A1E111EFCD100BF01F0FAFC2A494868CE
:1055B000014600BF00BF4A1E111EFCD11AE001F0D7
:1055C000E7FDE8B201F000FE01F0B0FC22494868B6
:1055D000014600BF00BF4A1E111EFCD100BF01F0F2
:1055E000DFFC1D494868014600BF00BF4A1E111E6E
:1055F000FCD100BF01F09AFC17494868014600BF82
:1056000000BF4A1E111EFCD100BF01F0C9FC1249A7
:105610004868014600BF00BF4A1E111EFCD100BFF2
:1056200001F08EFD01F082FC0B494868014600BF85
:1056300000BF4A1E111EFCD100BF01F0B1FC06499B
:105640004868014600BF00BF4A1E111EFCD100BFC2
:10565000012001F0B9FD70BDC013002070B501F04C
:1056600097FD01F063FC66494868014600BF00BF32
:105670004A1E111EFCD100BF01F092FC604948682F
:10568000014600BF00BF4A1E111EFCD100BF01F041
:1056900057FD01F04BFC5A494868014600BF00BF66
:1056A0004A1E111EFCD100BF01F07AFC5449486823
:1056B000014600BF00BF4A1E111EFCD100BF01F011
:1056C00035FC4F494868014600BF00BF4A1E111E05
:1056D000FCD100BF01F064FC49494868014600BFA5
:1056E00000BF4A1E111EFCD100BF4548C57D16E013
:1056F00001F01CFC42494868014600BF00BF4A1E39
:10570000111EFCD100BF01F04BFC3D494868014629
:1057100000BF00BF4A1E111EFCD100BF6D1E002D30
:10572000E6D100241F251CE001F000FC3449486844
:10573000014600BF00BF4A1E111EFCD100BF01F090
:1057400051FD064601F02CFC2D494868014600BF7A
:1057500000BF4A1E111EFCD100BF44EAC674640893
:105760006D1E002DE0D101F013FD01F0DFFB244997
:105770004868014600BF00BF4A1E111EFCD100BF91
:1057800001F030FD064601F00BFC1D49486801465A
:1057900000BF00BF4A1E111EFCD100BF44EAC67400
:1057A00001F0C4FB16494868014600BF00BF4A1E0D
:1057B000111EFCD100BF01F0F3FB114948680146FE
:1057C00000BF00BF4A1E111EFCD100BF01F0B8FC93
:1057D00001F0ACFB0A494868014600BF00BF4A1E01
:1057E000111EFCD100BF01F0DBFB054948680146F2
:1057F00000BF00BF4A1E111EFCD100BF204670BD75
:10580000C01300202DE9F05F04460F46904604F0D7
:105810003F0606B9402604F0400010B101F0B8FC84
:1058200001E001F08DFC36E017F801AB00254FF0E8
:10583000080924E00AF0FF0001F0C6FC01F076FB45
:1058400017494868014600BF00BF4A1E111EFCD11F
:1058500000BF01F0C7FC834601F0A2FB1049486875
:10586000014600BF00BF4A1E111EFCD100BF4FEA17
:105870005A0A6D0845EACB15A9F10109761EB9F15E
:10588000000F01D0002ED5D125FA09F504F08000D3
:1058900008B108F8015B002EC6D1BDE8F09F0000FA
:1058A000C013002070B504460D460648407820B16C
:1058B0002946204600F008F870BD2946204600F031
:1058C0003FF9F9E7C01300202DE9F0470646884666
:1058D00001F05EFC01F02AFB00BF00BF01F060FB9D
:1058E00000BF00BF01F02CFC01F020FB00BF00BF97
:1058F00001F056FB00BF00BF01F018FB00BF00BF66
:1059000001F04EFB00BF00BF8C48C47D08E001F0F1
:105910000DFB00BF00BF01F043FB00BF00BF641ED2
:10592000002CF4D1C6F3470001F04EFC01F0FEFA62
:1059300000BF00BF01F056FC074601F031FB00BF7D
:1059400000BF4FEA4709C6F3870001F03DFC01F0B4
:10595000EDFA00BF00BF01F045FC074601F020FB57
:1059600000BF00BF49EA0709C6F3C70001F02CFCDD
:1059700001F0DCFA00BF00BF01F034FC074601F083
:105980000FFB00BF00BF49EA8709B9F1010F0AD038
:1059900001F0FEFB01F0CAFA00BF00BF01F000FBFE
:1059A00000BF00BFA1E006F00200002852D0002591
:1059B0001F240EE001F0BAFA00BF00BF01F012FC94
:1059C000074601F0EDFA00BF00BF45EAC7756D0854
:1059D000641E002CEED15948817DC07D081A441EFA
:1059E00014B301F0A3FA00BF00BF01F0FBFB0746B0
:1059F00001F0D6FA00BF00BF641E08E001F096FA7D
:105A000000BF00BF01F0CCFA00BF00BF641E002C35
:105A1000F4D101F0BDFB01F089FA00BF00BF01F035
:105A2000BFFA00BF00BF0DE001F0B2FB01F07EFA4B
:105A300000BF00BF01F0D6FB074601F0B1FA00BF7E
:105A400000BF00BF45EAC775B8F1000F4CD0C8F8D9
:105A5000005049E0D8F800501F240CE0E8B201F0F3
:105A6000B3FB01F063FA00BF00BF01F099FA00BF79
:105A700000BF6D08641E002CF0D13048817DC07DD0
:105A8000081A441E14B3E8B201F09EFB01F04EFA6E
:105A900000BF00BF01F084FA00BF00BF641E08E031
:105AA00001F044FA00BF00BF01F07AFA00BF00BF66
:105AB000641E002CF4D101F06BFB01F037FA00BF3B
:105AC00000BF01F06DFA00BF00BF0DE001F060FB08
:105AD000E8B201F079FB01F029FA00BF00BF01F044
