:020000040800F2
:10000000C862002015020008CD4B0008CD4B000847
:10001000CD4B0008CD4B0008CD4B00080000000080
:10002000000000000000000000000000CD4B0008B0
:10003000CD4B000800000000CD4B000811940008D3
:100040002F0200082F0200082F0200082F020008CC
:100050002F0200082F0200082F0200082F020008BC
:100060002F0200082F0200082F020008BD210008FF
:10007000DD210008FD2100081D2200083D220008A6
:1000800069220008952200082F02000883C6000894
:1000900079C700082F0200082F0200082F0200086D
:1000A0002F0200082F0200082F0200082F0200086C
:1000B0002F0200082F0200082F0200082F0200085C
:1000C0002F0200082F0200082F0200082F0200084C
:1000D0002F02000861970008219800082F020008ED
:1000E0002F0200082F02000875C600082F02000822
:1000F0002F0200082F0200082F0200082F0200081C
:100100002F0200082F0200082F0200082F0200080B
:100110002F0200082F0200082F0200082F020008FB
:10012000B5220008D5220008F9220008192300088A
:1001300000F002F800F05FF80AA090E8000C82449A
:100140008344AAF10107DA4501D100F054F8AFF277
:10015000090EBAE80F0013F0010F18BFFB1A43F0A5
:1001600001031847400C0100600C01000A444FF0E5
:10017000000C10F8013B13F0070408BF10F8014B06
:100180001D1108BF10F8015B641E05D010F8016B4B
:10019000641E01F8016BF9D113F0080F1EBF10F8AF
:1001A000014BAD1C0C1B09D16D1E58BF01F801CBD2
:1001B000FAD505E014F8016B01F8016B6D1EF9D555
:1001C0009142D6D37047000000230024002500266A
:1001D000103A28BF78C1FBD8520728BF30C148BFAA
:1001E0000B607047782900F07780002070471FB5BA
:1001F0001FBD10B510BD00F017FA1146FFF7F7FF4D
:100200000EF08CF900F035FA03B4FFF7F2FF03BCEF
:100210000CF0FEFD0948804709480047FEE7FEE76D
:10022000FEE7FEE7FEE7FEE7FEE7FEE7FEE7FEE7A6
:1002300004480549054A064B7047000085940008AC
:1002400031010008C85C0020C8620020C85E0020A0
:10025000C85E0020704700000FB4044910B503AA1F
:10026000029800F081F910BC5DF814FB3002002008
:100270002DE9F0410E460446002020622046E16848
:10028000884730B3252805D0D4E901219047206A5A
:10029000401CF2E7E168204600278847050018D097
:1002A000A5F14100192802D820354FF400673246E5
:1002B000294620462760FFF795FF40B1012804D06A
:1002C000F61D26F007060836D8E7361DD6E728467D
:1002D000DAE7206ABDE8F08170B504460D46214694
:1002E0001068AFF300802188090502D50F4A7A44CF
:1002F00002E00E4A7A440E32002104F1240305E0A4
:1003000000F00F060009965D5E54491C0028F7D1E5
:1003100020780023000704D5702D02D009B10223F4
:1003200011322046BDE8704000F0C5B8420A010015
:1003300030B505460B462A4613F8014B12F8010B5F
:1003400008B1A042F8D01CB1002802D06D1CF1E722
:10035000284630BD10B5431C02E010F8011B71B1F6
:100360008107FAD14FF0013202C88C1A8C4314EA8B
:10037000C211F9D0C01A0A0603D0C01E10BDC01A9F
:1003800010BD0A0401D0801E10BD0902FCD0401E21
:1003900010BD032A40F2308010F0030C00F01580ED
:1003A00011F8013BBCF1020F624498BF11F801CB78
:1003B00000F8013B38BF11F8013BA2F1040298BFDD
:1003C00000F801CB38BF00F8013B11F0030300F047
:1003D000DD80083AC0F0088051F8043B083A51F833
:1003E00004CBA0E80810F5E7121D5CBF51F8043BF0
:1003F00040F8043BAFF30080D20724BF11F8013B63
:1004000011F801CB48BF11F8012B24BF00F8013BC4
:1004100000F801CB48BF00F8012B70474FF00002F5
:100420000429C0F0128010F0030C00F01B80CCF106
:10043000040CBCF1020F18BF00F8012BA8BF20F874
:10044000022BA1EB0C0100F00DB85FEAC17C24BFC8
:1004500000F8012B00F8012B48BF00F8012B704772
:100460004FF0000200B5134694469646203922BF4D
:10047000A0E80C50A0E80C50B1F12001BFF4F7AF98
:10048000090728BFA0E80C5048BF0CC05DF804EB7A
:10049000890028BF40F8042B08BF704748BF20F8E8
:1004A000022B11F0804F18BF00F8012B70477047E6
:1004B0007047704770472DE9F0470D4699469246C0
:1004C000044600F124080168880604D5E06921F09B
:1004D0001001216000E00120A84201DD471B00E07F
:1004E0000027A1697A1902EB0900081AA061207897
:1004F000C00602D42046AFF30080002608E0D4E90D
:1005000001211AF806009047206A401C761C2062E0
:100510004E45F4DB2078C0060AD52046AFF30080B4
:1005200006E0D4E9012130209047206A401C206277
:10053000381EA7F10107F4DC07E0D4E9012118F81F
:1005400005009047206A401C2062281EA5F1010585
:10055000F3DC2046AFF300802078000602D50220AD
:10056000BDE8F0870120FBE7074B70B50D467B44E3
:1005700000F043F80446284600F052F810B14FF05E
:10058000FF3070BD204670BDF3DD000010B5203A8D
:10059000C0F00B80B1E81850203AA0E81850B1E83C
:1005A0001850A0E81850BFF4F5AF5FEA027C24BFF2
:1005B000B1E81850A0E8185044BF18C918C0BDE8E9
:1005C00010405FEA827C24BF51F8043B40F8043BB2
:1005D00008BF7047D20728BF31F8023B48BF11F867
:1005E000012B28BF20F8023B48BF00F8012B7047C1
:1005F00001694A1C02610878704700B58FB0CDE9E7
:1006000001310021059105497944CDE903101146D6
:100610006846FFF72DFE0FB000BD0000E5FFFFFFAD
:10062000007B00F080007047754600F02BF8AE4666
:1006300005006946534620F00700854618B020B5EE
:10064000FFF7F6FDBDE820404FF000064FF0000731
:100650004FF000084FF0000B21F00701AC46ACE86A
:10066000C009ACE8C009ACE8C009ACE8C0098D46D7
:10067000704710B50446AFF300802046BDE8104037
:10068000FFF7C2BD00487047645C002010B5044607
:1006900024B1012C07D0022C15D10AE01021012031
:1006A00008F0F2FA10E04FF48051022008F094FABA
:1006B0000AE01021012008F0E7FA4FF480510220EF
:1006C00008F08AFA00E000BF00BF10BD0146CAB2C0
:1006D0000B1243EA0220704710B5002404E0A7483B
:1006E000005DA7490855641CA64800888442F6D3DB
:1006F000A3484068A4494860A14880688860A14830
:1007000000881F280FD00220FFF7C0FF00209C495F
:100710000860487B1A22052108F0A2FB0021012075
:1007200008F080FB10BD9648C07B282803D0944871
:10073000C07B2A2816D19248407C01069048807CD4
:1007400041EA00418E48C07C41EA00208C49097D85
:1007500008438E4908608A48C17D807D41EA0020B7
:100760008B490860864800688A4988426FD184486E
:10077000407B89490968884207D88148807B0128E5
:1007800003DB7F48807B10280DDD0220FFF77EFF12
:100790007B49487B2422052108F062FB00210120CF
:1007A00008F040FBE8E07648C07B25285FD01BDCE2
:1007B00015286FD00EDC08286DD006DC00285BD031
:1007C000032830D0042867D176E00A2873D0122895
:1007D000F9D12DE01A380A285ED2DFE800F0392E70
:1007E000B17D33B1B1B1B1438A286FD00EDC552849
:1007F00067D006DC282844D02A284ED02F28E2D102
:1008000054E05A2829D08828DDD176E0A8286DD078
:1008100004DC8F286FD09E28D5D173E0AA287BD026
:10082000AF28D0D182E05649487B07F0ADF895E07B
:100830005349487B06F080FF90E05149487B07F020
:10084000B7F88BE04E49487B07F0B2F886E086E0C7
:100850004B49487B06F0C0FF80E04949487B06F0E1
:10086000B1FF7BE04649487B07F04AF876E044490F
:10087000487B06F0F7FF71E04149487B07F0A0F89C
:100880006CE03F49487B42490A684049096806F0E4
:10089000ADFF63E01BE024E052E03949487B3C496E
:1008A0000A683A49096807F0C7F857E03449487BB5
:1008B00007F0A2F852E02AE03149487B06F024FF15
:1008C0004CE02F49487B06F05BFF47E029E02C49CC
:1008D000487B06F055FF41E02949487B06F050FF70
:1008E0003CE02749487B06F04BFF37E02449487B32
:1008F00006F046FF32E01EE00EE02149487B06F09C
:100900003FFF2BE01E49487B06F03AFF26E01C49DA
:10091000487B06F035FF21E01949487B06F030FF9F
:100920001CE01749487B06F02BFF17E01449487B71
:1009300006F026FF12E01249487B06F021FF0DE089
:100940000220FFF7A3FE0E49487B2022052108F074
:1009500087FA0021012008F065FA00BF0CE00220B0
:10096000FFF794FE0649487B2022052108F078FA1B
:100970000021012008F056FA00BFD3E698110020AC
:10098000D811002016030020F811002018030020C1
:100990001C030020555342438403002010B500245B
:1009A00049E047F6FF70294908602948008800F0AF
:1009B0000F002849087008460078274901EB80009D
:1009C000D0F8000C84B204F40040C8B1214800788B
:1009D00001EB8000D0F8000CC0F30E0048F68F71D8
:1009E00008401C4909781C4A02EB8101C1F8000C3F
:1009F00018490978491E194A52F8210080471AE01F
:100A000004F08000B8B113480078134901EB80006E
:100A1000D0F8000C48F60F7108400E4909780E4ACC
:100A200002EB8101C1F8000C0A490978491E0C4A01
:100A300052F8210080470548006880B204490880C8
:100A400000F400400028ACD110BD0000445C004020
:100A500048030020300400200050004068030020BC
:100A60004C03002008B50020009022E19748008840
:100A700000F00F00964908700846007800287CD1E5
:100A800094480068944908800846008800F03000C7
:100A9000924908809048008800F440508E490880B0
:100AA0008C4909684BF6BF7201EA020080F40050DD
:100AB00080F0200040F4004141F08001854A11603F
:100AC0008248008800F0100090BB1046006848F68D
:100AD0000F7108401146086004F068F97D49096803
:100AE0004BF6BF7201EA02007B49098801F480518C
:100AF00009B180F480507849098801F4005109B1A6
:100B000080F400507549098801F0100109B180F0A6
:100B100010007249098801F0200109B180F020001D
:100B200081B241F4004141F080016A4A116008BD80
:100B3000FFE76848006880B20090BDF8000000F44C
:100B40000060B0B363480068C0F30E0048F68F71D0
:100B500008406049086008F0A1F95E4909684BF651
:100B6000BF7201EA02005C49098801F4805109B1B1
:100B700080F480505849098800E056E001F40051A3
:100B800009B180F400505549098801F0100109B1FC
:100B900080F010005149098801F0200109B180F06E
:100BA000200081B241F4004141F08001494A1160C6
:100BB000BDE7FFE7BDF8000000F40040002878D052
:100BC00044480068C0F30E0048F68F710840414960
:100BD000086005F0BFFF3F4909684BF6BF7201EAA4
:100BE00002003D49098801F4805109B180F4805028
:100BF0003949098801F4005109B180F4005037499E
:100C0000098801F0100109B180F01000334909880A
:100C100001F0200109B180F0200081B241F40041CF
:100C200041F080012B4A116081E7294800782C4966
:100C300001EB8000D0F8000C80B20090BDF80000FD
:100C400000F40040C0B12248007801EB8000D0F8E9
:100C5000000CC0F30E0048F68F7108401C4909785B
:100C60001F4A02EB8101C1F8000C19490978491E9D
:100C70001C4A52F821008047BDF8000000F08000B7
:100C8000B8B113480078164901EB8000D0F8000C89
:100C900048F60F7108400E490978114A02EB8101AC
:100CA000C1F8000C0A490978491E0F4A52F8210080
:100CB000804708484430006880B20449088000F446
:100CC000004000287FF4D2AE00BF30E74803002088
:100CD00030040020005C0040440400204604002052
:100CE00000500040680300204C03002000B502467D
:100CF000507800F008F80346107800F004F803EB91
:100D00000010C0B200BD0146A1F16100002802D46C
:100D10000A30C0B27047A1F14100002802D40A3065
:100D2000C0B2F7E7A1F13000C0B2F3E70B4A02EB23
:100D30008001D1F8001C01F4804171B102EB800107
:100D4000D1F8001C48F68F7211404CF2800211431A
:100D5000024B03EB8002C2F8001C704700500040B9
:100D60000B4A02EB8001D1F8001C01F0400171B187
:100D700002EB8001D1F8001C48F68F72114048F256
:100D8000C0021143024B03EB8002C2F8001C704703
:100D9000005000400020064908704870054908705E
:100DA000054908600549086005490860704700006A
:100DB0005004002052040020540400205804002055
:100DC0005C040020084A02EB8001D1F8001C48F6C0
:100DD0008F62114048F280021143034B03EB800203
:100DE000C2F8001C704700000050004070B5054676
:100DF0000E46287808B9012400E02C78012C02D096
:100E0000022C0CD105E001200849087006F0BEF85C
:100E100007E002200549087006F058F801E00024B8
:100E200000BF00BF34704FF0011070BDA012002051
:100E300030B502460B461078547840EA04210B483E
:100E400000680B4CB0FBF4F0801C0324B0FBF4F002
:100E500041430846044600BF00BF651E2C1EFCD15E
:100E600000BF00201870034830BD00003C02002085
:100E700040420F000100020010B504460020044962
:100E8000087006F057F800202070012010BD000007
:100E9000A012002030B502461546521C12F8014B34
:100EA0000BE012F8013B03F0020020B103F0100048
:100EB00010B1121D00E0121D641E002CF1D10020A3
:100EC00008704870501B0004801C30BD70B504468B
:100ED0000D46207810B1012810D107E0627802F0A9
:100EE00001000B4A1268116888470BE0627802F033
:100EF0000100074A12685168884703E0FF20287004
:100F0000044870BD00BF002028700248F9E70000C7
:100F1000280200200100020010B502460020062A27
:100F20001BD006DC062A30D2DFE802F02F0C0D0EB3
:100F30000F16F02A12D0FD2A14D0FE2A21D0FF2A43
:100F400023D118E022E021E020E0114B1C680C6066
:100F50001B790B71052019E018E017E017230B70BF
:100F6000012013E000230B7010234B7000238B70C3
:100F7000CB7004200AE040230B7000234B7002204A
:100F800004E040230B70012000E000BF00BF10BD53
:100F900043FF0008F0B502460E4612F8013B124826
:100FA00083750025002109E012F8014B0E48183026
:100FB0004454083020F811502544491C9942F3D379
:100FC000002108E008481830405C2D1A06483030EF
:100FD00020F81150491C9942F4D300203070581C5D
:100FE0000004401CF0BD0000A012002070B50646B1
:100FF0000C4612480078022800D019E031780F48DA
:10100000C175C07D0D49897D884200DB10E00E204E
:1010100003F082FF04F07AF9054600202070657025
:10102000280AA070280CE070280E2071044870BDBA
:10103000FF2020704FF00110F9E70000A0120020FF
:10104000050001002DE9F04704460E46002006F891
:10105000010B4FF001084FF0010914F801AB14E047
:1010600014F8017B32462146384604F023FA07F093
:101070003F0505B94025E81DC5082C44681C80447F
:1010800007F0800008B12E44A944BAF10000AAF18B
:10109000010AE5D1484668F31F40BDE8F08700002B
:1010A0002DE9F04F87B005460C46069500200490C8
:1010B00000260594A41CE44908708146039015F8A5
:1010C000011BE248C175C07DE049897D884200DB93
:1010D000ABE115F801BB4AE115F8017B07F001000F
:1010E00008B10B2000E00A20824607F00200002829
:1010F00079D00398002846D0D448B0F80A80D1456A
:1011000014D107F0100088B900BF6946384604F0D2
:1011100021FA0646022E24D1B8F10000A8F10108F8
:101120001FD0C94800780028EFD01AE0B9F10A0FA3
:1011300004D04FF00A09484603F0EEFE00BF6946AE
:101140000E2004F007FA0646022E08D1B8F100007E
:10115000A8F1010803D0BC4800780028EFD0002097
:101160000390012E00D006E1009804F8010B0098CE
:10117000000A04F8010B0098000C04F8010B009819
:10118000000E04F8010B07F01000002860D028784A
:10119000697840EA0120A97840EA0140E97840EA0C
:1011A000016002902D1DA94880890190D14503D08E
:1011B000D146484603F0B0FEA448B0F80A8000BF0C
:1011C0000021384604F0C6F90646022E08D1B8F1CF
:1011D0000000A8F1010803D09B4800780028EFD058
:1011E000012E01D0C7E056E000BF9848B0F80A8051
:1011F00000BF6946384604F0ADF90646022E08D114
:10120000B8F10000A8F1010803D08F480078002849
:10121000EFD0012E00D00EE08C4800690099084004
:101220000299884207D00198411E019118B1864861
:1012300000780028D9D000BF844800690099084090
:101240000299884201D046F01006012E22D092E089
:10125000039800281ED1D14503D0D146484603F05B
:101260005BFE7A48B0F80A8000BF0021384604F0DF
:1012700071F90646022E08D1B8F10000A8F1010864
:1012800003D0714800780028EFD0012E00D072E022
:101290000120039062E0039878B3B9F10A0F04D0FB
:1012A0004FF00A09484603F037FE6848B0F80A8054
:1012B00000BF69460E2004F04DF90646022E08D103
:1012C000B8F10000A8F1010803D05F4800780028B9
:1012D000EFD0012E00D04EE0009804F8010B0098EA
:1012E000000A04F8010B0098000C04F8010B0098A8
:1012F000000E04F8010B002003902878697840EA7A
:101300000120A97840EA0140E97840EA01600090B4
:101310002D1D07F0200020B14C48009901610126E5
:101320001CE0D14503D0D146484603F0F5FD4748BF
:10133000B0F80A8000BF6946384604F00BF906464B
:10134000022E08D1B8F10000A8F1010803D03E48F0
:1013500000780028EFD0012E00D00CE00498401C4B
:1013600004903948007800B105E0ABF1010BBBF106
:10137000000F7FF4B1AE00BF0CE015F8017B07F061
:10138000020020B107F0100010B12D1D00E02D1D4E
:10139000ABF1010BBBF1000FEFD1012E44D1B9F13C
:1013A0000A0F04D04FF00A09484603F0B5FD039830
:1013B00030B32648B0F80A8000BF69460E2004F01A
:1013C000C9F80646022E08D1B8F10000A8F10108BC
:1013D00003D01D4800780028EFD0012E00D024E073
:1013E000009804F8010B0098000A04F8010B00981B
:1013F000000C04F8010B0098000E04F8010B13E038
:101400001248B0F80A8000BF00210E2004F0A2F8B4
:101410000646022E08D1B8F10000A8F1010803D059
:10142000094800780028EFD000BF0498C1B20598A1
:101430000170059846700598211A0698281A41EA05
:10144000004007B0BDE8F08F48040020A012002043
:101450002DE9FC5F04460D464FF0000B0026A84620
:10146000ED1C00206049087014F8011B5F48C1752D
:10147000C07D5E49897D884200DBA9E020786178E3
:1014800040EA0127A41C07B9A2E014F801AB0AF056
:10149000010008B10B2000E00A200090009803F042
:1014A0003BFD0AF0020000284DD05048B0F80A90E9
:1014B00000BF0021504604F04DF80646022E08D128
:1014C000B9F10000A9F1010903D0474800780028CC
:1014D000EFD0012E00D07BE030E03FB900980A2821
:1014E00002D00A2003F018FD4FF00E0A3F48B0F872
:1014F0000A9000BF01A9504604F02CF80646022EBF
:1015000008D1B9F10000A9F1010903D036480078EB
:101510000028EFD0012E00D05AE0019805F8010B09
:101520000198000A05F8010B0198000C05F8010B61
:101530000198000E05F8010B0BF1010B381EA7F105
:101540000107CAD143E024E02078617840EA012015
:10155000A17840EA0140E17840EA01600190241D51
:101560002248B0F80A9000BF01A9504603F0F2FFEC
:101570000646022E08D1B9F10000A9F1010903D0F5
:10158000194800780028EFD0012E00D020E00BF1A0
:10159000010B381EA7F10107D6D100980A2802D006
:1015A0000A2003F0B9FC1148B0F80A9000BF0021EE
:1015B0000E2003F0CFFF0646022E08D1B9F100003D
:1015C000A9F1010903D0084800780028EFD000BF36
:1015D00088F800B04FEA1B2088F8010088F8026004
:1015E000A5EB0800BDE8FC9F48040020A0120020E5
:1015F00070B504460D4621780F48C175C07D0E496F
:10160000897D884203DBFF202870012070BD0820FF
:1016100003F082FC6078A17840EA0120E17840EA9A
:101620000140217940EA0166304604F045FB002084
:1016300028700120EAE70000A012002070B50546DE
:101640000E462878802807D328789F2804D831466A
:10165000284600F0AEF870BD287806F8010B15F8A2
:10166000010B1D2871D2DFE800F00F181E245E6404
:101670006A9A71292F9A9A9A9A9A343A40464C5209
:1016800058777D83898F94002878711CFFF744FC7C
:101690000446347004F10210DDE731462846FFF7B6
:1016A00015FC044681E031462846FFF79FFB0446BF
:1016B0007BE03046FFF7E0FB044676E03146284603
:1016C000FFF7B6FB044670E0304600F0B2F804467F
:1016D0006BE03146284600F0A7FB044665E0314642
:1016E000284600F065FB04465FE03146284600F0DE
:1016F0009BFC044659E03146284600F0A3F8044616
:1017000053E031462846FFF79DFC04464DE0314644
:101710002846FFF73FFC044647E031462846FFF7DE
:1017200065FC044641E03146284600F00DFD0446C4
:101730003BE03146284600F0B3FC044635E0314634
:10174000284600F0CFFC04462FE028E0314628462A
:1017500000F012FD044628E03146284607F070F9F3
:10176000044622E03146284607F00AF904461CE008
:101770003146284607F03EF8044616E03146284632
:1017800007F066F8044610E0304607F031F90446E9
:101790000BE03146284607F08BF8044605E0FF20B1
:1017A00006F8010C4FF0011055E700BF04F10110DD
:1017B00051E710B502464FF00110137801F8013BD4
:1017C00012F8013B803B202B31D2DFE803F01011EF
:1017D00012131415161718191A1B1C1D1E1F202171
:1017E00022232425262728292A2B2C2D2E2F1EE0C4
:1017F0001DE01CE01BE01AE019E018E017E016E01D
:1018000015E014E013E012E011E010E00FE00EE04C
:101810000DE00CE00BE00AE009E008E007E006E07C
:1018200005E004E003E002E001E000E000BF00BFEB
:1018300010BD014600BF0120487000200870022042
:101840007047000010B50246137803F00300401CF7
:10185000054C2075C3F380040348447500200870CC
:101860004FF0011010BD0000A01200202DE9F04F34
:1018700087B005460C460695002005900026A24636
:10188000A41CE0490870834604906D1C15F8019B68
:1018900050E115F8017B07F0020000287ED0BBF173
:1018A000000F3DD0D848B0F80A8007F01100012899
:1018B00011D100BF01A9384606F0BAF90646022E3A
:1018C0001CD1B8F10000A8F1010817D0CD4800786C
:1018D0000028EFD012E000BF01A90E2006F0A8F901
:1018E0000646022E08D1B8F10000A8F1010803D085
:1018F000C44800780028EFD04FF0000B012E00D034
:101900001CE1019804F8010B0198000A04F8010B8E
:101910000198000C04F8010B0198000E04F8010B6B
:1019200007F0100000285ED02878697840EA01208E
:10193000A97840EA0140E97840EA016003902D1D52
:10194000B1488089029007F00100B0B1AE48B0F80C
:101950000A8000BF0021384606F06AF90646022ECA
:1019600008D1B8F10000A8F1010803D0A54800781B
:101970000028EFD0012E00D0E0E000BFA248B0F870
:101980000A8000BF01A9384606F052F90646022E29
:101990000AD1B8F10000A8F1010800E069E003D025
:1019A000984800780028EDD0012E00D00EE096482F
:1019B0000069019908400399884207D00298411EA6
:1019C000029118B18F4800780028D7D000BF8E4808
:1019D0000069019908400399884201D046F0100639
:1019E000012E43D0AAE08848B0F80A8007F0010031
:1019F000C8B1BBF1000F39D100BF0021384606F055
:101A000017F90646022E08D1B8F10000A8F1010826
:101A100003D07C4800780028EFD0012E00D08DE064
:101A20004FF0010B22E000BF01A9384606F000F993
:101A30000646022E08D1B8F10000A8F1010803D033
:101A4000704800780028EFD0012E00D076E0019891
:101A500004F8010B0198000A04F8010B0198000C2E
:101A600004F8010B0198000E04F8010B002004900B
:101A700057E0BBF1000F27D06348B0F80A8000BFE1
:101A800001A90E2006F0D4F80646022E08D1B8F1BE
:101A90000000A8F1010803D05A4800780028EFD0D0
:101AA000012E00D04AE0019804F8010B0198000AC9
:101AB00004F8010B0198000C04F8010B0198000ECA
:101AC00004F8010B4FF0000B2878697840EA0120F8
:101AD000A97840EA0140E97840EA016001902D1DB3
:101AE00007F0200020B1484801990161012618E063
:101AF0004548B0F80A8000BF01A9384606F098F8BA
:101B00000646022E08D1B8F10000A8F1010803D062
:101B10003C4800780028EFD0012E00D00EE00120D4
:101B200004900598401C05903648007800B105E007
:101B3000A9F10109B9F1000F7FF4ABAE00BF0CE0D1
:101B400015F8017B07F0020020B107F0100010B17A
:101B50002D1D00E02D1DA9F10109B9F1000FEFD1F4
:101B6000012E3FD1BBF1000F26D02748B0F80A80E4
:101B700000BF01A90E2006F05BF80646022E08D130
:101B8000B8F10000A8F1010803D01E480078002831
:101B9000EFD0012E00D026E0019804F8010B019847
:101BA000000A04F8010B0198000C04F8010B0198DD
:101BB000000E04F8010B15E0049898B11248B0F833
:101BC0000A8000BF00210E2006F032F80646022EE1
:101BD00008D1B8F10000A8F1010803D00948007845
:101BE0000028EFD000BF05988AF800008AF801604D
:101BF000A4EB0A010698281A41EA004007B0BDE8A4
:101C0000F08F000048040020A01200202DE9F84FBA
:101C100004460D464FF0000B0026A846ED1C0020A0
:101C200056490870641C2078617840EA012AA41C97
:101C3000BAF1000F00D195E014F8017B07F0020023
:101C400000284FD007F00100B0B14D48B0F80A901D
:101C500000BF0021384605F0EBFF0646022E08D1F2
:101C6000B9F10000A9F1010903D044480078002827
:101C7000EFD0012E00D075E02EE0BAF1000F03D1B5
:101C800007F0010000B10E273D48B0F80A9000BFF0
:101C90006946384605F0CCFF0646022E08D1B9F158
:101CA0000000A9F1010903D0344800780028EFD0E2
:101CB000012E00D056E0009805F8010B0098000AAC
:101CC00005F8010B0098000C05F8010B0098000EB8
:101CD00005F8010B0BF1010BBAF10000AAF1010AA2
:101CE000CBD13EE024E02078617840EA0120A17861
:101CF00040EA0140E17840EA01600090241D20485C
:101D0000B0F80A9000BF6946384605F091FF0646D4
:101D1000022E08D1B9F10000A9F1010903D017483A
:101D200000780028EFD0012E00D01BE00BF1010B52
:101D3000BAF10000AAF1010AD5D11148B0F80A9011
:101D400000BF00210E2005F073FF0646022E08D1C9
:101D5000B9F10000A9F1010903D008480078002872
:101D6000EFD000BF88F800B04FEA1B2088F80100D0
:101D700088F80260A5EB0800BDE8F88F4804002051
:101D8000A012002038B504460D466078A17840EADC
:101D90000120E17840EA0140217940EA01600090A9
:101DA0006946002005F044FF00202870012038BD5E
:101DB00030B502460C461078557840EA05209578F3
:101DC00040EA0540D57840EA05631BB9FF20207042
:101DD000124830BD12480068B3EB900F04D30120C5
:101DE000104D6870686014E000200E4D6870581E39
:101DF0000B4D2D6800EB5500B0FBF3F1022905D91E
:101E0000891E881C0325B0FBF5F100E0012105487F
:101E10004160002020700148DBE700000100040061
:101E20003C020020A01200202DE9F047064688461B
:101E300034787578B078F17840EA0120317940EA59
:101E40000140717940EA016705F00100D8B104F062
:101E5000010058B100BF6D48406840F000706B4908
:101E6000486008156A49086000BF0CE000BF674879
:101E7000406840F000706549486008156449091DD4
:101E8000086000BF00BF05F0020028B304F00200A4
:101E900080B100BF5D48406840F000705B49486019
:101EA0000846406840F0007048604815584908608E
:101EB00000BF11E000BF5548406840F00070534932
:101EC00048600846406840F0007048604815504936
:101ED000091D086000BF00BF05F0040070B1C4F325
:101EE000870000F0010119B140214A4A116003E066
:101EF0004021484A121D116000BF00BF05F02000BC
:101F000018B1C4F3471000BF00BF05F0800018B13E
:101F1000C4F3C7100DF090FC002F56D03E48874206
:101F200000D9074600BF00204FF0E02188613B4800
:101F300000683B49B0FBF1F078434FF0E021486185
:101F40000520086100BF00BF05F0010020B104F0CA
:101F500053FE604000B128E005F0020028B104F013
:101F60005BFF80EA540000B11FE005F0040028B1D7
:101F700004F07AFF80EA940000B116E005F020003A
:101F800028B100BF002080EA541000B10DE005F038
:101F9000800048B100BF1E480838006800F001000A
:101FA00080EAD41000B100E007E000BF4FF0E0206D
:101FB0000069C0F300400028C6D000BF00BF002069
:101FC0004FF0E021086100BF00BF04F015FE81461C
:101FD00004F022FF49EA400904F046FF49EA800183
:101FE0000C4808380068C0F3C01041EAC000002166
:101FF00040EA411106480838006800F0010041EA53
:10200000C01488F800400748BDE8F0870000014090
:1020100010080140100C0140C0C62D003C020020F9
:1020200040420F000100060070B504460E4614F849
:10203000015B0DB94FF480752146284606F084FBFC
:1020400000203070E81DC508681C0004401C70BDED
:1020500010B500200F49087048700F48006840080C
:102060000E49B0FBF1F0801E0A494860002008725A
:1020700064210848418100218181016101200549D5
:10208000087500210348417500200249887504F055
:1020900051FF10BDA01200203C0200208096980045
:1020A00070B505460E460E480078012802D0022879
:1020B0000CD105E031462846FFF7D8FB04460BE07B
:1020C00031462846FEF7ECFF044605E03146284637
:1020D000FEF7E0FE044600BF00BF204670BD0000D2
:1020E000A012002070B505460E461648007801285B
:1020F00002D002280CD105E031462846FFF786FDC4
:1021000004460BE031462846FFF7A2F9044605E0F5
:10211000002030707070B070032400BF00BFE878FA
:1021200000F0020010B144F4802408E06878A97837
:1021300040EA0120042101EB800044EA00442046EB
:1021400070BD0000A012002002461078084B1872E3
:102150005078937840EA032305484381D078137977
:1021600040EA032302488381002008700148704739
:10217000A01200200100050070B506460D460D486E
:102180000078012802D002280CD105E0294630460B
:10219000FFF7F8FD044609E029463046FFF728FA24
:1021A000044603E0FF202870012400BF00BF44F470
:1021B000A02070BDA01200207047000010B5054897
:1021C000006800F00F04034844602046FFF7F4FF66
:1021D00010BD0000000002407047000010B5054827
:1021E0000068C0F303142001024948602046FFF74D
:1021F000F3FF10BD000002407047000010B5054815
:102200000068C0F303242002024948602046FFF71B
:10221000F3FF10BD000002407047000010B50548F4
:102220000068C0F303342003024948602046FFF7EA
:10223000F3FF10BD000002407047000010B50548D4
:102240000068C0F303442004024948602046FFF7B9
:10225000F3FF10BD0000024010B50446014808F02D
:102260003DFC10BD4001010810B505480068C0F3F1
:1022700003542005024948602046FFF7EDFF10BDDA
:102280000000024010B50446014808F0C7FD10BD2B
:102290004001010810B505480068C0F3036420063A
:1022A000024948602046FFF7EDFF10BD00000240E4
:1022B0007047000010B50548006800F00F0403489F
:1022C000001D04602046FFF7F3FF10BD000402402C
:1022D0007047000010B506480068C0F303142001E1
:1022E0000349091D08602046FFF7F2FF10BD0000FA
:1022F000000402407047000010B506480068C0F3B3
:10230000032420020349091D08602046FFF7F2FF5D
:1023100010BD00000004024010B50C480068C0F376
:10232000033434B120030949091D0860204600F038
:102330000FF806480068C0F3034434B12004034991
:10234000091D0860204600F004F810BD000402409A
:102350007047704770B505460C46012D02D0022D1E
:1023600071D171E06A48406940F0010068494861F4
:10237000082C60D2DFE804F05F04101C29364350BB
:102380000020644988600F2048600B2004F026F983
:102390000B2004F03BF94EE000205E49C861F020BC
:1023A00048600C2004F01AF90C2004F02FF942E0E8
:1023B0000020584908634FF4706048600D2004F015
:1023C0000DF90D2004F022F935E000205149486450
:1023D0004FF4704048600E2004F000F90E2004F025
:1023E00015F928E000204B4988654FF470204860BB
:1023F0000F2004F0F3F80F2004F008F91BE0002090
:102400004449C8664FF470004860102004F0E6F8B4
:10241000102004F0FBF80EE000203E4980310860F7
:102420004FF070603B494860112004F0D7F811204C
:1024300004F0ECF800BF00BF0120A0403649097845
:1024400008433549087061E03148406940F00200B6
:102450002F494861062C50D2DFE804F04F03101FCB
:102460002F3F00202D4908600F20091F08603820E9
:1024700004F0B4F8382004F0C9F83EE00020274901
:1024800014310860F0202549091F0860392004F044
:10249000A5F8392004F0BAF82FE000201F492831B0
:1024A00008604FF470601D49091F08603A2004F06D
:1024B00095F83A2004F0AAF81FE0002017493C31B3
:1024C00008604FF470401549091F08603B2004F074
:1024D00085F83B2004F09AF80FE000200F495031B6
:1024E00008604FF470200D49091F08603B2004F07C
:1024F00075F83B2004F08AF800BF00BF0120A0401F
:102500000749097808430649087000BF00BF70BD3D
:1025100000100240000002409B040020080402401A
:102520009C04002070B505460C46012D02D0022DFA
:102530004ED14EE04F48007800B970BD082C37D21C
:10254000DFE804F036040B121920272E0B2004F0CC
:1025500051F80020484988602AE00C2004F04AF82D
:1025600000204549C86123E00D2004F043F8002015
:10257000414908631CE00E2004F03CF800203E496D
:10258000486415E00F2004F035F800203A498865CA
:102590000EE0102004F02EF800203749C86607E04E
:1025A000112004F027F8002033498031086000BF73
:1025B00000BF0120A0402F49097881432D480170B8
:1025C000007828B92D48406920F001002B49486166
:1025D0004CE02B48007800B9AFE7062C35D2DFE895
:1025E00004F034030A121A27382004F003F80020FC
:1025F0002449086029E0392003F0FCFF002021492C
:102600001431086021E03A2003F0F4FF00201D4956
:102610002831086019E01A48007800F0200010B94D
:102620003B2003F0E7FF002016493C3108600CE036
:102630001348007800F0100010B93B2003F0DAFFD7
:10264000002010495031086000BF00BF0120A040A9
:102650000B49097881430A480170007828B9074876
:10266000406920F002000549486100BF00BF00BF7B
:1026700063E700009B0400200000024000100240BD
:102680009C0400200804024000F0805111B103496D
:10269000086001E0024948607047000004040240FD
:1026A0000000024021B1026842F00102026004E031
:1026B00002684FF6FE731A400260704701684FF6D9
:1026C000FE72114001600021016041608160C160C3
:1026D0004B49884208D14A490839496841F00F01FD
:1026E000474A083A51608AE045491431884208D186
:1026F00043490839496841F0F001414A083A5160BC
:102700007DE03F492831884208D13D490839496870
:1027100041F470613A4A083A516070E038493C31FE
:10272000884208D136490839496841F47041344A31
:10273000083A516063E032495031884208D130494B
:102740000839496841F470212D4A083A516056E031
:102750002B496431884208D129490839496841F434
:102760007001274A083A516049E02549783188428A
:1027700008D123490839496841F07061204A083A74
:1027800051603CE01F49884206D1011F096841F0B1
:102790000F01021F116032E01A491431884208D13A
:1027A0001849091F096841F0F001164A121F11600B
:1027B00025E014492831884208D11249091F0968C7
:1027C00041F470610F4A121F116018E00D493C314D
:1027D000884208D10B49091F096841F47041094A30
:1027E000121F11600BE007495031884207D105499B
:1027F000091F096841F47021024A121F11607047D5
:1028000008000240080402400146486880B2704750
:102810001AB103680B43036002E003688B43036053
:10282000704710B50022026847F6F0739A430C6AAD
:102830008B6823430C6923434C6923438C692343EE
:10284000CC6923434C6A23438C6A23431A430260B6
:10285000CB6843600B6883604B68C36010BD416008
:10286000704700002DE9F0472848006800F1100586
:102870002E8826480068077AD6B9042F18D1244834
:10288000007801280FD100212248006880B2801C06
:10289000214A42F8101030202049088000BF002053
:1028A0001B49087003E0072710201C49088027E017
:1028B000AC88A64201D8042000E002200746B442BA
:1028C00000D93446A0B2A96888478046002002F0AB
:1028D0001FF88146A2B2494640460AF051F8A1B21B
:1028E000002006F0C3F92888001B2880688820444F
:1028F000688030200949088000020949088000BF2B
:10290000024909680F72BDE8F08700003404002016
:102910002E040020505C004000600040460400206F
:10292000440400202DE9F0412848006800F110041B
:102930002688A068C0B1BEB1A588B54200D9354689
:10294000A8B2A168884707462088401B208060887D
:1029500028446080002001F0B9FF8046AAB24146B9
:10296000384604F09FFA00BF208850B14FF4405021
:10297000174908800021084606F078F930201549EB
:1029800008802088A188884204DB03200F49096859
:10299000087218E02088002804DD05200B4909682A
:1029A000087210E0208870B906200849096808728A
:1029B00000210948006880B2801C084A42F81010C3
:1029C000302004490880BDE8F08100003404002074
:1029D0004404002046040020505C00400060004099
:1029E0002DE9F84F9B48006845780027BA46062D28
:1029F0001BD198480068007800F07F00002813D1B0
:102A0000944909688878012803D193490968CF69F6
:102A10000AE0022803D1904909680F6A04E00328FC
:102A200002D18D4909684F6A94E0002D64D189482C
:102A30000068408800285FD186480068C088022866
:102A40005AD1844800680079002855D1814800682F
:102A5000007800F07F0028B97E480068808808B9B7
:102A60007E4F77E07B480068007800F07F00012807
:102A700010D1784909684879774909688A6900213D
:102A80009047002866D173480068807A002861D09A
:102A9000724F5FE06F480068007800F07F00022806
:102AA00058D16C480068407900F00F06694800680A
:102AB000407900F0700967480068407900F08000B4
:102AC00038B1674901EB8600D0F8000C00F03008FF
:102AD00006E0634901EB8600D0F8000C00F4405892
:102AE00060480078B04235D9B9F1000F32D1B8F161
:102AF000000F2FD0594F2DE0082D07D15548006801
:102B0000007800F07F0028BB574F23E00A2D21D129
:102B100050480068007800F07F0001281AD14D4825
:102B20000068807AB0B14B480068408890B9494845
:102B30000068007970B947480068C088012809D149
:102B4000444909684879444909688A6900219047DD
:102B500000B9464F57B13F480068A0F812A03D4861
:102B6000006887610020B84700240FE0394A1268E6
:102B70005078394A1268116988470446032C05D1F8
:102B80000920344909680872BDE8F88F31480068A7
:102B9000008A4FF6FF71884204D109202D49096847
:102BA0000872F1E7022C03D02A480068008A20B995
:102BB0000820284909680872E6E726480068007876
:102BC00000F08000E0B323480068C08800902148EE
:102BD0000068008A0099884204D91E490098096853
:102BE000088223E01B480068008A1A490968C988DE
:102BF00088421BDA17480068008A1749096891F86B
:102C00002C10884203DA0020194908700EE01148A0
:102C10000068008A1049096891F82C1090FBF1F2C5
:102C200001FB120010B90120114908700A48006820
:102C300090F82C10074800688182FFF713FE07E028
:102C4000FFE7032003490968087200030949088067
:102C500000BF99E734040020380400203D910008AB
:102C60000050004094030020C1900008119100081A
:102C70002E04002044040020094909684FF47A72A8
:102C8000B1FBF2F1891C0322B1FBF2F1484301468A
:102C90000A4600BF00BF531E1A1EFCD100BF70477A
:102CA0003C02002001E00CF0F5FCFCE710B500242C
:102CB0000EE00C490A5D222101EBC401C8B20123D8
:102CC000194603F0A1FE0F200AF000FC601CC4B2FC
:102CD000072CEEDB4FF47A700AF0F8FB03F080FD6E
:102CE00010BD00001C0200200EB5FAA00BF08BF9FD
:102CF000FCA1FD480AF0CEFFF8B9FC49FA480BF0F8
:102D0000FAF8D0B9F949F8480BF0F5F8F748093066
:102D1000FDF720FB48B101200346F44A0932014681
:102D200000902D2003F0AAFE07E001200346F0A248
:102D3000014600902D2003F0A1FE00200123EEA209
:102D4000FF2100902D2003F099FE00200123EDA229
:102D5000014600902D2003F091FE01200346ECA2D5
:102D6000014600906E2003F089FE01200346E9A28F
:102D7000022100905C2003F081FE0020E7490860FA
:102D800000F0F6BE05F080FE012873D1E34800682C
:102D9000401CE249086008460068042801D1002070
:102DA0000860DE48006830B101282CD0022852D0DB
:102DB000032827D178E0CD480930FDF7CBFA48B198
:102DC00001200346C94A0932014600902D2003F034
:102DD00055FE07E001200346C5A2014600902D20C4
:102DE00003F04CFE01200346C9A2014600906E206C
:102DF00003F044FE01200346C6A2022100905C209D
:102E000003F03CFE78E0B9480930FDF7A3FA48B179
:102E100001200023B54A0932014600902D2003F01D
:102E20002DFE07E001200023B1A2014600902D20D5
:102E300003F024FE01200346B5A2014600906E2057
:102E400003F01CFE01200346B2A2022100905C2088
:102E500003F014FE50E0A5480930FDF77BFA50B1AD
:102E600001200346A14A0932014600902D2003F0BB
:102E700005FE08E041E0012003469DA201460090C6
:102E80002D2003F0FBFD01200023A1A201460090AC
:102E90006E2003F0F3FD012003469EA20221009064
:102EA0005C2003F0EBFD27E090480930FDF752FA73
:102EB00048B1012003468D4A0932014600902D2079
:102EC00003F0DCFD07E00120034689A201460090E3
:102ED0002D2003F0D3FD012003468DA20146009072
:102EE0006E2003F0CBFD012000238AA20221009076
:102EF0005C2003F0C3FD00BF00BF05F0C5FD022844
:102F00007ED186480068012804D002284ED00328CC
:102F10004BD1EDE275480930FDF71CFA002844D08A
:102F2000724971480AF0E7FF012003467CA201467E
:102F300000902D2003F0A2FD012000236B4A0932EE
:102F4000014600902D2003F099FD0120034670A258
:102F5000014600906E2003F091FD6448407A20BB4A
:102F600060A161480AF096FE60495F480AF0C3FF1D
:102F70005E495D480AF0BFFF0120034668A2014692
:102F800000902D2003F07AFD01200023574A0932DA
:102F9000014600902D2003F071FD012003465CA244
:102FA000014600906E2003F069FDA0E200205B491D
:102FB000086003F015FC5D4820231A4600210090AC
:102FC000084603F02DFC0020012359A2FF210090A8
:102FD0002D2003F053FD002001234AA2014600905A
:102FE0002D2003F04BFD01200090544854490978EE
:102FF00050F8210001230246194602902D2000E0DE
:10300000FEE303F03BFD0120034641A20146009090
:103010006E2003F033FD012003464AA202210090F6
:103020005C2003F02BFD60E205F02EFD012850D15D
:103030003A480068401C394908600846006804287E
:1030400001D1002008603548006830B101282BD03C
:1030500002287BD0032826D1B8E00120034631A204
:10306000014600902D2003F009FD01200090334817
:103070003349097850F8210001230246194602908D
:103080002D2003F0FBFC0120034621A20146009005
:103090006E2003F0F3FC012003462AA202210090D7
:1030A0005C2003F0EBFCBBE0012003461DA20146BF
:1030B00000902D2003F0E2FC012000901F482049E1
:1030C000097850F8210000230246012102902D20AA
:1030D0003DE0A9E0303A2F77726974652E62696E1F
:1030E00000000000303A0000800700206807002040
:1030F0004E554C4C0000000053454C45435420486D
:10310000455800002D2D2D2D2D2D2D2D2D2D000060
:103110003E3E0000464C415348000000EC010020B8
:103120002020202020202020202000004F010020EF
:103130004445425547204D4F44450000F4010020CE
:1031400018020020454E54455200000014E003F0E0
:1031500095FC01200346AFF24802014600906E2024
:1031600003F08CFC01200346AFF2280202210090FC
:103170005C2003F083FC53E001200346AFF25C02C5
:10318000014600902D2003F079FC01200090FE48BC
:10319000FE49097850F821000123024619460290A1
:1031A0002D2003F06BFC01200023AFF29C020146AE
:1031B00000906E2003F062FC01200346AFF27C0217
:1031C000022100905C2003F059FC29E00120034615
:1031D000AFF2B002014600902D2003F04FFC012019
:1031E0000090E948E949097850F821000123024696
:1031F000194602902D2003F041FC01200346AFF256
:10320000F002014600906E2003F038FC01200023FC
:10321000AFF2D002022100905C2003F02FFC00BF2F
:1032200000BF64200AF052F905F02EFC02287CD180
:10323000D7480068012804D002285ED003285BD15B
:10324000B9E0D2480078401CD049087008460078A0
:10325000092801D10020087001200023AFF23C12A0
:10326000014600902D2003F009FC01200090C64883
:10327000C649097850F82100002302460121029036
:103280002D2003F0FBFBC1480078092833D2DFE88A
:1032900000F0050A0F14191E23282D004FF4965034
:1032A0000CF0A4F827E04FF416500CF09FF822E041
:1032B0004FF461500CF09AF81DE04FF496400CF07A
:1032C00095F818E04FF416400CF090F813E04FF426
:1032D00061400CF08BF80EE04FF4E1300CF086F812
:1032E00009E04FF47A300CF081F804E04FF46120EB
:1032F0000CF07CF800BF00BFEFE003F071FAA548C6
:1033000021231A4600210090084603F089FAAFF203
:103310002C21A1480AF0BEFC10BBA0499E480AF02F
:10332000EAFDE8B99D499C4800E0D7E00AF0E3FDDA
:103330009A480930FDF70EF848B101200346974A34
:103340000932014600902D2003F098FB08E001208F
:103350000346AFF26422014600902D2003F08EFB5D
:1033600000200123AFF27022FF2100902D2003F0F6
:1033700085FB00200123AFF27422014600902D202E
:1033800003F07CFB01200346AFF27C220146009053
:103390006E2003F073FB01200346AFF28822022166
:1033A00000905C2003F06AFB00207949086001204E
:1033B0007B49087091E00020754908600120794937
:1033C000087003F00DFA0120034677A20221009055
:1033D000622003F053FB3CE005F056FB01282FD19F
:1033E0006B480068401C6A4908600846006801286C
:1033F0000FD103466EA202210090622003F03EFB33
:103400000120002368A202210090622003F036FB15
:103410000FE00120034666A202210090622003F023
:103420002DFB0120034660A202210090622003F0E0
:1034300025FB57480068022802D100205449086043
:1034400005F022FB022804D151480068012800D170
:1034500000E0C1E700BF00204D49086051490870F5
:1034600003F0BEF9544820231A4600210090084674
:1034700003F0D6F900200123AFF24C32FF21009077
:103480002D2003F0FBFA00200123AFF28832014621
:1034900000902D2003F0F2FA012000903A483B49B9
:1034A000097850F8210001230246194602902D2088
:1034B00003F0E4FA01200346AFF2AC32014600907B
:1034C0006E2003F0DBFA01200346AFF288320221BE
:1034D00000905C2003F0D2FA00BF00BF30480078B3
:1034E00018B100202E49087000E09DE500BF3EE3C2
:1034F00032A12A480930FCF71BFF00286AD003F0EC
:103500006FF9244821231A4600210090084603F051
:1035100087F901222149093129480AF005FB0028D1
:1035200058D1012327A2FF2100902D2003F0A6FAF5
:103530001A48093001F08EFB01287CD000200123BD
:10354000AFF22442022100902D2003F097FA0020D0
:1035500001231FA2022100902D2003F08FFA0020EA
:103560000B49086068E005F08FFA01285AD1084835
:103570000068401C0649086008460068012838D1E8
:1035800003460BA2022126E0F401002018020020CD
:10359000EC010020AA00002080070020680700201E
:1035A000F0010020F10100204241434B00000000E7
:1035B00020202020000000004F0100204845580036
:1035C000440500204845582020464C4153480000FF
:1035D0004552520094E10090622003F04FFA01201E
:1035E0000023AFF23C0202210090622003F046FA71
:1035F00011E001200346AFF2480202210090622050
:1036000003F03CFA01200346AFF26402022100906D
:10361000622003F033FAFE480068022802D100203D
:10362000FB49086005F030FA022805D1F848006827
:10363000012801D101E05AE095E700BF03F0D0F87E
:10364000F44821231A4600210090084603F0E8F8C8
:10365000AFF27051F0480AF01DFB00BBEF49EE4895
:103660000AF049FCD8B9ED49EB480AF044FCEB48B4
:103670000930FCF76FFE48B101200346E74A0932E2
:10368000014600902D2003F0F9F908E001200346DF
:10369000AFF2A452014600902D2003F0EFF9002074
:1036A0000123AFF2AC52FF2100902D2003F0E6F988
:1036B00000200123AFF2B452014600902D2003F008
:1036C000DDF901200346AFF2B852014600906E20AA
:1036D00003F0D4F901200346AFF2C8520221009052
:1036E0005C2003F0CBF90020C949086008E16420A0
:1036F00009F0ECFE00200123AFF2DC5219460090E5
:103700002D2003F0BBF900200123AFF2EC5202217F
:1037100000902D2003F0B2F93FE0C1A000680290B4
:1037200000200123AFF20862194600902D2003F01B
:10373000A5F901200346BBA2022100902D2003F031
:103740009DF90020B94908601AE002A8B749096844
:10375000405C0190B548007800EB4000452101EB4A
:103760004000C0B2012300900221019A03F04CF9FD
:10377000C82009F0ABFEAD480068401CAB490860AA
:10378000AA4800680328E0D301200346A8A202212A
:1037900000902D2003F072F900BFA7A000F028FCD4
:1037A0000028BAD0AFF2D4600AF02DFC0120034605
:1037B000AFF20C2202210090622003F05FF900209A
:1037C0009349086042E005F05FF9012835D190483F
:1037D0000068401C8E49086008460068012813D123
:1037E0000346AFF2342202210090622003F046F932
:1037F00001200023AFF2502202210090622000E05D
:10380000B6E103F03BF911E001200346AFF260227C
:1038100002210090622003F031F901200346AFF24B
:10382000782202210090622003F028F9784800688D
:10383000022802D100207649086005F025F9022807
:1038400004D173480068012800D100E0BBE700BF45
:1038500002F0C6FF6F4821231A4600210090084657
:1038600002F0DEFFAFF284716B480AF013FA00BB7E
:103870006A4969480AF03FFBD8B9684966480AF0C6
:103880003AFB66480930FCF765FD48B10120034664
:10389000624A0932014600902D2003F0EFF808E05B
:1038A00001200346AFF2B872014600902D2003F0CC
:1038B000E5F800200123AFF2C072FF2100902D2017
:1038C00003F0DCF800200123AFF2C872014600903B
:1038D0002D2003F0D3F801200346AFF2CC7201464D
:1038E00000906E2003F0CAF801200346AFF2DC72AC
:1038F000022100905C2003F0C1F8002044490860D8
:1039000050A146480930FCF713FD00287ED002F094
:1039100067FF404821231A4600210090084602F024
:103920007FFF01223D49093147480AF0FDF8002890
:103930006CD1012345A2FF2100902D2003F09EF8B9
:103940003FE037A00068029000200123AFF630026C
:10395000194600902D2003F091F80120034631A272
:10396000022100902D2003F089F800202F490860E3
:103970001AE002A82D490968405C01902B480078A4
:1039800000EB4000452101EB4000C0B20123009054
:103990000221019A03F038F8C82009F097FD234866
:1039A0000068401C21490860204800680328E0D3D3
:1039B000012003461EA2022100902D2003F05EF894
:1039C00000BF1648093000F013FB0028B9D00120D1
:1039D0000346AFF22C4202210090622003F04EF821
:1039E00000200B49086067E005F04EF801285AD125
:1039F00007480068401C064908600846006801281E
:103A000038D10346AFF25842022125E0AEE0000073
:103A1000EC010020AA000020800700206807002099
:103A20002E2E2E005741495400000000E8010020CE
:103A3000202020202020200077726974652E626982
:103A40006E00000042494E004405002042494E20CD
:103A500020464C41534800000090622003F00EF8CD
:103A600001200023AFF2C04202210090622003F047
:103A700005F811E001200346AFF2CC42022100908C
:103A8000622002F0FBFF01200346AFF2E442022174
:103A90000090622002F0F2FF36480068022802D14E
:103AA00000203449086004F0EFFF022804D13148B7
:103AB0000068012800D100E096E700BF02F090FE08
:103AC0002D4821231A4600210090084602F0A8FE46
:103AD000AFF6F01129480AF0DDF800BB2849274865
:103AE0000AF009FAD8B9264924480AF004FA244809
:103AF0000930FCF72FFC48B101200346204A093267
:103B0000014600902D2002F0B9FF08E00120034695
:103B1000AFF62422014600902D2002F0AFFF0020D6
:103B20000123AFF62C22FF2100902D2002F0A6FFEA
:103B300000200123AFF63422014600902D2002F030
:103B40009DFF01200346AFF63822014600906E200B
:103B500002F094FF01200346AFF6482202210090B4
:103B60005C2002F08BFF00200249086000BF00BF0C
:103B7000FFF708B9EC010020AA0000208007002010
:103B8000680700201CB56248006880B161482223A4
:103B90001A4600210090084602F042FE0020012350
:103BA0005DA219460090262002F068FFAFE05D4854
:103BB00021231A4600210090084602F031FE01221E
:103BC00059A15C4809F0B0FF002871D101235AA225
:103BD000FF2100902D2002F051FF3BE059A000682A
:103BE00001900020012358A2194600902D2002F0D8
:103BF00045FF0120034657A2022100902D2002F02C
:103C00003DFF00205549086017E001A9534B1B6890
:103C1000CA5C5249097801EB4101452303EB41019C
:103C2000C8B20123022102F0EFFEC82009F04EFCC9
:103C30004A480068401C4949086048480068032811
:103C4000E3D30120034646A2022100902D2002F07A
:103C500015FF00BF34A000F0CBF90028BED0012032
:103C6000034641A202210090622002F007FF0020DB
:103C70003F4908603DE004F007FF012830D13C488F
:103C80000068401C3A49086008460068012810D1C5
:103C9000034638A202210090622002F0EFFE0120CC
:103CA000002331A202210090622002F0E7FE10E022
:103CB0002BE0012003462FA202210090622002F097
:103CC000DDFE0120034628A202210090622002F0BE
:103CD000D5FE27480068022802D100202449086048
:103CE00004F0D2FE022804D121480068012800D146
:103CF00000E0C0E700BF02F073FD0A4821231A4626
:103D000000210090084602F08BFDFEF7EDFF1CBD80
:103D1000240400200000002055534220436F6E6EA3
:103D200065637400AA0000204155544F2E62696EED
:103D300000000000440500204155544F20464C41EE
:103D4000534800002E2E2E0020202020202020204E
:103D5000202000005741495400000000E8010020E5
:103D600020202020202020004241434B0000000062
:103D7000EC010020202020200000000010B502F0FF
:103D80008BFB10BD10B502F0C1FB10BD0020014936
:103D9000086070474003002010B5002400BF03E016
:103DA000002010490855641C0F4800788442F7DB56
:103DB000062000F09BFD0D4908600846006882B2AD
:103DC0004FF4E871074803F06DF8062004F024FF73
:103DD00006480068044908700846017801480BF05D
:103DE00069FB10BD08120020440300203C030020A2
:103DF00030B500F00F010D4C04EB8103D3F8002C1B
:103E000000F0800343B148F6CF731340254605EB1D
:103E10008104C4F8003C07E04CF68F731340034D57
:103E200005EB8104C4F8003C30BD000000500040A8
:103E300070B500F00F02104D05EB8204D4F8003C81
:103E400000F080045CB101F030045C4048F6BF75BE
:103E50002C40094E06EB8205C5F8004C0AE001F43F
:103E600040545C404BF68F752C40034E06EB8205A8
:103E7000C5F8004C70BD00000050004001490860CA
:103E80007047000014040140002123498279002A70
:103E90003AD00A46126803689A430B461A600A1D14
:103EA000126803689A430B1D1A60027911440A686C
:103EB00003681A430A60184A0832126803689A4372
:103EC000154B08331A601A1D126803689A43124B87
:103ED0000C331A604279102A0ED11A1F1268036837
:103EE0001A430D4B08331A601A1D126803681A43EF
:103EF000094B0C331A600DE00749427911440A68F6
:103F000003681A430A6005E0027911440A680368ED
:103F10009A430A60704700000004014030B504462F
:103F200004254FF4302000F071FA0546042D17D116
:103F30000C48006940F002000A49086108464461E3
:103F4000006940F0400008614FF4302000F05EFA54
:103F500005460448006941F6FD71084001490861C1
:103F6000284630BD0020024004200B49C96801F0FA
:103F7000010109B101200EE00749C96801F00401FF
:103F800009B1022007E00449C96801F0100109B134
:103F9000032000E00420704700200240034800692D
:103FA00040F0800001490861704700000020024095
:103FB00070B504460D460426F00200F027FA0646C6
:103FC000042E11D10948006940F001000749086139
:103FD0002580F00200F01AFA06460448006941F60E
:103FE000FE71084001490861304670BD0020024062
:103FF0002DE9FC5F834601225946DA4809F094FD19
:10400000D94908700846007800287DD10120D74999
:1040100008700020D64908600AF0F8FB002874D028
:104020000BF0EEF828B90BF0D7F820B10020BDE86E
:10403000FC9F0020FBE70BF005F90AF0E7FB0028E6
:104040007DD04FF000600BF06BF8002878D10BF0BA
:1040500053F8002875D152E1C64B4FF48062C6492F
:10406000C04809F061FEC3480088B0F5806F02DAED
:104070000020BE490870BE49096801F100604FF494
:104080008062BD490BF06EF800287DD1B549C86843
:104090000BF0BBFD04460D46B54800680BF0B5FDBE
:1040A000064622462B460BF02BFC80460022B34BE3
:1040B0000BF0BEFDCDE900010BF07AFD8246BAF1AE
:1040C0000A0F1AD3BAF1140F17D2AD48006808B915
:1040D000012000E00020AA49086000200123A9A2D5
:1040E000194600902D2002F0C9FC00200123A6A251
:1040F000022100902D2002F0C1FCBAF1140F1DD353
:10410000BAF11E0F1AD201E027E124E19C480068B1
:1041100008B9012000E0002099490860002001232F
:104120009AA2194600902D2002F0A8FC002001233D
:1041300097A2022100902D2002F0A0FC02E008E1ED
:1041400004E101E1BAF11E0F1AD3BAF1280F17D218
:104150008B48006808B9012000E000208849086009
:10416000002001238BA2194600902D2002F086FC2E
:104170000020012388A2022100902D2002F07EFC65
:10418000BAF1280F1CD300E0B1E0BAF1320F17D218
:104190007B48006808B9012000E0002078490860E9
:1041A000002001237DA2194600902D2002F066FC1C
:1041B000002001237BA2022100902D2002F05EFC52
:1041C000BAF1320F1AD3BAF13C0F17D26C4800681B
:1041D00008B9012000E0002069490860002001239F
:1041E00071A2194600902D2002F048FC0020012306
:1041F0006FA2022100902D2002F040FCBAF13C0F8A
:104200001AD3BAF1460F17D25D48006808B90120E9
:1042100000E000205A4908600020012365A21946E9
:1042200000902D2002F02AFC0020012363A202212D
:1042300000902D2002F022FCBAF1460F1AD3BAF1F9
:10424000500F17D24E48006808B9012000E0002046
:104250004B4908600020012359A2194600902D20E7
:1042600002F00CFC0020012357A2022100902D2017
:1042700002F004FCBAF1500F1AD3BAF15A0F17D258
:104280003F48006808B9012000E000203C49086070
:10429000002001234AA2194600902D2002F0EEFBD7
:1042A0000020012349A2022100902D2002F0E6FB0C
:1042B000BAF15A0F1AD3BAF1640F17D23048006816
:1042C00008B9012000E000202D49086000200123EA
:1042D0003FA2194600902D2002F0D0FB00200123C0
:1042E0003EA2022100902D2002F0C8FB01E0002038
:1042F0009DE61F48006800F580601D4908601B4866
:10430000007800287FF4A8AE0AF080FAD0B101202E
:104310001B49086000200AF0BFFB642009F0D6F8B2
:10432000002001232EA2194600902D2002F0A6FBAA
:10433000002001232DA2022100902D2002F09EFBDF
:10434000012074E6002072E6002070E60AF03CFFCF
:1043500005E000206BE6002069E6002067E600BF6C
:1043600065E6000044050020D4010020E0010020A3
:10437000E40100201A020020CC090020000059406E
:10438000908121423D000000313025003D3D00007C
:10439000323025003D3D3D00333025003D3D3D3D63
:1043A00000000000343025003D3D3D3D3D00000053
:1043B000353025003D3D3D3D3D3D0000363025007A
:1043C0003D3D3D3D3D3D3D00373025003830250029
:1043D0003D3D3D3D3D3D3D3D3D000000393025002A
:1043E0003D3D3D3D3D3D3D3D3D3D0000444F4E4545
:1043F00000000000024803494860034848607047D5
:104400002301674500200240AB89EFCD00B502468D
:104410000423FFF7A9FD034603E0FFF7A5FD0346CC
:10442000521E012B01D1002AF7D102B905231846EB
:1044300000BD000018B5002844D0C0F34211C0F3FD
:104440000322214B9B6903F001032BB91E4B9B698F
:1044500043F001031C4CA36100F48053A3B11B4B38
:10446000DB69009300F01F0301FA03F3009C9C43F7
:10447000009400F01F0302FA03F3009C234300930F
:10448000124C009BE3611DE0104B5B68009300F051
:104490001F0301FA03F3009C9C43009400F01F03E8
:1044A00002FA03F3009C2343009307210022009BA0
:1044B00023EA01630093009B43EA02630093034CE9
:1044C000009B636018BD0000001002400000014026
:1044D00001461D48814204D11C488069C0F3800018
:1044E00070471B48814204D118488069C0F3C0005E
:1044F000F6E71848814204D114488069C0F30010DF
:10450000EEE71548814204D110488069C0F340109D
:10451000E6E71248814204D10C488069C0F380105C
:10452000DEE70F48814204D108488069C0F3C0101B
:10453000D6E70C48814204D104488069C0F30020CA
:10454000CEE70020CCE70000000801400010024048
:10455000000C01400010014000140140001801400F
:10456000001C0140002001402DE9F04102460025D9
:104570000026002000230024002791F803C00CF03F
:104580000F0591F803C00CF0100CBCF1000F03D024
:1045900091F802C04CEA050591F800C0BCF1000F8B
:1045A00031D0146800202BE04FF0010C0CFA00F31E
:1045B000B1F800C00CEA03069E4220D183004FF000
:1045C0000F0C0CFA03F7BC4305FA03FC4CEA040495
:1045D00091F803C0BCF1280F06D14FF0010C0CFA82
:1045E00000FCC2F814C00AE091F803C0BCF1480F07
:1045F00005D14FF0010C0CFA00FCC2F810C0401CB1
:104600000828D1D31460B1F800C0BCF1FF0F34DD2D
:10461000546800202EE000F1080C4FF0010808FA61
:104620000CF3B1F800C00CEA03069E4221D18300CE
:104630004FF00F0C0CFA03F7BC4305FA03FC4CEAED
:10464000040491F803C0BCF1280F05D100F1080C57
:1046500008FA0CF8C2F8148091F803C0BCF1480FB6
:1046600007D100F1080C4FF0010808FA0CF8C2F865
:104670001080401C0828CED35460BDE8F0812DE99D
:10468000F04105460C46174698460F2C02D90020EB
:10469000BDE8F0812846FFF71BFF18B90121284625
:1046A00000F072F8B8F1000F10D1022F05D1E868C0
:1046B0000121A1408843E86008E0032F06D127F0DC
:1046C0000107E8680121A1400843E860082C01D2F5
:1046D0002E4601E0083C2E1D3068A2000F219140BB
:1046E0008843306048EA8700A10088403168084369
:1046F00030600120CCE70000F0B50A46002300241A
:104700000021002500F00046B6F1004F02D11D4EF9
:10471000F16901E01B4E7168C0F3034583B200F4F8
:104720004016B6F5401F08D121F07061154E76682D
:1047300026F07066134F7E6012E000F48016B6F526
:10474000801F06D1032606FA05F4A14341F07061EB
:1047500006E0460D360103FA06F6B14341F07061FA
:1047600022B1460D360103FA06F6314300F0004649
:10477000B6F1004F02D1034EF16101E0014E7160CC
:10478000F0BD000000000140002945D0454A90429C
:1047900006D1454A926942F00402434B9A6180E097
:1047A000424A904206D1404A926942F008023E4B8A
:1047B0009A6176E03E4A904206D13B4A926942F0C5
:1047C0001002394B9A616CE03A4A904206D1364A5F
:1047D000926942F02002344B9A6162E0364A90427C
:1047E00006D1314A926942F040022F4B9A6158E05B
:1047F000324A904206D12C4A926942F080022A4BFA
:104800009A614EE02E4A90424BD1274A926942F477
:104810008072254B9A6144E0224A904206D1224A96
:10482000926922F00402204B9A613AE01F4A9042BA
:1048300006D11D4A926922F008021B4B9A6130E0B2
:104840001B4A904206D1184A926922F01002164B78
:104850009A6126E0174A904206D1134A926922F0E3
:104860002002114B9A611CE0134A904206D10E4A75
:10487000926922F040020C4B9A6112E00F4A90427A
:1048800006D1094A926922F08002074B9A6108E03A
:104890000B4A904205D1044A926922F48072024B7D
:1048A0009A6170470008014000100240000C01406E
:1048B000001001400014014000180140001C01409C
:1048C0000020014041617047016170470146054881
:1048D000006880B200EBC100001D034A32F81000EE
:1048E00080B27047505C00400060004001460648BE
:1048F000006880B200EBC100801D044A32F810004D
:10490000C0F3090070470000505C004000600040A8
:1049100001460548006880B200EBC100034A32F846
:10492000100080B270470000505C00400060004002
:104930000D490978012910D10C4909680C4A1268FF
:10494000891A0C4A126888180A49096851B9074936
:104950000968074A1268881A04E004490968044A89
:104960001268881A704700004F0400205404002089
:10497000580400205C04002010B5084B1B68C3F3EA
:104980000B02C2F58051054B1B68054C24681B1BAC
:10499000C3F58050884200D9084610BD5404002059
:1049A00058040020084A1178127882F00102064B60
:1049B0001A70064A525C064B1B7842EA030000223A
:1049C000024B5A547047000052040020500400204B
:1049D0004F04002010B50F4B18681B1D19681B1DD4
:1049E0001A68A8B10C4CA070030A2371030CA371C0
:1049F000030E2372A1720B0A23730B0CA3730B0E0D
:104A00002374A274130A2375130CA375130E237653
:104A100010BD0000E8F7FF1F200300202DE9F0473C
:104A200004460D464FF0FF0A2078D02872DB20782C
:104A3000D7286FDC207805F8010B14F8010BD0386B
:104A4000082868D2DFE800F00412151821335672E6
:104A50005648076805F8017B380A05F8010B380C41
:104A600005F8010B380E05F8010B81E0FFF7C2FCD9
:104A70007EE0FFF793FA7BE027683846FFF74EFAAF
:104A8000042801D04FF0FF0A72E0D4F80080A68815
:104A900006E018F8011BFF2902D04FF0FF0A04E0DE
:104AA000301EA6F101018EB2F3D100BF60E027688D
:104AB000A688382E02DD4FF0FF0A1AE0A41D12E08E
:104AC00014F8019B2EB114F8011B49EA0129701E4C
:104AD00086B249463846FFF76BFA042802D04FF0F9
:104AE000FF0A05E0BF1C301EA6F101018EB2E7D11E
:104AF00000BF3DE0D4F80080A6883E2E02DD4FF0D6
:104B0000FF0A12E0002005F8010B09E026B998F829
:104B100000A005E030E027E018F8010B05F8010BD4
:104B2000301EA6F101018EB2F0D121E000BF00BF1E
:104B300000BF00BF00BFBFF34F8F00BF00BF00BF6B
:104B40001B48006800F4E0601A490843001D18493A
:104B5000086000BF00BF00BFBFF34F8F00BF00BFA2
:104B600000BF00E000BFFDE76D1E4FF0FF0A00BF71
:104B700000BF85F800A017E00F48006890B10F4B08
:104B8000DFF83CC0DCF800C003EB8C110D4BDFF804
:104B900038C0DCF800C003EB8C10074B1B685A6868
:104BA000904701E0FF202870BDE8F087002004E076
:104BB0000CED00E00000FA052C0200202C3400204F
:104BC000840400202C2400207C04002072B61E499E
:104BD000086880F3088800BF01F0FEF9002412E0A5
:104BE00001F06AFA6420FEF747F801F05DFA01F07F
:104BF0003DFA6420FEF740F801F030FA4FF47A7085
:104C0000FEF73AF8641C052CEADB00BF00BF00BFCA
:104C100000BF00BFBFF34F8F00BF00BF00BF0B48F6
:104C2000006800F4E0600A490843001D0749086075
:104C300000BF00BF00BFBFF34F8F00BF00BF00BF6A
:104C400000E000BFFDE70000000000080CED00E000
:104C50000000FA052DE9F04FADF2944D0646002410
:104C6000402103A8FBF7FCFBA246A046A14600207A
:104C700002900025012231469CA808F055FF13221E
:104C80003FA113A808F050FF40A000680190012048
:104C900003463FA2022100902D2001F0EFFE57E0D5
:104CA000781CC7B2642F19D101A90A5D04EB440135
:104CB0004B2303EB4101C8B20123022101F0A4FE02
:104CC000601CC4B2032C08DD00240120034632A27C
:104CD000022100904B2001F0D1FE00279DF80C002E
:104CE0003A2804D000200DF2944DBDE8F08F0DF16C
:104CF0000D00FBF7FBFF82460DF11100FBF7F6FFFD
:104D000083460DF10F00FBF7F1FF0BEB00201FFABC
:104D100080F80DF11300FBF7E9FF8146B9F1000FB0
:104D200016D1414613A808F010FE00250BE06900DB
:104D3000093103AA8818FBF7D9FF834613A908F0A5
:104D4000E0FF681CC5B203A8FBF704FBA842EED83D
:104D50009CAA402103A808F0D1FD0028A0D1012081
:104D600003460FA2022100902D2001F087FE13A818
:104D700008F0B9FD9CA808F0B6FD0120B3E70000DB
:104D800077726974652E62696E0000002E2E2E0007
:104D9000494E5645520000002020202020000000EF
:104DA00020202020202020202020000010B518489E
:104DB0000068047A022C01D0042C05D1FDF752FDC5
:104DC00013480068047A1CE0062C19D110480068CA
:104DD000407805280ED10E480068007800F07F006A
:104DE00040B90B490968C87803F096FE094909687B
:104DF000086A80470849096888688047082400E0F5
:104E00000824034909680C7202F00AF910BD000079
:104E100034040020400400203804002010B50B4862
:104E2000006838B109480A49086008460068016806
:104E3000084888470AF0DEFC01200AF069FB00BF41
:104E40000AF05EFB0028FBD010BD00003CFE00080D
:104E50002C02002034FE000808B54FF4A06001F0D9
:104E600019FC08F011FB01F091F807F0EDFD17496E
:104E7000002008F043FE01F00FFD01F0B1FC01F04D
:104E8000D3F803F001FE012816D1FDF70FFF1048FB
:104E900022231A4600210090084601F0C1FC0020A0
:104EA00001230CA219460090262001F0E7FDFFF730
:104EB000B5FFFDF7F7FE07E003F0D8FF03F0E4FFCE
:104EC00007F002FC07F0E2FB08BD00009C07002091
:104ED0000000002044415020436F6E6E65637400F3
:104EE00008B50020009009F0C5FD08B9002008BDF4
:104EF0004EF29E7009F0A8FE08B90020F7E709F00D
:104F0000B9FD08B90020F2E7684609F07BFD08B951
:104F10000020ECE70120EAE710B504460548407898
:104F200018B1204600F008F802E0204600F0A6F88C
:104F300010BD0000A012002070B5054601F080FFF2
:104F400001F04CFE00BF00BF01F082FE00BF00BFB9
:104F500001F044FE00BF00BF01F07AFE00BF00BFB9
:104F600001F046FF01F03AFE00BF00BF01F070FE05
:104F700000BF00BF01F032FE00BF00BF01F068FEBD
:104F800000BF00BF012001F077FF3B48C17D20300A
:104F900030F8114008E001F021FE00BF00BF01F031
:104FA00057FE00BF00BF641E002CF4D13248C17D03
:104FB0001830405C441E0CE0E8B201F05DFF01F0E7
:104FC0000DFE00BF00BF01F043FE00BF00BF6D0833
:104FD000641E002CF0D12848C17D303030F81140DB
:104FE0002CB3E8B201F048FF01F0F8FD00BF00BFAC
:104FF00001F02EFE00BF00BF012001F03DFF641E46
:1050000008E001F0EBFD00BF00BF01F021FE00BF92
:1050100000BF641E002CF4D101F012FF01F0DEFD90
:1050200000BF00BF01F014FE00BF00BF0DE001F0A3
:1050300007FFE8B201F020FF01F0D0FD00BF00BF84
:1050400001F006FE00BF00BF00BF01F0C7FD00BFBA
:1050500000BF01F0FDFD00BF00BF01F0C9FE01F07F
:10506000BDFD00BF00BF01F0F3FD00BF00BF012088
:1050700001F002FF70BD0000A012002070B50546CF
:1050800001F0DEFE01F0AAFD9F494868014600BF1D
:1050900000BF4A1E111EFCD100BF01F0D9FD9A4984
:1050A0004868014600BF00BF4A1E111EFCD100BF68
:1050B00001F094FD94494868014600BF00BF4A1EB4
:1050C000111EFCD100BF01F0C3FD8F4948680146A5
:1050D00000BF00BF4A1E111EFCD100BF01F088FEB8
:1050E00001F07CFD88494868014600BF00BF4A1EA8
:1050F000111EFCD100BF01F0ABFD83494868014699
:1051000000BF00BF4A1E111EFCD100BF01F066FDAA
:105110007D494868014600BF00BF4A1E111EFCD1F0
:1051200000BF01F095FD78494868014600BF00BF07
:105130004A1E111EFCD100BF012001F09DFE7248E5
:10514000C17D203030F8114016E001F047FD6E4976
:105150004868014600BF00BF4A1E111EFCD100BFB7
:1051600001F076FD68494868014600BF00BF4A1E4D
:10517000111EFCD100BF641E002CE6D16248C17D27
:105180001830405C441E1AE0E8B201F075FE01F0F0
:1051900025FD5D494868014600BF00BF4A1E111E3B
:1051A000FCD100BF01F054FD57494868014600BFDB
:1051B00000BF4A1E111EFCD100BF6D08641E002CEA
:1051C000E2D15148C17D303030F81140002C4ED032
:1051D000E8B201F051FE01F001FD4B49486801467B
:1051E00000BF00BF4A1E111EFCD100BF01F030FD00
:1051F00045494868014600BF00BF4A1E111EFCD148
:1052000000BF012001F038FE641E16E001F0E6FC4C
:105210003D494868014600BF00BF4A1E111EFCD12F
:1052200000BF01F015FD38494868014600BF00BFC6
:105230004A1E111EFCD100BF641E002CE6D101F0F5
:10524000FFFD01F0CBFC30494868014600BF00BFBC
:105250004A1E111EFCD100BF01F0FAFC2A49486821
:10526000014600BF00BF4A1E111EFCD11AE001F02A
:10527000E7FDE8B201F000FE01F0B0FC2249486809
:10528000014600BF00BF4A1E111EFCD100BF01F045
:10529000DFFC1D494868014600BF00BF4A1E111EC1
:1052A000FCD100BF01F09AFC17494868014600BFD5
:1052B00000BF4A1E111EFCD100BF01F0C9FC1249FB
:1052C0004868014600BF00BF4A1E111EFCD100BF46
:1052D00001F08EFD01F082FC0B494868014600BFD9
:1052E00000BF4A1E111EFCD100BF01F0B1FC0649EF
:1052F0004868014600BF00BF4A1E111EFCD100BF16
:10530000012001F0B9FD70BDA012002070B501F0C0
:1053100097FD01F063FC66494868014600BF00BF85
:105320004A1E111EFCD100BF01F092FC6049486882
:10533000014600BF00BF4A1E111EFCD100BF01F094
:1053400057FD01F04BFC5A494868014600BF00BFB9
:105350004A1E111EFCD100BF01F07AFC5449486876
:10536000014600BF00BF4A1E111EFCD100BF01F064
:1053700035FC4F494868014600BF00BF4A1E111E58
:10538000FCD100BF01F064FC49494868014600BFF8
:1053900000BF4A1E111EFCD100BF4548C57D16E066
:1053A00001F01CFC42494868014600BF00BF4A1E8C
:1053B000111EFCD100BF01F04BFC3D49486801467D
:1053C00000BF00BF4A1E111EFCD100BF6D1E002D84
:1053D000E6D100241F251CE001F000FC3449486898
:1053E000014600BF00BF4A1E111EFCD100BF01F0E4
:1053F00051FD064601F02CFC2D494868014600BFCE
:1054000000BF4A1E111EFCD100BF44EAC6746408E6
:105410006D1E002DE0D101F013FD01F0DFFB2449EA
:105420004868014600BF00BF4A1E111EFCD100BFE4
:1054300001F030FD064601F00BFC1D4948680146AD
:1054400000BF00BF4A1E111EFCD100BF44EAC67453
:1054500001F0C4FB16494868014600BF00BF4A1E60
:10546000111EFCD100BF01F0F3FB11494868014651
:1054700000BF00BF4A1E111EFCD100BF01F0B8FCE6
:1054800001F0ACFB0A494868014600BF00BF4A1E54
:10549000111EFCD100BF01F0DBFB05494868014645
:1054A00000BF00BF4A1E111EFCD100BF204670BDC8
:1054B000A01200202DE9F05F04460F46904604F04C
:1054C0003F0606B9402604F0400010B101F0B8FCD8
:1054D00001E001F08DFC36E017F801AB00254FF03C
:1054E000080924E00AF0FF0001F0C6FC01F076FB99
:1054F00017494868014600BF00BF4A1E111EFCD173
:1055000000BF01F0C7FC834601F0A2FB10494868C8
:10551000014600BF00BF4A1E111EFCD100BF4FEA6A
:105520005A0A6D0845EACB15A9F10109761EB9F1B1
:10553000000F01D0002ED5D125FA09F504F0800026
:1055400008B108F8015B002EC6D1BDE8F09F00004D
:10555000A012002070B504460D460648407820B1E0
:105560002946204600F008F870BD2946204600F084
:105570003FF9F9E7A01200202DE9F04706468846DA
:1055800001F05EFC01F02AFB00BF00BF01F060FBF0
:1055900000BF00BF01F02CFC01F020FB00BF00BFEA
:1055A00001F056FB00BF00BF01F018FB00BF00BFB9
:1055B00001F04EFB00BF00BF8C48C47D08E001F045
:1055C0000DFB00BF00BF01F043FB00BF00BF641E26
:1055D000002CF4D1C6F3470001F04EFC01F0FEFAB6
:1055E00000BF00BF01F056FC074601F031FB00BFD1
:1055F00000BF4FEA4709C6F3870001F03DFC01F008
:10560000EDFA00BF00BF01F045FC074601F020FBAA
:1056100000BF00BF49EA0709C6F3C70001F02CFC30
:1056200001F0DCFA00BF00BF01F034FC074601F0D6
:105630000FFB00BF00BF49EA8709B9F1010F0AD08B
:1056400001F0FEFB01F0CAFA00BF00BF01F000FB51
:1056500000BF00BFA1E006F00200002852D00025E4
:105660001F240EE001F0BAFA00BF00BF01F012FCE7
:10567000074601F0EDFA00BF00BF45EAC7756D08A7
:10568000641E002CEED15948817DC07D081A441E4D
:1056900014B301F0A3FA00BF00BF01F0FBFB074603
:1056A00001F0D6FA00BF00BF641E08E001F096FAD0
:1056B00000BF00BF01F0CCFA00BF00BF641E002C89
:1056C000F4D101F0BDFB01F089FA00BF00BF01F089
:1056D000BFFA00BF00BF0DE001F0B2FB01F07EFA9F
:1056E00000BF00BF01F0D6FB074601F0B1FA00BFD2
:1056F00000BF00BF45EAC775B8F1000F4CD0C8F82D
:10570000005049E0D8F800501F240CE0E8B201F046
:10571000B3FB01F063FA00BF00BF01F099FA00BFCC
:1057200000BF6D08641E002CF0D13048817DC07D23
:10573000081A441E14B3E8B201F09EFB01F04EFAC1
:1057400000BF00BF01F084FA00BF00BF641E08E084
:1057500001F044FA00BF00BF01F07AFA00BF00BFB9
:10576000641E002CF4D101F06BFB01F037FA00BF8E
:1057700000BF01F06DFA00BF00BF0DE001F060FB5B
:10578000E8B201F079FB01F029FA00BF00BF01F097
:105790005FFA00BF00BF00BF00BF01F01FFA00BFEB
:1057A00000BF01F055FA00BF00BF01F021FB01F07E
:1057B00015FA00BF00BF01F04BFA00BF00BF012087
:1057C00001F05AFB0948047A08E001F007FA00BF2B
:1057D00000BF01F03DFA00BF00BF00BF201EA4F1D2
:1057E0000104F2D109F0FF00BDE8F087A01200200B
:1057F0002DE9F0470746894601F022FB01F0EEF95A
:10580000FE494868014600BF00BF4A1E111EFCD178
:1058100000BF01F01DFAF9494868014600BF00BF0A
:105820004A1E111EFCD100BF01F0E2FA01F0D6F9C8
:10583000F2494868014600BF00BF4A1E111EFCD154
:1058400000BF01F005FAED494868014600BF00BFFE
:105850004A1E111EFCD100BF01F0C0F9E74948689B
:10586000014600BF00BF4A1E111EFCD100BF01F05F
:10587000EFF9E2494868014600BF00BF4A1E111E09
:10588000FCD100BFDD48C47D16E001F0A7F9DB497B
:105890004868014600BF00BF4A1E111EFCD100BF70
:1058A00001F0D6F9D5494868014600BF00BF4A1E3D
:1058B000111EFCD100BF641E002CE6D1C7F34700C7
:1058C00001F0DAFA01F08AF9CC494868014600BFD4
:1058D00000BF4A1E111EFCD100BF01F0DBFA0646D4
:1058E00001F0B6F9C5494868014600BF00BF4A1E2D
:1058F000111EFCD100BF4FEA4608C7F3870001F034
:10590000BBFA01F06BF9BD494868014600BF00BF12
:105910004A1E111EFCD100BF01F0BCFA064601F080
:1059200097F9B6494868014600BF00BF4A1E111EDC
:10593000FCD100BF48EA0608C7F3C70001F09CFA93
:1059400001F04CF9AD494868014600BF00BF4A1E4E
:10595000111EFCD100BF01F09DFA064601F078F956
:10596000A6494868014600BF00BF4A1E111EFCD16F
:1059700000BF48EA8608B8F1010F18D001F060FABC
:1059800001F02CF99D494868014600BF00BF4A1E3E
:10599000111EFCD100BF01F05BF99849486801462F
:1059A00000BF00BF4A1E111EFCD100BF2FE107F04F
:1059B0000200002874D000251F241CE001F00EF91D
:1059C0008E494868014600BF00BF4A1E111EFCD127
:1059D00000BF01F05FFA064601F03AF987494868CE
:1059E000014600BF00BF4A1E111EFCD100BF45EAA0
:1059F000C6756D08641E002CE0D18048817DC07D95
:105A0000081A441E002C4CD001F0E8F87B49486885
:105A1000014600BF00BF4A1E111EFCD100BF01F0AD
:105A200039FA064601F014F974494868014600BF86
:105A300000BF4A1E111EFCD100BF641E16E001F01B
:105A4000CDF86E494868014600BF00BF4A1E111ECE
:105A5000FCD100BF01F0FCF868494868014600BF6E
:105A600000BF4A1E111EFCD100BF641E002CE6D1EF
:105A700001F0E6F901F0B2F860494868014600BF5C
:105A800000BF4A1E111EFCD100BF01F0E1F85B49C6
:105A90004868014600BF00BF4A1E111EFCD11BE032
:105AA00022E001F0CDF901F099F854494868014627
:105AB00000BF00BF4A1E111EFCD100BF01F0EAF971
:105AC000064601F0C5F84D494868014600BF00BFD1
:105AD0004A1E111EFCD100BF45EAC675B9F1000F80
